:020000040800F2
:100000000000022075C40008C9110008CB110008C7
:10001000CD110008CF110008D11100080000000028
:10002000000000000000000000000000117B00083C
:10003000D311000800000000B17B0008AB7300087A
:10004000C9C40008C9C40008C9C40008D511000803
:10005000C9C40008C9C40008C9C40008C9C400084C
:10006000C9C40008C9C40008C9C40008E5110008D3
:10007000C9C40008C9C40008C9C40008C9C400082C
:10008000C9C40008C9C40008C9C40008C9C400081C
:10009000C9C40008C9C40008C9C40008C9C400080C
:1000A000C9C40008F5110008C9C40008C9C4000883
:1000B000C9C40008C9C40008C9C40008C9C40008EC
:1000C000C9C40008C9C40008C9C40008C9C40008DC
:1000D000C9C40008C9C4000805120008C9C4000842
:1000E000C9C40008C9C4000800000000C9C4000851
:1000F000C9C40008C9C40008C9C40008C9C40008AC
:10010000C9C40008C9C40008C9C40008C9C400089B
:10011000C9C40008C9C40008C9C40008C9C400088B
:10012000C9C40008C9C40008C9C40008C9C400087B
:10013000C9C40008C9C40008C9C40008C9C400086B
:1001400000000000000000000000000000000000AF
:10015000C9C40008C9C40008C9C40008C9C400084B
:10016000C9C40008C9C40008C9C40008C9C400083B
:10017000C9C40008C9C40008C9C4000800000000C0
:10018000C9C40008C9C40008C9C40008C9C400081B
:10019000C9C40008C9C40008C9C40008C9C400080B
:1001A000C9C40008C9C40008C9C40008C9C40008FB
:1001B000C9C40008C9C40008C9C40008C9C40008EB
:1001C000C9C40008C9C40008C9C40008C9C40008DB
:1001D000C9C40008C9C40008C9C40008C9C40008CB
:1001E000C9C40008C9C40008C9C40008C9C40008BB
:1001F000C9C40008C9C40008C9C40008C9C40008AB
:10020000C9C40008C9C40008C9C40008C9C400089A
:10021000C9C40008C9C40008C9C40008C9C400088A
:10022000C9C40008C9C40008C9C40008000000000F
:10023000C9C40008C9C4000800000000C9C40008FF
:10024000C9C40008C9C40008C9C40008C9C400085A
:10025000C9C40008C9C40008C9C40008C9C400084A
:10026000C9C40008C9C40008C9C40008C9C400083A
:10027000C9C40008C9C40008C9C4000800000000BF
:10028000C9C40008C9C40008C9C4000800000000AF
:0802900000000000C9C40008D1
:1002A00010B5054C237833B9044B13B10448AFF3B0
:1002B00000800123237010BD80000020000000009A
:1002C000B8CE000808B5034B1BB103490348AFF390
:1002D000008008BD0000000084000020B8CE0008A7
:1002E000034613F8012B002AFBD1181A0138704776
:1002F00001F0FF01102A2BDB10F0070F08D010F8D7
:10030000013B013A8B422DD010F0070F42B3F6D1DA
:10031000F0B441EA012141EA014122F007047FF0F3
:1003200000070023F0E80256083C85EA010586EA4A
:10033000010685FA47F5A3FA87F586FA47F6A5FA86
:1003400087F68EB9EED1F0BC01F0FF0102F0070292
:1003500032B110F8013B013A83EA010313B1F8D13D
:100360000020704701387047002D06BF354603381E
:10037000073815F0010F07D1013015F4807F02BF57
:10038000013015F4C03F0130F0BC0138704700BFA8
:1003900053B94AB9002908BF00281CBF4FF0FF31EC
:1003A0004FF0FF3000F074B9ADF1080C6DE904CEE8
:1003B00000F006F8DDF804E0DDE9022304B0704740
:1003C0002DE9F047089D04468E46002B4DD18A4208
:1003D000944669D9B2FA82F252B101FA02F3C2F13B
:1003E000200120FA01F10CFA02FC41EA030E9440CC
:1003F0004FEA1C48210CBEFBF8F61FFA8CF708FBED
:1004000016E341EA034306FB07F199420AD91CEBC4
:10041000030306F1FF3080F01F81994240F21C81F6
:10042000023E63445B1AA4B2B3FBF8F008FB10333E
:1004300044EA034400FB07F7A7420AD91CEB040473
:1004400000F1FF3380F00A81A74240F20781644443
:10045000023840EA0640E41B00261DB1D4400023C8
:10046000C5E900433146BDE8F0878B4209D9002D2C
:1004700000F0EF800026C5E9000130463146BDE8B6
:10048000F087B3FA83F6002E4AD18B4202D3824220
:1004900000F2F980841A61EB030301209E46002DCF
:1004A000E0D0C5E9004EDDE702B9FFDEB2FA82F224
:1004B000002A40F09280A1EB0C014FEA1C471FFA82
:1004C0008CFE0126200CB1FBF7F307FB131140EA69
:1004D00001410EFB03F0884208D91CEB010103F136
:1004E000FF3802D2884200F2CB804346091AA4B2F8
:1004F000B1FBF7F007FB101144EA01440EFB00FECC
:10050000A64508D91CEB040400F1FF3102D2A64530
:1005100000F2BB800846A4EB0E0440EA03409CE7CF
:10052000C6F12007B34022FA07FC4CEA030C20FA7C
:1005300007F401FA06F31C43F9404FEA1C4900FA9C
:1005400006F3B1FBF9F8200C1FFA8CFE09FB181119
:1005500040EA014108FB0EF0884202FA06F20BD98C
:100560001CEB010108F1FF3A80F08880884240F2DC
:100570008580A8F102086144091AA4B2B1FBF9F020
:1005800009FB101144EA014100FB0EFE8E4508D91B
:100590001CEB010100F1FF346CD28E456AD90238A0
:1005A000614440EA0840A0FB0294A1EB0E01A14285
:1005B000C846A64656D353D05DB1B3EB080261EBF3
:1005C0000E0101FA07F722FA06F3F1401F43C5E9CD
:1005D000007100263146BDE8F087C2F12003D84003
:1005E0000CFA02FC21FA03F3914001434FEA1C4745
:1005F0001FFA8CFEB3FBF7F007FB10360B0C43EA37
:10060000064300FB0EF69E4204FA02F408D91CEBE6
:10061000030300F1FF382FD29E422DD902386344E4
:100620009B1B89B2B3FBF7F607FB163341EA034184
:1006300006FB0EF38B4208D91CEB010106F1FF38D3
:1006400016D28B4214D9023E6144C91A46EA0046CA
:1006500038E72E46284605E70646E3E61846F8E65C
:100660004B45A9D2B9EB020864EB0C0E0138A3E7A5
:100670004646EAE7204694E74046D1E7D0467BE786
:10068000023B614432E7304609E76444023842E7FE
:10069000704700BF064B074A1A6000225A609A60F2
:1006A0004FF48041D9601A6108225A61704700BF37
:1006B000680400200070005210B584B0002400943B
:1006C00001940294039401F05BF901238DF800304A
:1006D0008DF8014001941F228DF8082087228DF8A3
:1006E00009208DF80A408DF80B408DF80C308DF8FC
:1006F0000D308DF80E408DF80F40684601F05EF920
:10070000042001F04BF904B010BD00002DE9F047C2
:1007100090B000240B940C940D940E940F947B4B8A
:10072000D3F8E02042F48072C3F8E020D3F8E02050
:1007300002F480720192019AD3F8E02042F0400264
:10074000C3F8E020D3F8E02002F040020292029ABF
:10075000D3F8E02042F00802C3F8E020D3F8E0200C
:1007600002F008020392039AD3F8E02042F0040258
:10077000C3F8E020D3F8E02002F004020492049AC7
:10078000D3F8E02042F01002C3F8E020D3F8E020D4
:1007900002F010020592059AD3F8E02042F002021E
:1007A000C3F8E020D3F8E02002F002020692069A95
:1007B000D3F8E02042F08002C3F8E020D3F8E02034
:1007C00002F080020792079AD3F8E02042F4007208
:1007D000C3F8E020D3F8E02002F400720892089AEF
:1007E000D3F8E02042F00102C3F8E020D3F8E02083
:1007F00002F001020992099AD3F8E02042F02002A7
:10080000C3F8E020D3F8E03003F020030A930A9BFA
:100810003F4E224647F21A01304603F0D9FCDFF87A
:10082000FCA022460421504603F0D2FCDFF8F08001
:10083000224641F20101404603F0CAFC354F2246F0
:100840006021384603F0C4FCDFF8D89022460C2122
:10085000484603F0BDFC47F21A030B9301250C95A3
:100860000D940E940BA9304603F0A2FB04230B93C6
:100870000C950D940E940BA9504603F099FB4FF480
:1008800080430B930C940D940BA9234803F090FB29
:1008900041F201030B930C950D940E940BA9404665
:1008A00003F086FB4FF480730B934FF48818CDF858
:1008B00030800D940BA9384603F07AFB60230B932C
:1008C0000C950D940E940BA9384603F071FB0C2384
:1008D0000B930C950D940E940BA9484603F068FBFE
:1008E0000B95CDF830800D940BA9304603F060FBDA
:1008F00021464FF0806004F075FE21464FF0006005
:1009000004F070FE10B0BDE8F08700BF004402584C
:10091000000402580018025800240258001002581F
:10092000000C02580008025800B583B00B4BD3F8F6
:10093000D82042F00102C3F8D820D3F8D83003F011
:1009400001030193019B002205210B2000F0D4FF3D
:100950000B2001F007F803B05DF804FB00440258D7
:1009600008B5012006F0D6FDFBE7000008B50268D7
:10097000034B9A4200D008BD04F008FEFBE700BF1D
:100980000000014072B6FEE708B51548154B03603C
:100990004FF4E133436000238360C36003610C22A2
:1009A00042618361C36103624362836208F0CBF8F2
:1009B00070B900210A4808F041F958B900210848E7
:1009C00008F061F940B9064808F019F930B908BDD6
:1009D000FFF7D8FFFFF7D6FFFFF7D4FFFFF7D2FFEF
:1009E000E40400200044004008B51148114B0360A6
:1009F000114B4360002383600122C26003614361A5
:100A00008361C361036204F0F7FD50B90021084817
:100A100004F056FE38B90021054804F07FFE20B9E5
:100A200008BDFFF7AFFFFFF7ADFFFFF7ABFF00BF5C
:100A3000F0030020001C0058BB7C700008B5114872
:100A4000114B0360114B4360002383600122C2609D
:100A5000036143618361C361036204F0CDFD50B95A
:100A60000021084804F02CFE38B90021054804F0A4
:100A700055FE20B908BDFFF785FFFFF783FFFFF79D
:100A800081FF00BF9C03002000580040BB7C700029
:100A900008B50A480A4B0360002343608360C360C3
:100AA000036143618361036243628362C3620363E0
:100AB00008F076FC00B908BDFFF764FFD4020020FF
:100AC0000000024808B51548154B03604FF4E133A8
:100AD000436000238360C36003610C224261836131
:100AE000C36103624362836208F02DF870B900218C
:100AF0000A4808F0A3F858B90021084808F0C3F8DC
:100B000040B9064808F07BF830B908BDFFF73AFF56
:100B1000FFF738FFFFF736FFFFF734FF78050020B7
:100B20000048004000B587B000230193029303936F
:100B30000493059300931F481F4A026043607F227D
:100B40008260FF22C26003618361C361436108F078
:100B5000DBFC30BB00238DF804308DF805308DF8B8
:100B6000063004930593012201A9124808F02AFDDA
:100B7000C8B901228DF800208DF801208DF80220DF
:100B800000238DF8033069460A4808F07FFD60B9FC
:100B900004220021074808F0CDFD40B907B05DF8F8
:100BA00004FBFFF7EFFEFFF7EDFEFFF7EBFEFFF7AD
:100BB000E9FE00BF440400200040005800B59DB08D
:100BC0004C22002109A80BF0B3FC2022002101A82F
:100BD0000BF0AEFC022004F081FC00230093264BB6
:100BE000DA6A22F00102DA62DB6A03F001030093A1
:100BF000224A936923F4404343F480439361936909
:100C000003F440430093009B1C4B9B6913F4005F6B
:100C1000FAD00A21099101230C9340220D920E93E0
:100C2000022312930022139204201490159116931C
:100C3000179318930C2119911A931B9209A800F08D
:100C4000E9FEA0B93F230193002302930393049389
:100C50000593402306934FF4806207920893012185
:100C600001A801F02BFB20B91DB05DF804FBFFF7D4
:100C700089FEFFF787FE00BF0004005800480258B5
:100C800070B5A6B0FFF718FD04F052FCFFF796FF11
:100C9000FFF73CFDFFF748FEFFF776FEFFF7A4FEE7
:100CA000FFF7CCFEFFF7F4FEFFF7F4FC08F0A6F91F
:100CB000FFF708FFFFF736FFAA4800F0EFFDAA484C
:100CC00000F0ECFDA94800F0E9FDA94800F0E6FDC0
:100CD000A84800F0E3FDA84800F0E0FDA74800F0B8
:100CE000DDFDA74800F0DAFD4FF47A7004F060FCF7
:100CF000A44800F0D3FDA44800F0D0FD08F062F84D
:100D000004460146A14800F0C9FD002C43D1A0488B
:100D100000F0C4FD03A808F045F803999D4800F0D1
:100D2000BDFD04999C4800F0B9FD099B0A9A02FB9D
:100D300003F3190D994800F0B1FD642004F038FC6C
:100D4000974800F0ABFD974800F0A8FD002009F09F
:100D500011FF04460146944800F0A0FD002C39D153
:100D6000924800F09BFD924800F098FD01229149C5
:100D700091480AF0EFFE05460146904800F08EFDCE
:100D80000D2D6CD8DFE805F03E556B596B6B6B6B26
:100D90006B6B6B676B5D8A4800F080FD894800F0E3
:100DA0007DFD894800F07AFD884800F077FD7148A4
:100DB00000F074FD864800F071FD864800F06EFD7D
:100DC000854800F06BFD854800F068FD844800F020
:100DD00065FDB2E7834800F061FD14F0010F09D111
:100DE00014F0020F0AD114F0040FBCD07E4800F0BA
:100DF00055FDB8E77D4800F051FDF1E77C4800F073
:100E00004DFDF0E77B4800F049FD6CB37A4800F0F7
:100E100045FD7A4800F042FD00F094FC01460028B0
:100E200042D1774800F03AFD764800F037FD0023C4
:100E30004CE1754800F032FDE7E7744800F02EFD04
:100E4000E3E7734800F02AFD724800F027FD72487E
:100E500000F024FDD9E7714800F020FDD5E72946D0
:100E60006F4800F01BFDD0E76E4800F017FD01232E
:100E700000226D49104609F093FE044601466B4876
:100E800000F00CFD64B95E4800F008FD6649CB78BF
:100E900000938B784A780978654800F0FFFCB5E745
:100EA000644800F0FBFCB1E7634800F0F7FC6348DE
:100EB00000F0F4FC01223F493F480AF04BFE044693
:100EC00001465F4800F0EAFC5E4800F0E7FC5E483F
:100ED00000F0E4FC5D4800F0E1FC5D4800F0DEFC61
:100EE0005C4800F0DBFC5C4800F0D8FC5B4800F09C
:100EF000D5FC5B4800F0D2FC5A4800F0CFFC5A48C1
:100F000000F0CCFC594800F0C9FC594800F0C6FC80
:100F1000584800F0C3FC584800F0C0FC574800F0A7
:100F2000BDFC574800F0BAFC564800F0B7FC5648E4
:100F300000F0B4FC002009F01DFE0146534800F00B
:100F4000ADFC534800F0AAFC524800F0A7FC524800
:100F500000F0A4FC514800F0A1FC0D2C00F0A08092
:100F6000FEE700BFDCCE0008F8CE000818CF00086E
:100F70003CCF00087CD2000868CF000884CF00086E
:100F80008CCF0008ACCF0008B4CF0008CCCF00084D
:100F9000D8CF0008E0CF0008F4CF00080CD000083C
:100FA0002CD1000850D100086CD1000890D1000865
:100FB00030D200084CD20008A000002050D2000817
:100FC00024D0000830D0000844D0000870D00008B9
:100FD00094D00008A4D00008C8D00008ECD00008C5
:100FE0000CD10008A8D1000808D20008C0D1000820
:100FF000E8D100086CD2000800D4000820D4000812
:10100000C8D3000830D4000880D20008B0D200084D
:10101000E0D2000804D3000834D300085CD30008F1
:1010200080D3000898D3000820060020B4D300081D
:10103000D0D30008F8D3000844D4000850D40008E6
:1010400070D4000888D400089CD40008B4D40008E8
:10105000DCD4000800D5000828D500083CD50008DD
:1010600050D5000868D500087CD5000890D5000848
:10107000ACD50008C8D50008E4D50008FCD50008A8
:101080002CD6000844D6000858D6000878D60008A8
:1010900094D60008A4D60008CCD60008ECD60008E8
:1010A000354800F0FBFB354800F0F8FB344800F011
:1010B000F5FB344800F0F2FB334800F0EFFB4FE75C
:1010C00003F198026A4402F8643C0133632BF7DDB4
:1010D00064210DA800F03AFB98B92C492C4800F087
:1010E000DDFB2C4800F0DAFB64230C930CA90DA85F
:1010F00000F068FBC8B90C99274800F0CFFB00212D
:1011000002E02649EAE7013163290ADC01F198038C
:101110006B4413F8643C8B42F5D0214800F0BEFBD1
:1011200006E0204800F0BAFB02E01F4800F0B6FBE2
:1011300000F076FB054600F091FB04461B4800F0EA
:10114000ADFB29461A4800F0A9FB2146194800F0DA
:10115000A5FB194800F0A2FB06F034F9174A00215C
:10116000174806F079F9174B186006F04FF94FF45D
:101170007A7004F01DFAFAE718D700083CD7000887
:1011800068D7000874D7000894D70008D8CE0008A4
:10119000BCD70008C4D70008D4D70008D0CE0008B8
:1011A000E8D7000800D80008F8D3000818D80008CD
:1011B00024D8000838D800084CD8000870D8000897
:1011C000610900089C000020FEE7FEE7FEE7FEE75D
:1011D000FEE7704708B5024808F00FFB08BD00BFE6
:1011E0004404002008B5024803F0DCFD08BD00BF40
:1011F0002403002008B5024807F05EFF08BD00BFC9
:10120000D453002008B5024806F032FE08BD00BFE6
:10121000E404002000B583B00A4BD3F8F42042F078
:101220000202C3F8F420D3F8F43003F00203019370
:10123000019B00220F216FF0010000F05DFB03B065
:101240005DF804FB004402582DE9F0418CB0002306
:101250000793089309930A930B930268504B9A42A1
:1012600002D00CB0BDE8F08104464E4BD3F8DC2030
:1012700042F00102C3F8DC20D3F8DC2002F00102C6
:101280000192019AD3F8E02042F48072C3F8E02082
:10129000D3F8E02002F480720292029AD3F8E020A0
:1012A00042F04002C3F8E020D3F8E02002F0400210
:1012B0000392039AD3F8E02042F01002C3F8E02032
:1012C000D3F8E02002F010020492049AD3F8E02050
:1012D00042F08002C3F8E020D3F8E02002F0800260
:1012E0000592059AD3F8E02042F00102C3F8E0200D
:1012F000D3F8E03003F001030693069BF023079335
:10130000022608960D270B9707A9274802F050FEE2
:101310004FF48068CDF81C800896002509950A9541
:101320000B9707A9214802F043FE079608960995F6
:101330000A950B9707A91E4802F03AFE4FF4824324
:101340000793089609950A950B9707A9194802F083
:101350002FFE4FF4C8630793089609950A950B97DB
:1013600007A9154802F024FE1448154B03604B23CF
:1013700043608560C560C0F810804FF480534361BE
:101380004FF480438361C5610562456203F060F8F4
:1013900018B90A4BA3649C6363E7FFF7F3FAF8E715
:1013A0000000024800440258002002580018025869
:1013B00000100258001C02580000025824030020AC
:1013C0001000024010B5BAB00446002135913691A4
:1013D000379138913991C02204A80BF0A9F82368FD
:1013E000354A934204D0354A934233D03AB010BDC7
:1013F00008220023CDE9042304A801F025FA30BB1C
:101400002F4CD4F8E03043F02003C4F8E030D4F897
:10141000E03003F020030093009B03233593122355
:1014200036930023379338930423399335A92548FD
:1014300002F0BEFDD4F8E83043F48003C4F8E8308D
:10144000D4F8E83003F480030193019BCEE7FFF763
:1014500099FAD5E710220023CDE9042304A801F06E
:10146000F3F930BB164CD4F8E03043F00203C4F873
:10147000E030D4F8E03003F002030293029BC02373
:1014800035931223369300233793389306233993E9
:1014900035A90D4802F08CFDD4F8F43043F08003F8
:1014A000C4F8F430D4F8F43003F080030393039BC2
:1014B0009CE7FFF767FAD5E700580040001C00588A
:1014C00000440258001402580004025810B5B0B08D
:1014D0000446C022002168460BF02AF82268114B0E
:1014E0009A4201D030B010BD4FF480020023CDE904
:1014F00000234FF400732D93684601F0A5F968B9F5
:10150000094A136F43F400431367002205210320A7
:1015100000F0F2F9032000F025FAE3E7FFF732FAD2
:10152000EEE700BF0040005800440258F0B5BBB0E1
:101530000446002135913691379138913991C02276
:1015400004A80AF0F5FF2268284B9A4201D03BB06C
:10155000F0BD4FF480320023CDE9042304A801F04C
:1015600073F900283ED1224BD3F8D42042F48032C4
:10157000C3F8D420D3F8D42002F480320192019A27
:10158000D3F8E02042F00402C3F8E020D3F8E020D2
:1015900002F004020292029AD3F8E02042F008021C
:1015A000C3F8E020D3F8E03003F008030393039B73
:1015B0004FF4F853359302273697002637960325C4
:1015C00038950C24399435A90A4802F0F1FC04231B
:1015D0003593369737963895399435A9064802F0F1
:1015E000E7FCB4E7FFF7CEF9BDE700BF007000529B
:1015F0000044025800080258000C025810B5BAB056
:101600000446002135913691379138913991C022A5
:1016100004A80AF08DFF23683A4A934204D03A4A5C
:1016200093423BD03AB010BD02220023CDE90423FF
:1016300004A801F009F970BB344BD3F8E82042F458
:101640000032C3F8E820D3F8E82002F40032009218
:10165000009AD3F8E02042F00802C3F8E020D3F863
:10166000E03003F008030193019B602335930223CC
:1016700036930024379438940723399335A92448A6
:1016800002F096FC22460521262000F035F926209E
:1016900000F068F9C6E7FFF775F9CDE702220023ED
:1016A000CDE9042304A801F0CFF838BB174BD3F8D9
:1016B000E82042F48022C3F8E820D3F8E82002F4BE
:1016C00080220292029AD3F8E02042F00202C3F88C
:1016D000E020D3F8E03003F002030393039B4FF4C0
:1016E00040633593022336930023379338930723BF
:1016F000399335A9074802F05BFC93E7FFF742F9FD
:10170000D4E700BF004400400048004000440258B5
:10171000000C02580004025808B501220649074887
:101720000AF018FA20B1064B00221A70052008BDF5
:10173000034B01221A70FAE74CD20008200800205F
:101740007C0A002008B5FFF7E7FF08BD70B5ADF5CE
:101750000E7D194B1B782BB304460D4603F022FF78
:101760000346164E164A282130460AF0E9FE0A22A0
:10177000314602A80AF032FAC8B901AB2A4621461E
:1017800002A80AF032FC044640B102A80AF090FD1B
:101790007CB9019BAB4206D0032404E002A80AF006
:1017A0002FFDF2E7022420460DF50E7D70BD0324C7
:1017B000F9E70324F7E700BF7C0A0020540A002061
:1017C00094D8000830B5ADF50F7D134B1B78D3B11D
:1017D00004460D46114B1B78BBB101220F4902A8EC
:1017E0000AF0FCF9B0B901AB2A68214602A80AF058
:1017F00010FB044602A80AF05BFD0CB1042405E0CE
:10180000019B2B6002E0022400E0042420460DF539
:101810000F7D30BD0424F9E77C0A0020540A002023
:101820000C4B1B780BB90020704700B583B001AAA0
:10183000694609480AF059FD18B1002003B05DF867
:1018400004FB019B5889009B03FB00F0C0F355008B
:10185000F4E700BF7C0A00204CD200080D4B1B7837
:101860000BB90020704700B583B001AA69460A4849
:101870000AF03BFD18B1002003B05DF804FB019AAB
:1018800090690238009BC31A508903FB00F0C0F333
:101890005500F1E77C0A00204CD200080FB400B5D7
:1018A000C3B044AB53F8042B01934FF4807102A8EA
:1018B0000AF0A6FE02A8FEF713FD642382B202A975
:1018C000034807F073F843B05DF804EB04B07047C9
:1018D000780500200649CB6823F4E0631B041B0C49
:1018E000000200F4E0600343024A1A43CA607047F2
:1018F00000ED00E00000FA0500B5174BDB68C3F30C
:101900000223C3F1070CBCF1040F28BF4FF0040CF5
:1019100003F1040EBEF1060F14D9033B4FF0FF3E56
:101920000EFA0CFC21EA0C0199400EFA03F322EAAC
:1019300003031943002807DB0901C9B2074B1954F7
:101940005DF804FB0023E9E700F00F000901C9B2CC
:10195000034B1954F4E700BF00ED00E000E400E0A1
:1019600014ED00E0002807DB00F01F02400901230E
:101970009340024A42F82030704700BF00E100E087
:10198000BFF35F8F044B5A6A22F480325A620022FE
:10199000C3F89420704700BF00ED00E040F0010064
:1019A000054BC3F894005A6A42F480325A62BFF37E
:1019B0004F8FBFF36F8F704700ED00E04378144AFC
:1019C000C2F89830D2F8A03023F00103C2F8A0305A
:1019D0004368C2F89C30017BC37A1B0643EA01735B
:1019E000817A43EAC143417B43EA8143817B43EAF5
:1019F0004143C17B43EA0143417A43EA0123017A2F
:101A000043EA410301780B43C2F8A030704700BF9E
:101A100000ED00E0002800F0398338B50446036883
:101A200013F0010F25D0944A136903F03803926A2A
:101A3000102B15D0182B0FD06368B3F5803F3FD023
:101A4000002B53D18C4B1A6822F480321A601A682A
:101A500022F480221A6038E002F00302022AEBD15D
:101A6000854B1B6813F4003F03D06368002B00F024
:101A70000F83236813F0020F00F0A1807E4A1369E0
:101A8000926A13F038035AD0182B55D0E368002B14
:101A900000F0DE8078490A6822F0190213430B60D7
:101AA00003F080FD0546744B1B6813F0040F40F0F3
:101AB000AD8003F077FD401B0228F4D90320EEE24D
:101AC0006D4A136843F48033136063682BB303F0EB
:101AD00069FD0546684B1B6813F4003FC9D103F04C
:101AE00061FD401B6428F5D90320D8E2B3F5A02F8F
:101AF00009D0614B1A6822F480321A601A6822F405
:101B000080221A60E1E75C4B1A6842F480221A6076
:101B10001A6842F480321A60D7E703F043FD0546A5
:101B2000554B1B6813F4003FA3D003F03BFD401B53
:101B30006428F5D90320B2E212F0030FA6D14E4B70
:101B40001B6813F0040F03D0E368002B00F0A2829F
:101B5000494A136823F01903E1680B43136003F04B
:101B600021FD0546444B1B6813F0040F06D103F01A
:101B700019FD401B0228F5D9032090E203F02CFD4B
:101B800041F20303984212D82269402A07D03A4909
:101B90004B6823F47C3343EA02334B600FE0364A50
:101BA000536823F47C3343F40033536007E0324A34
:101BB000536823F0FE43216943EA016353602368BD
:101BC00013F0100F00F088802B4A136903F03803DC
:101BD000926A082B56D0182B50D0E369002B00F0E6
:101BE000B880254A136843F08003136003F0DAFCE1
:101BF0000546214B1B6813F4807F40F0888003F07A
:101C0000D1FC401B0228F4D9032048E203F0E4FC95
:101C100041F20303984212D82269402A07D016499C
:101C20004B6823F47C3343EA02334B60C7E7124A24
:101C3000536823F47C3343F400335360BFE70E4A08
:101C4000536823F0FE43216943EA01635360B6E71A
:101C5000094A136823F00103136003F0A3FC05464F
:101C6000054B1B6813F0040FA9D003F09BFC401B2D
:101C70000228F5D9032012E20044025802F00302C0
:101C8000012AAAD1A14B1B6813F4807F03D0E3691A
:101C9000802B40F0018203F09FFC41F20303984245
:101CA00012D8226A202A07D098494B6823F0F843BB
:101CB00043EA82634B600FE0944A536823F0F84391
:101CC00043F08043536007E0904AD36823F07C538D
:101CD000216A43EA0163D360236813F0080F60D0E0
:101CE0006369002B49D0894A536F43F0010353675E
:101CF00003F058FC0546854B5B6F13F0020F50D183
:101D000003F050FC401B0228F5D90320C7E103F083
:101D100063FC41F20303984212D8226A202A07D0BA
:101D20007A494B6823F0F84343EA82634B60D3E778
:101D3000764A536823F0F84343F080435360CBE77F
:101D4000724AD36823F07C53216A43EA0163D3606B
:101D5000C2E76E4A136823F08003136003F022FC8D
:101D600005466A4B1B6813F4807FB5D003F01AFC5C
:101D7000401B0228F5D9032091E1644A536F23F0F8
:101D80000103536703F00EFC0546604B5B6F13F0D5
:101D9000020F06D003F006FC401B0228F5D90320F1
:101DA0007DE1236813F0200F29D0A3699BB1574A26
:101DB000136843F48053136003F0F4FB0546534B60
:101DC0001B6813F4005F1AD103F0ECFB401B0228E0
:101DD000F5D9032063E14D4A136823F4805313605F
:101DE00003F0E0FB0546494B1B6813F4005F06D087
:101DF00003F0D8FB401B0228F5D903204FE12368EC
:101E000013F0040F21D1636A002B00F047813F4A91
:101E1000126902F03802182A00F0EE80022B79D005
:101E20003A4A136823F08073136003F0BBFB044647
:101E3000364B1B6813F0007F00F0DC8003F0B2FB30
:101E4000001B0228F4D9032029E1314A136843F426
:101E50008073136003F0A6FB05462D4B1B6813F43B
:101E6000807F06D103F09EFB401B6428F5D9032038
:101E700015E1A368012B0AD00BBB244B1A6F22F08B
:101E800001021A671A6F22F004021A6704E01F4A5F
:101E9000136F43F001031367A36833B303F082FBAE
:101EA00005461A4B1B6F13F0020FACD103F07AFBFF
:101EB000401B41F288339842F3D90320EFE0052B11
:101EC00009D0124B1A6F22F001021A671A6F22F022
:101ED00004021A67E0E70D4B1A6F42F004021A671A
:101EE0001A6F42F001021A67D6E703F05BFB054662
:101EF000064B1B6F13F0020F85D003F053FB401B02
:101F000041F288339842F3D90320C8E000440258D4
:101F100000480258694A136823F08073136003F085
:101F200041FB0546654B1B6813F0007F06D003F0AC
:101F300039FB401B0228F5D90320B0E05F4B996ABA
:101F40005F4A0A40A16AE06A41EA00110A439A62C4
:101F5000226B013AC2F30802616B0139490289B26E
:101F60000A43A16B0139090401F4FE010A43E16B44
:101F70000139090601F0FE410A431A63DA6A22F0C8
:101F80000102DA62596B4F4A0A40A16C42EAC1026F
:101F90005A63DA6A22F00C02216C0A43DA62DA6AC6
:101FA00022F00202616C0A43DA62DA6A42F4803299
:101FB000DA62DA6A42F40032DA62DA6A42F48022E1
:101FC000DA62DA6A42F00102DA621A6842F080727A
:101FD0001A6003F0E7FA0446384B1B6813F0007FE1
:101FE00006D103F0DFFA001B0228F5D9032056E0E2
:101FF000002054E0002052E0304A916A106B012B1F
:102000004ED001F00303A26A93424BD1C1F30511F4
:10201000E36A994248D1C0F30802236B013B9A421C
:1020200044D1C0F34622636B013B9A4240D1C0F3D6
:102030000642A36B013B9A423CD1C0F30660E36BBE
:10204000013B984238D11D4B5B6BC3F3CC03A26CB0
:102050009A4201D1002022E0184AD36A23F00103FA
:10206000D36203F09FFA054603F09CFAA842FBD026
:10207000124A516B134B0B40A16C43EAC1035363EB
:10208000D36A43F00103D362002008E001207047C7
:10209000012004E0012002E0012000E0002038BD22
:1020A0000120FCE70120FAE70120F8E70120F6E72C
:1020B0000120F4E70120F2E70120F0E70044025894
:1020C0000CFCFFFF0700FFFF744B1B6903F0380394
:1020D000102B00F0DE80182B10D00BB17048704729
:1020E0006E4B1B6813F0200F00F0D5806B4B186807
:1020F000C0F3C1006B4B23FA00F0704710B4674A7D
:10210000916A01F00301946AC4F30510D36A03F0E5
:10211000010C536BC3F3CC030CFB03F307EE903AB3
:10212000F8EE677A14F47C7F00F09380012965D083
:10213000022900F09180E1B107EE100AF8EE476A3B
:102140009FED596A86EE267A544B1B6BC3F3080346
:1021500006EE903AF8EE666A9FED546A67EE867A6C
:1021600076EEA77AF7EE006A77EEA67A27EE277A60
:1021700060E0136813F0200F23D011461268C2F3F9
:10218000C102484BD34007EE103AF8EE476A07EE1B
:10219000100AB8EE476A86EE867A0B6BC3F3080323
:1021A00006EE903AF8EE666A9FED406A67EE867A30
:1021B00076EEA77AF7EE006A77EEA67A27EE277A10
:1021C00038E007EE100AF8EE476A9FED396A86EEAE
:1021D000267A324B1B6BC3F3080306EE903AF8EEF7
:1021E000666A9FED326A67EE867A76EEA77AF7EE38
:1021F000006A77EEA67A27EE277A1BE007EE100A30
:10220000F8EE476A9FED286A86EE267A234B1B6B11
:10221000C3F3080306EE903AF8EE666A9FED236A70
:1022200067EE867A76EEA77AF7EE006A77EEA67A00
:1022300027EE277A194B1B6BC3F34623013307EEB6
:10224000903AF8EE677AC7EE276AFCEEE67A17EE68
:10225000900A5DF8044B704707EE100AF8EE476AE3
:102260009FED146A86EE267A0C4B1B6BC3F30803B2
:1022700006EE903AF8EE666A9FED0C6A67EE867A93
:1022800076EEA77AF7EE006A77EEA67A27EE277A3F
:10229000D0E7094870470348704700BF0044025820
:1022A00000093D000090D0030024744A000000396A
:1022B0000024744C20BCBE4B40787D01002800F007
:1022C000328170B50D4604469B4B1B6803F00F032B
:1022D0008B420BD2984A136823F00F030B43136011
:1022E000136803F00F038B4240F01F81236813F043
:1022F000040F0CD02269914B9B6903F070039A4242
:1023000005D98E498B6923F070031A438A612368CB
:1023100013F0080F0CD06269884BDB6903F070037F
:102320009A4205D98549CB6923F070031A43CA61E3
:10233000236813F0100F0CD0A269804BDB6903F403
:10234000E0639A4205D97D49CB6923F4E0631A43DF
:10235000CA61236813F0200F0CD0E269774B1B6A27
:1023600003F070039A4205D974490B6A23F0700395
:102370001A430A62236813F0020F0CD0E2686F4B15
:102380009B6903F00F039A4205D96C498B6923F0CE
:102390000F031A438A61236813F0010F41D0674A83
:1023A000936923F47063A1680B4393616368022B04
:1023B0000AD0032B27D0012B2CD0604A126812F0D0
:1023C000040F06D10120ADE0126812F4003F00F0C6
:1023D000AE805A490A6922F0070213430B6103F0E9
:1023E000E1F80646554B1B6903F038036268B3EB0E
:1023F000C20F16D003F0D6F8801B41F28833984202
:10240000F0D903208EE04D4A126812F0007FE0D12F
:10241000012087E0494A126812F4807FD9D1012057
:1024200080E0236813F0020F0CD0E268434B9B69F5
:1024300003F00F039A4205D240498B6923F00F0342
:102440001A438A613C4B1B6803F00F03AB420AD965
:10245000394A136823F00F032B431360136803F00A
:102460000F03AB4265D1236813F0040F0CD022692F
:10247000324B9B6903F070039A4205D22F498B6956
:1024800023F070031A438A61236813F0080F0CD0FD
:1024900062692A4BDB6903F070039A4205D227492F
:1024A000CB6923F070031A43CA61236813F0100F3D
:1024B0000CD0A269214BDB6903F4E0639A4205D298
:1024C0001E49CB6923F4E0631A43CA61236813F001
:1024D000200F0CD0E269194B1B6A03F070039A427B
:1024E00005D216490B6A23F070031A430A62FFF7FC
:1024F000EBFD12498B69C3F30323114AD35C03F04C
:102500001F03D8408B6903F00F03D35C03F01F0354
:1025100020FA03F30B4A13600B4B18600B4B18683F
:1025200006F0D6FB70BD012070470120FAE70120BC
:10253000F8E70120F6E700BF0020005200440258EF
:10254000ACD800080C000020080000200400002087
:1025500008B5FFF7B9FD0B4A9369C3F303230A4992
:10256000CB5C03F01F0320FA03F3926902F00F0221
:10257000885C00F01F0023FA00F0044A1060044A4F
:10258000136008BD00440258ACD800080C000020BD
:102590000800002008B5FFF7DBFF054BDB69C3F33C
:1025A0000213044AD35C03F01F03D84008BD00BFE8
:1025B00000440258ACD8000808B5FFF7C9FF054B26
:1025C000DB69C3F30223044AD35C03F01F03D84042
:1025D00008BD00BF00440258ACD800083F23036088
:1025E000114B1A6902F0070242609A6902F47062A4
:1025F00082609A6902F00F02C2609A6902F070026A
:102600000261DA6902F070024261DA6902F4E062A2
:1026100082611B6A03F07003C361044B1B6803F003
:102620000F030B60704700BF0044025800200052A7
:10263000404B9B6A03F00303032B79D070B505462A
:102640000E463C4A136823F08063136002F0AAFF31
:102650000446384B1B6813F0006F06D002F0A2FF4F
:10266000031B022BF5D9032070BD324B9A6A22F46A
:102670007C32296842EA01329A626A68013AC2F3FE
:102680000802A9680139490289B20A43E968013997
:10269000090401F4FE010A4329690139090601F020
:1026A000FE410A439A63DA6A22F0C00269690A436A
:1026B000DA62DA6A22F02002A9690A43DA62DA6A87
:1026C00022F01002DA62D96B1B4A0A40E96942EA39
:1026D000C102DA63DA6A42F01002DA62C6B91A4657
:1026E000DB6A43F40023D362124A136843F0806329
:1026F000136002F057FF04460E4B1B6813F0006F87
:1027000014D102F04FFF001B0228F5D90320ABE7DC
:10271000012E05D0074AD36A43F40013D362E3E7DE
:10272000044AD36A43F48013D362DDE700209BE7B9
:1027300001207047004402580700FFFF404B9B6A8E
:1027400003F00303032B79D070B505460E463C4ACF
:10275000136823F08053136002F024FF0446384BC3
:102760001B6813F0005F06D002F01CFF031B022B56
:10277000F5D9032070BD324B9A6A22F07C72296829
:1027800042EA01529A626A68013AC2F30802A968F1
:102790000139490289B20A43E9680139090401F49F
:1027A000FE010A4329690139090601F0FE410A4385
:1027B0001A64DA6A22F4406269690A43DA62DA6A00
:1027C00022F40072A9690A43DA62DA6A22F480729A
:1027D000DA62596C1B4A0A40E96942EAC1025A644A
:1027E000DA6A42F48072DA62C6B91A46DB6A43F4E6
:1027F0008003D362124A136843F08053136002F0DF
:10280000D1FE04460E4B1B6813F0005F14D102F09A
:10281000C9FE001B0228F5D90320ABE7012E05D025
:10282000074AD36A43F08073D362E3E7044AD36A6A
:1028300043F40003D362DDE700209BE701207047EB
:10284000004402580700FFFFF8B50446036813F080
:10285000006F30D0836EB3F5001F26D00ED8EBB1D9
:10286000B3F5801F07D102210830FFF7E1FE0546CE
:1028700045B12E4621E0012635461EE0B3F5401F46
:1028800009D10025984A136D23F44013A16E0B4320
:102890001365002611E0012635460EE0924AD36A00
:1028A00043F40033D3620025ECE702212830FFF720
:1028B00045FF0546DCE700263546236813F4807F94
:1028C00014D0A36D042B32D8DFE803F003232A08C9
:1028D0000800854AD36A43F40033D36255BB824A69
:1028E000136D23F00703A16D0B431365236813F4E5
:1028F000007F31D0E36D802B4CD020D8002B43D00B
:10290000402B19D1002104F10800FFF791FE054684
:102910001AE0002104F10800FFF78AFE0546DDE712
:10292000002104F12800FFF709FF0546D6E701263C
:102930003546DBE72E46D9E7012635460CE0C02BAD
:1029400002D0B3F5807F1CD15DBB674A136D23F4C1
:10295000E073E16D0B431365236813F4806F46D079
:10296000D4F8A830B3F5800F39D01FD88BB3B3F5A6
:10297000001F18D1002104F10800FFF759FE054699
:102980001AE001263546E7E7574AD36A43F4003395
:10299000D362D9E7002104F12800FFF7CFFE0546F6
:1029A000D2E72E46D8E70126354620E0B3F5C00F22
:1029B00002D0B3F5000F09D1C5B94B4A936D23F48A
:1029C0006003D4F8A8100B43936510E00126354648
:1029D0000DE0454AD36A43F40033D362ECE70021AB
:1029E00004F12800FFF7AAFE0546E5E72E46236816
:1029F00013F4006F24D0D4F8AC30B3F1007F42D090
:102A00000ED8002B39D0B3F1807F06D1002104F11C
:102A10000800FFF70DFE054608E0012635460FE0E9
:102A2000B3F1407F02D0B3F1806F23D1002D31D1BB
:102A30002D4A936D23F0E063D4F8AC100B439365FB
:102A4000236813F0007F2ED0E36C202B40D026D8D3
:102A500033B1102B20D1244AD36A43F40033D3621C
:102A6000002D3CD1204AD36C23F03003E16C0B43A2
:102A7000D36418E001263546E2E71B4AD36A43F4E3
:102A80000033D362D2E7002104F12800FFF756FE9D
:102A90000546CBE72E46D3E70126354603E0302B2B
:102AA000DED001263546236813F4805F2DD0236ED7
:102AB000B3F5005F4FD019D8002B46D0B3F5805F37
:102AC0000FD1002104F10800FFF7B2FD054613E025
:102AD000022104F10800FFF7ABFD0546C0E72E46D2
:102AE000E1E70126354610E000440258B3F5405FA7
:102AF00002D0B3F5804F25D1002D33D1774A136D25
:102B000023F4E043216E0B431365236813F4005F45
:102B100038D0636EB3F5003F53D028D843B1B3F536
:102B2000803F21D1012104F10800FFF781FD054616
:102B3000002D4DD1694A136D23F4E023616E0B43E0
:102B400013651FE001263546DFE7644AD36A43F484
:102B50000033D362D0E7002104F12800FFF7EEFD37
:102B60000546C9E72E46D0E7012635460AE0B3F50B
:102B7000802FDDD0B3F5A02FDAD0B3F5403FD7D00A
:102B800001263546236813F4804F31D0D4F8B03095
:102B9000B3F1005F45D020D843B1B3F1805F19D1C4
:102BA000012104F10800FFF743FD0546002D3FD148
:102BB0004A4A936D23F0E043D4F8B0100B43936579
:102BC00016E0012104F12800FFF7B8FD0546AFE744
:102BD0002E46D7E7012635460AE0B3F1804FE5D00F
:102BE000B3F1A04FE2D0B3F1405FDFD0012635460C
:102BF000236813F4004F09D0236FB3F1805F19D01D
:102C0000B3F1005F24D0D3B101263546236813F019
:102C1000807F33D0A36C032B5BD8DFE803F027223F
:102C20005327012104F12800FFF788FD0546BDE781
:102C30002E46DDE7294AD36A43F40033D36275B9DF
:102C4000264A136D23F04053216F0B431365DDE7D4
:102C5000012104F10800FFF7EBFC0546EFE72E46E3
:102C6000D4E71E4AD36A43F40033D362A5BB1B4AA0
:102C7000D36C23F00303A16C0B43D364236813F4D8
:102C8000800F2DD1236813F0010F00F0A580E36FB2
:102C9000282B00F29F80DFE803F08D9D9D9D9D9D78
:102CA0009D9D879D9D9D9D9D9D9D969D9D9D9D9D71
:102CB0009D9D8D9D9D9D9D9D9D9D8D9D9D9D9D9D64
:102CC0009D9D8D00022104F10800FFF7B1FC05462F
:102CD000CCE701263546D1E72E46CFE7004402581F
:102CE000914A136843F48073136002F05BFC07465B
:102CF0008D4B1B6813F4807F05D102F053FCC01B81
:102D00006428F5D90325002D4AD1884B1B6FD4F8D0
:102D1000B420534013F4407F0CD0844B1A6F22F43C
:102D20004072196F41F480311967196F21F48031B5
:102D300019671A67D4F8B430B3F5807F15D08DBB0E
:102D4000D4F8B43003F44072B2F5407F1ED0774A15
:102D5000136923F47C53136174490B6FD4F8B420C6
:102D6000C2F30B0213430B678CE702F01BFC074610
:102D70006E4B1B6F13F0020FE1D102F013FCC01B6E
:102D800041F288339842F3D90325D8E767480269AE
:102D900022F47C52664901EA131313430361DBE713
:102DA0002E466FE72E466DE7012104F10800FFF77C
:102DB0003FFC0546E5B95D4A536D23F03803E16FEA
:102DC0000B43536508E0012104F12800FFF7B6FC2E
:102DD0000546EFE701263546236813F0020F17D0AA
:102DE000A36F052B28D8DFE803F00B05200B0B0B96
:102DF0002E46F1E7012104F10800FFF719FC054612
:102E0000EDB94A4A536D23F00703A16F0B43536595
:102E1000236813F0040F23D0D4F89430052B45D841
:102E2000DFE803F0150F3D151515012104F1280009
:102E3000FFF784FC0546E3E701263546E8E72E4622
:102E4000E6E7012104F10800FFF7F2FB054685BB28
:102E5000364A936D23F00703D4F894100B4393651F
:102E6000236813F0200F34D0D4F89030B3F1005F12
:102E70004ED023D843B1B3F1805F1CD1002104F1BF
:102E80000800FFF7D5FB0546002D48D1274A536DB2
:102E900023F0E043D4F890100B43536519E001216F
:102EA00004F12800FFF74AFC0546D0E70126354625
:102EB000D6E72E46D4E7012635460AE0B3F1804F27
:102EC000E2D0B3F1A04FDFD0B3F1405FDCD00126F8
:102ED0003546236813F0400F37D0D4F89C30B3F553
:102EE000006F53D026D843B1B3F5806F19D10021BC
:102EF00004F10800FFF79CFB0546002D4DD10B4A5D
:102F0000936D23F4E053D4F89C100B4393651CE0BD
:102F1000022104F12800FFF711FC0546B4E72E4614
:102F2000D7E70126354610E0004802580044025811
:102F3000CFFFFF00B3F5805FDFD0B3F5A05FDCD03B
:102F4000B3F5406FD9D001263546236813F0800FC2
:102F500033D0D4F8A030B3F5804F00F0A38021D84F
:102F600043B1B3F5005F1AD1002104F10800FFF767
:102F70005FFB0546002D40F09C80814A936D23F451
:102F80006043D4F8A0100B43936516E0022104F1CE
:102F90002800FFF7D3FB0546AFE72E46D5E701260D
:102FA00035460AE0B3F5004FE4D0B3F5204FE1D049
:102FB000B3F5C04FDED001263546236813F0080F65
:102FC0000CD0D4F88430B3F5805F74D06C4A536D64
:102FD00023F44053D4F884100B435365236813F053
:102FE000100F0CD0D4F89830B3F5807F6CD0644AC1
:102FF000936D23F44073D4F898100B4393652368C2
:1030000013F4002F0BD0D4F8A430B3F5803F74D064
:10301000B3F5003F67D0002B5FD00126354623680B
:1030200013F4802F0CD0D4F88830B3F5001F7CD077
:10303000B3F5401F6FD0B3F5801F67D0012635462A
:10304000236813F4803F08D0236D002B76D0B3F5AE
:10305000803F00F0818001263546236813F0005F31
:1030600040F08380236813F4003F00F08E80D4F892
:103070008030B3F5807F00F0EC8040F28380B3F5C0
:10308000007F03D0B3F5407F40F0E180002D40F099
:10309000E6803B4A536D23F44073D4F880100B4311
:1030A000536572E0022104F12800FFF747FB054653
:1030B00060E72E4681E7022104F12800FFF73EFB7E
:1030C000002883D0012681E7022104F12800FFF7C0
:1030D00035FB00288BD0012689E7002104F1080088
:1030E000FFF7A6FA05467DB9254A936D23F44033D0
:1030F000D4F8A4100B43936591E7022104F1280052
:10310000FFF71CFB0546EEE72E4688E71C4AD36A0C
:1031100043F40033D3627DB9194A536D23F440134D
:10312000D4F888100B4353658AE7012104F1280085
:10313000FFF704FB0546EEE72E4681E7104AD36A07
:1031400043F40033D36275B90D4AD36C23F4803352
:10315000216D0B43D36480E7022104F10800FFF7DF
:1031600067FA0546EFE72E4677E7022104F12800CB
:10317000FFF7E4FA00283FF475AF012672E700BFBD
:1031800000440258002B81D00126236813F4801FCD
:1031900006D04F4A136D23F00043616F0B43136554
:1031A000236813F0805F07D0494A136923F48043F2
:1031B000D4F8B8100B431361236813F4001F06D032
:1031C000434A136D23F08073E16E0B43136523684C
:1031D00013F0804F09D03E4B1A6922F400421A6165
:1031E0001A69D4F8BC100A431A612368002B06DA66
:1031F000374AD36C23F04053616D0B43D36423688B
:1032000013F4000F07D0324A536D23F44003D4F86F
:103210008C100B435365636813F0010F21D1636871
:1032200013F0020F26D1636813F0040F2BD16368EB
:1032300013F0080F30D1636813F0100F35D16368B5
:1032400013F0200F3AD106B101263046F8BD012611
:103250009BE71F4AD36A43F40033D36216E72E4636
:1032600093E7002104F10800FFF7E2F90028D6D027
:103270000646D4E7012104F10800FFF7D9F9002838
:10328000D1D00646CFE7022104F10800FFF7D0F9BC
:103290000028CCD00646CAE7002104F12800FFF739
:1032A0004DFA0028C7D00646C5E7012104F12800E1
:1032B000FFF744FA0028C2D00646C0E7022104F115
:1032C0002800FFF73BFA0028BDD00646BBE700BF49
:1032D0000044025808B5FFF73BF9054B1B6AC3F3DE
:1032E0000213044AD35C03F01F03D84008BD00BF9B
:1032F00000440258ACD8000810B5774A916A946A25
:10330000C4F3053ED36AC3F3001CD36BC3F3CC03F1
:103310000CFB03F314F47C3F00F0D88001F00301B0
:1033200007EE903AF8EE677A012965D0022900F09D
:10333000B080E1B107EE10EAB8EE477A9FED676A18
:10334000C6EE076A644B9B6BC3F3080307EE103AA3
:10335000B8EE477A9FED626A67EE867A77EE277A53
:10336000B7EE007A77EE877A66EEA76A60E01368B8
:1033700013F0200F23D011461268C2F3C102594B3B
:10338000D34007EE103AB8EE477A06EE90EAB8EE70
:10339000666AC7EE066A8B6BC3F3080307EE103A42
:1033A000B8EE477A9FED4E6A67EE867A77EE277A17
:1033B000B7EE007A77EE877A66EEA76A38E007EE16
:1033C00010EAB8EE477A9FED486AC6EE076A424BAC
:1033D0009B6BC3F3080307EE103AB8EE477A9FEDF4
:1033E000406A67EE867A77EE277AB7EE007A77EE54
:1033F000877A66EEA76A1BE007EE10EAB8EE477A16
:103400009FED366AC6EE076A334B9B6BC3F3080326
:1034100007EE103AB8EE477A9FED316A67EE867A8A
:1034200077EE277AB7EE007A77EE877A66EEA76AAC
:10343000294A936BC3F3462307EE103AB8EE477A56
:10344000B7EE006A37EE067AC6EE877AFCEEE77AC8
:10345000C0ED007A936BC3F3064307EE103AB8EE63
:10346000477A37EE067AC6EE877AFCEEE77AC0ED49
:10347000017A936BC3F3066307EE903AF8EE677A2E
:1034800077EE867A86EEA77ABCEEC77A80ED027A6E
:1034900010BD07EE10EAB8EE477A9FED146AC6EE4B
:1034A000076A0D4B9B6BC3F3080307EE103AB8EEA7
:1034B000477A9FED0B6A67EE867A77EE277AB7EE4A
:1034C000007A77EE877A66EEA76AB1E70023036099
:1034D00043608360DCE700BF004402580024744A64
:1034E000000000390090D0030024744C20BCBE4B77
:1034F00010B5774A916A946AC4F3055ED36AC3F340
:10350000002C536CC3F3CC030CFB03F314F07C7F4F
:1035100000F0D88001F0030107EE903AF8EE677AE8
:10352000012965D0022900F0B080E1B107EE10EA70
:10353000B8EE477A9FED676AC6EE076A644B1B6C6C
:10354000C3F3080307EE103AB8EE477A9FED626ABC
:1035500067EE867A77EE277AB7EE007A77EE877A8B
:1035600066EEA76A60E0136813F0200F23D01146BF
:103570001268C2F3C102594BD34007EE103AB8EEBD
:10358000477A06EE90EAB8EE666AC7EE066A0B6CFA
:10359000C3F3080307EE103AB8EE477A9FED4E6A80
:1035A00067EE867A77EE277AB7EE007A77EE877A3B
:1035B00066EEA76A38E007EE10EAB8EE477A9FEDAC
:1035C000486AC6EE076A424B1B6CC3F3080307EE5A
:1035D000103AB8EE477A9FED406A67EE867A77EE4A
:1035E000277AB7EE007A77EE877A66EEA76A1BE055
:1035F00007EE10EAB8EE477A9FED366AC6EE076A24
:10360000334B1B6CC3F3080307EE103AB8EE477A4E
:103610009FED316A67EE867A77EE277AB7EE007A09
:1036200077EE877A66EEA76A294A136CC3F34623BE
:1036300007EE103AB8EE477AB7EE006A37EE067A30
:10364000C6EE877AFCEEE77AC0ED007A136CC3F31E
:10365000064307EE103AB8EE477A37EE067AC6EE22
:10366000877AFCEEE77AC0ED017A136CC3F3066348
:1036700007EE903AF8EE677A77EE867A86EEA77ACA
:10368000BCEEC77A80ED027A10BD07EE10EAB8EE04
:10369000477A9FED146AC6EE076A0D4B1B6CC3F3A5
:1036A000080307EE103AB8EE477A9FED0B6A67EE13
:1036B000867A77EE277AB7EE007A77EE877A66EE2B
:1036C000A76AB1E70023036043608360DCE700BFC3
:1036D000004402580024744A000000390090D003CE
:1036E0000024744C20BCBE4B10B5774A916A946A92
:1036F000C4F3051ED36A03F0010C536BC3F3CC0370
:103700000CFB03F314F47C7F00F0D88001F003017C
:1037100007EE903AF8EE677A012965D0022900F0A9
:10372000B080E1B107EE10EAB8EE477A9FED676A24
:10373000C6EE076A644B1B6BC3F3080307EE103A2F
:10374000B8EE477A9FED626A67EE867A77EE277A5F
:10375000B7EE007A77EE877A66EEA76A60E01368C4
:1037600013F0200F23D011461268C2F3C102594B47
:10377000D34007EE103AB8EE477A06EE90EAB8EE7C
:10378000666AC7EE066A0B6BC3F3080307EE103ACE
:10379000B8EE477A9FED4E6A67EE867A77EE277A23
:1037A000B7EE007A77EE877A66EEA76A38E007EE22
:1037B00010EAB8EE477A9FED456AC6EE076A424BBB
:1037C0001B6BC3F3080307EE103AB8EE477A9FED80
:1037D000406A67EE867A77EE277AB7EE007A77EE60
:1037E000877A66EEA76A1BE007EE10EAB8EE477A22
:1037F0009FED396AC6EE076A334B1B6BC3F30803B0
:1038000007EE103AB8EE477A9FED316A67EE867A96
:1038100077EE277AB7EE007A77EE877A66EEA76AB8
:10382000294A136BC3F3462307EE103AB8EE477AE2
:10383000B7EE006A37EE067AC6EE877AFCEEE77AD4
:10384000C0ED007A136BC3F3064307EE103AB8EEEF
:10385000477A37EE067AC6EE877AFCEEE77AC0ED55
:10386000017A136BC3F3066307EE903AF8EE677ABA
:1038700077EE867A86EEA77ABCEEC77A80ED027A7A
:1038800010BD07EE10EAB8EE477A9FED146AC6EE57
:10389000076A0D4B1B6BC3F3080307EE103AB8EE33
:1038A000477A9FED0B6A67EE867A77EE277AB7EE56
:1038B000007A77EE877A66EEA76AB1E700230360A5
:1038C00043608360DCE700BF004402580024744C6E
:1038D000000000390090D0030024744A20BCBE4B85
:1038E00000B58BB0A0F580730B432ED0A0F500730C
:1038F0000B437ED0A0F580630B4300F0D480A0F58D
:1039000000630B4300F02C81A0F580530B4300F0C3
:103910008B81A0F500530B4300F0E381A0F5002359
:103920000B4300F02C82A0F580330B4300F06F8234
:10393000A0F580430B4300F09082A0F5004050EAD0
:10394000010300F0D382002001E3954B1B6D03F0CF
:103950000703042B00F2F282DFE803F005101B03DB
:1039600026009048F3E28E4B186810F0007000F0CB
:10397000EE8207A8FFF7B8FE0898E8E2884B1868BF
:1039800010F0006000F0E38204A8FFF7B5FC049893
:10399000DDE2834B186810F0005000F0D88201A8D7
:1039A000FFF7A6FD0198D2E27D4AD36C03F04053A5
:1039B000126812F0040F07D033B9794B1B68C3F3B8
:1039C000C1037948D840C2E2754A126812F4807F78
:1039D00003D0B3F1805F00F0B382714A126812F431
:1039E000003F00F0AF82B3F1005F00F0AD82002035
:1039F000ADE26B4B1B6D03F4E073802B33D015D914
:103A0000C02B00F0A382B3F5807F1FD1644AD36C32
:103A100003F04053126812F0040F2FD073BB604BB9
:103A20001B68C3F3C1036048D84090E283B1402BC8
:103A30000AD15B4B186810F0006000F0888204A87F
:103A4000FFF75AFC049882E2002080E200207EE228
:103A5000534B186810F0007000F0798207A8FFF748
:103A600043FE089873E24E4B186810F0005000F0C7
:103A70006E8201A8FFF73CFD019868E2484A12688F
:103A800012F4807F03D0B3F1805F00F06382444A78
:103A9000126812F4003F00F05F82B3F1005F00F0A3
:103AA0005D82002053E23E4B9B6D03F46003B3F54F
:103AB000800F35D016D9B3F5C00F00F05182B3F5A1
:103AC000000F20D1364AD36C03F04053126812F035
:103AD000040F30D07BBB324B1B68C3F3C1033248A9
:103AE000D84034E28BB1B3F5001F0AD12C4B1868D3
:103AF00010F0006000F02B8204A8FFF7FDFB049893
:103B000025E2002023E2002021E2254B186810F076
:103B1000007000F01C8207A8FFF7E6FD089816E287
:103B20001F4B186810F0005000F0118201A8FFF739
:103B3000DFFC01980BE21A4A126812F4807F03D06E
:103B4000B3F1805F00F00E82154A126812F4003F54
:103B500000F00A82B3F1005F00F008820020F6E175
:103B60000F4B9B6D03F0E063B3F1007F3CD01DD998
:103B7000B3F1407F00F0FC81B3F1806F27D1084A98
:103B8000D36C03F04053126812F0040F37D0002BAF
:103B900035D1034B1B68C3F3C1030348D840D6E1BA
:103BA000004402580080BB000090D0038BB1B3F1F9
:103BB000807F0AD19A4B186810F0006000F0C7812E
:103BC00004A8FFF799FB0498C1E10020BFE10020A1
:103BD000BDE1934B186810F0007000F0B88107A8A1
:103BE000FFF782FD0898B2E18D4B186810F0005085
:103BF00000F0AD8101A8FFF77BFC0198A7E1884A9E
:103C0000126812F4807F03D0B3F1805F00F0B281BC
:103C1000834A126812F4003F00F0AE81B3F1005FF6
:103C200000F0AC81002092E17D4B1B6D03F4E0437A
:103C3000B3F5005F35D016D9B3F5405F00F0A08131
:103C4000B3F5804F20D1764AD36C03F0405312680D
:103C500012F0040F30D07BBB714B1B68C3F3C10360
:103C60007048D84073E18BB1B3F5805F0AD16C4BDB
:103C7000186810F0006000F06A8104A8FFF73CFBB0
:103C8000049864E1002062E1002060E1644B186860
:103C900010F0007000F05B8107A8FFF725FD089881
:103CA00055E15F4B186810F0005000F0508101A8FA
:103CB000FFF71EFC01984AE1594A126812F4807F0E
:103CC00003D0B3F1805F00F05D81554A126812F4B1
:103CD000003F00F05981B3F1005F00F057810020F0
:103CE00035E14F4B1B6D03F4E023B3F5403F32D079
:103CF00016D8B3F5803F23D0B3F5003F0AD1484B27
:103D0000186810F0005000F0228101A8FFF7F0FBC6
:103D100002981CE113B9FEF73DFC18E1002016E102
:103D2000B3F5802F23D0B3F5A02F07D13C4B1868F3
:103D300010F4003000F00B813B4808E1002006E160
:103D4000374B186810F0006000F0018104A8FFF7FD
:103D5000D3FA0598FBE0324B186810F0040000F02D
:103D6000F6801B68C3F3C1032E48D840EFE02C4B0C
:103D7000186810F4807000F0EA802C48E7E0284BC7
:103D80009B6D03F44033B3F5803F10D0B3F5003F93
:103D900018D00BB10020DAE0214B186810F0006059
:103DA00000F0D58004A8FFF7A7FA0498CFE01C4BD9
:103DB000186810F0005000F0CA8001A8FFF798FBC7
:103DC0000398C4E0164AD36C03F04053126812F013
:103DD000040F07D033B9124B1B68C3F3C10311485A
:103DE000D840B4E00E4A126812F4807F03D0B3F1D9
:103DF000805F00F0CD800A4A126812F4003F00F0A4
:103E0000C980B3F1005F00F0C78000209FE0044B41
:103E1000DB6C13F480330BD0ABB9002097E000BF0C
:103E2000004402580090D00340787D0100093D0015
:103E30005A4B186810F0007000F0898007A8FFF74F
:103E400053FC089883E0554B186810F000607ED052
:103E500004A8FFF751FA069879E0504B9B6D03F0E8
:103E6000E043B3F1405F2FD015D8B3F1805F21D08C
:103E7000B3F1005F09D1494B186810F0005066D0CB
:103E800001A8FFF735FB029861E013B9FFF722FAAA
:103E90005DE000205BE0B3F1804F20D0B3F1A04F94
:103EA00006D13E4B186810F4003050D03C484EE02C
:103EB00000204CE0394B186810F0006047D004A88F
:103EC000FFF71AFA059842E0344B186810F0040026
:103ED0003DD01B68C3F3C1033248D84037E02F4BB5
:103EE000186810F4807032D02F4830E02B4B1B6DD7
:103EF00003F04053B3F1805F0CD0B3F1005F13D0F7
:103F00000BB1002023E0254B186810F400301ED0C0
:103F100023481CE0214B186810F0007017D007A848
:103F2000FFF7E2FB089812E01C4B186810F00060E5
:103F30000DD004A8FFF7E0F9059808E0002006E09E
:103F4000194804E0002002E0154800E017480BB0D3
:103F50005DF804FB1448FAE70020F8E71048F6E79C
:103F60001248F4E71048F2E70020F0E70C48EEE7CB
:103F70000E48ECE70C48EAE70020E8E70848E6E7E7
:103F80000A48E4E70848E2E70020E0E70448DEE703
:103F90000548DCE70020DAE70148D8E7004402588A
:103FA00040787D010090D00300093D000080BB00F7
:103FB000F0B583B000236BE085685E000324B44055
:103FC00025EA0405CC68B4402C438460446824EAA4
:103FD0000C0C4C68C4F300149C4044EA0C0444608C
:103FE00068E0DD08083550F8256003F007044FEA63
:103FF000840C0F2404FA0CF426EA040E0C6904FA6B
:104000000CF444EA0E0440F825406BE0092400E07B
:10401000002404FA0EF42C430CF1020C694D45F80F
:104020002C404FF0B0442568D44325EA02064F687F
:1040300017F4801F01D042EA05064FF0B0452E600C
:104040006D6804EA05064F6817F4001F01D042EAC4
:1040500005064FF0B0456E60D5F8845004EA0506B9
:104060004F6817F4003F01D042EA05064FF0B04513
:10407000C5F88460D5F880502C404E6816F4803F17
:1040800001D042EA05044FF0B042C2F8804001334B
:104090000A6832FA03F400F092804FF0010C0CFA37
:1040A00003FC1CEA0202F2D04C6804F00304013C59
:1040B000012C81D94C6804F00304032C0CD0C46893
:1040C0005D004FF0030C0CFA05FC24EA0C0C8C6824
:1040D000AC4044EA0C04C4604C6804F00304022CB5
:1040E0003FF47FAF04684FEA430E4FF0030C0CFA25
:1040F0000EFC24EA0C0C4C6804F0030404FA0EF4E1
:1041000044EA0C0404604C6814F4403FBFD02E4CC9
:10411000D4F8F45045F00205C4F8F450D4F8F44053
:1041200004F002040194019C4FEA930C0CF1020587
:10413000244C54F8255003F003044FEA840E0F2456
:1041400004FA0EF425EA0405204CA0423FF460AFC7
:1041500004F58064A04222D004F58064A04220D0FF
:1041600004F58064A0421ED004F58064A0421CD0F7
:1041700004F58064A0421AD004F58064A04218D0EF
:1041800004F58064A04216D004F58064A04214D0E7
:1041900004F58064A0423FF439AF0A2439E70124D2
:1041A00037E7022435E7032433E7042431E7052405
:1041B0002FE706242DE707242BE7082429E703B07F
:1041C000F0BD00BF0004005800440258000002582F
:1041D0000AB181617047090481617047036827490A
:1041E000274A934218BF8B422FD0183293422CD0CB
:1041F0001832934229D01832934226D01832934273
:1042000023D01832934220D0183293421DD002F5A9
:104210005672934219D01832934216D018329342F4
:1042200013D01832934210D0183293420DD0183266
:1042300093420AD01832934207D01832934204D0E6
:1042400023F0FF038365806D704710B4D9B2103935
:104250000C4AA2FB0142C2F302120B4CA25CC265E3
:104260005F2907D9094A1A4004328265806D5DF8DA
:10427000044B7047054A1A408265F7E71000024078
:1042800028000240ABAAAAAAA4D8000800FCFFFF9D
:1042900083699BB9836A012B0AD0022B02D00BB130
:1042A00000207047C36A13F0807F2AD10020704736
:1042B000C36AB3F1C07F26D000207047B3F5005F1A
:1042C0000AD0836A022B26D9032B26D1C36A13F0A6
:1042D000807F24D100207047836A032B03D8DFE856
:1042E00003F01404140A00207047C36A13F0807F9F
:1042F0000DD100207047C36AB3F1C07F09D0002000
:10430000704701207047012070470120704701204D
:10431000704701207047012070470020704701203E
:104320007047000003682249224A934218BF8B421B
:1043300028D01432934225D01432934222D0143222
:1043400093421FD0143293421CD01432934219D09E
:104350001432934216D0DAB2103A1749A1FB021276
:10436000120916491944A8291FD9154B13449B005B
:104370000366144B436602F01F02012303FA02F2A4
:1043800082667047DBB2083B0F4AA2FB03230F4A49
:1043900002EB1312920002660D4A4266C3F3041345
:1043A000012202FA03F3836670470832DDE700BF9B
:1043B000085402581C540258ABAAAAAAF0FBFDBF2D
:1043C0000082001080080240CDCCCCCC00960016B4
:1043D0008058025801794A1E072A2CD830B4036845
:1043E000154D164CA34218BFAB4218D01434A3424B
:1043F00015D01434A34212D01434A3420FD0143475
:10440000A3420CD01434A34209D01434A34206D0E2
:104410000B4B0B449B00C3660A4B036705E00A4B3A
:104420000B449B00C366094B0367012303FA02F2A6
:10443000426730BC70477047085402581C540258F9
:104440003F820010400902403F9600164059025832
:1044500070B5044601F0A6F8002C00F0B6810546C0
:1044600023685349534A934218BF8B420CBF012221
:10447000002250D030318B424DD018318B424AD07F
:1044800018318B4247D018318B4244D018318B42BF
:1044900041D018318B423ED001F556718B423AD053
:1044A00018318B4237D018318B4234D018318B42BF
:1044B00031D018318B422ED018318B422BD018318D
:1044C0008B4228D018318B4225D03B493B4A93423E
:1044D00018BF8B4200F03181394A934200F02D81A0
:1044E0001432934200F029811432934200F0258166
:1044F0001432934200F021811432934200F01D8166
:104500001432934200F0198140236365032384F839
:10451000353001204AE0022184F83510002184F86A
:1045200034107ABB274A93422CD01832934229D0B8
:104530001832934226D01832934223D01832934235
:1045400020D0183293421DD002F55672934219D0F2
:104550001832934216D01832934213D01832934235
:1045600010D0183293420DD0183293420AD018322C
:10457000934207D01832934204D01A6822F0010205
:104580001A6003E01A6822F001021A6023681A68B0
:1045900012F0010F18D001F005F8431B052BF5D9D7
:1045A00020236365032384F83530012070BD00BFEC
:1045B0001000024028000240085402581C540258BF
:1045C00030540258400002401A6881481040A168E7
:1045D000E2680A4321690A4361690A43A1690A43FF
:1045E000E1690A43216A0A430243616A042900F02F
:1045F00099807849086878490140B1F1005F11D38A
:104600006168A1F12905A1F13F00032888BF052DAC
:1046100006D9A1F14700012802D94F39032901D851
:1046200042F480121A602668756925F00705636AEE
:104630001D43042B08D1A36A1D43E36A23B120461E
:10464000FFF726FE002872D175612046FFF7C6FDF0
:10465000E36D03F01F023F239340836023685F49AB
:104660005F4A934218BF8B4242D0183293423FD0E8
:10467000183293423CD01832934239D018329342C8
:1046800036D01832934233D01832934230D002F5EC
:10469000567293422CD01832934229D0183293424A
:1046A00026D01832934223D01832934220D01832A9
:1046B00093421DD0183293421AD01832934217D029
:1046C000484A934214D01432934211D01432934288
:1046D0000ED0143293420BD01432934208D01432CD
:1046E000934205D01432934202D01432934213D134
:1046F0002046FFF717FEA368802B59D0236E22793E
:104700001A60636EA26E5A606368013B072B52D930
:104710000023E3662367636700206065012384F854
:10472000353043E7E16A206B01430A4361E74023E8
:104730006365012084F8350038E7022284F83520CB
:10474000002284F834201A6827491140A268402AC0
:104750002CD0802A27D00022E06842EAD0022069CB
:1047600042EAD002606942EAD002A06942EAD0027D
:10477000E06942EAD002206A42EA10120A431A6053
:1047800022681A4B13441A4AA2FB03231B099B00FD
:10479000E3652046FFF722FDE26D02F01F010122D2
:1047A0008A4042605AE74FF48042D5E71022D3E7AF
:1047B00000236360A2E72046FFF70CFEE36E0022B1
:1047C0001A60236F626F5A60A6E70120EEE600BF11
:1047D0003F8010FE0010005C0000FFFF1000024050
:1047E00028000240085402580F00FEFFF8ABFDA756
:1047F000CDCCCCCC70B5044600F0D4FE002C00F03B
:104800009181054694F83530DBB2022B06D0802327
:104810006365002384F83430012070BD23688C491F
:104820008C4A934218BF8B4230D0183293422DD01D
:10483000183293422AD01832934227D0183293422A
:1048400024D01832934221D0183293421ED002F560
:10485000567293421AD01832934217D018329342AC
:1048600014D01832934211D0183293420ED018321D
:1048700093420BD01832934208D01832934205D09D
:104880001A6822F00E021A60266809E01A6822F0FF
:104890001E021A602268536923F080035361266860
:1048A00023686B496B4A934218BF8B4242D018323F
:1048B00093423FD0183293423CD01832934239D0C1
:1048C0001832934236D01832934233D01832934282
:1048D00030D002F5567293422CD01832934229D030
:1048E0001832934226D01832934223D01832934282
:1048F00020D0183293421DD0183293421AD0183269
:10490000934217D0544A934214D01432934211D098
:10491000143293420ED0143293420BD0143293428D
:1049200008D01432934205D01432934202D014328C
:10493000934204D1226E136823F4807313602368BA
:104940004349444A934218BF8B422FD018329342B6
:104950002CD01832934229D01832934226D01832E4
:10496000934223D01832934220D0183293421DD064
:1049700002F55672934219D01832934216D018326B
:10498000934213D01832934210D0183293420DD074
:10499000183293420AD01832934207D01832934209
:1049A00004D01A6822F001021A6003E01A6822F0AB
:1049B00001021A60336813F0010F0ED000F0F2FD0F
:1049C000431B052BF6D920236365032384F8353078
:1049D000002384F8343001201FE723681C491D4A56
:1049E000934218BF8B4239D01832934236D01832D6
:1049F000934233D01832934230D0183293422DD0A4
:104A0000183293422AD01832934227D002F55672B8
:104A1000934223D01832934220D0183293421DD0B3
:104A2000183293421AD01832934217D01832934258
:104A300014D01832934211D0183293420ED0A16D87
:104A4000E36D03F01F02012393404B600DE000BFB4
:104A5000100002402800024008540258A16DE36D86
:104A600003F01F023F2393408B6023682E492F4A97
:104A7000934218BF8B4242D0183293423FD0183233
:104A800093423CD01832934239D01832934236D0F8
:104A90001832934233D01832934230D002F5567216
:104AA00093422CD01832934229D01832934226D008
:104AB0001832934223D01832934220D018329342B6
:104AC0001DD0183293421AD01832934217D0184A88
:104AD000934214D01432934211D0143293420ED028
:104AE000143293420BD01432934208D014329342C2
:104AF00005D01432934202D0143293420BD1636E2C
:104B0000A26E5A60E36E33B11A6822F480721A60A2
:104B1000236F626F5A60012384F83530002084F8D7
:104B200034007AE6012078E61000024028000240B6
:104B300008540258002800F0298108B5024690F870
:104B40003530DBB2022B03D080234365012008BD42
:104B50000368904890498B4218BF83420CBF0121E3
:104B6000002166D03030834263D01830834260D059
:104B7000183083425DD0183083425AD018308342B7
:104B800057D01830834254D000F55670834250D02D
:104B9000183083424DD0183083424AD018308342B7
:104BA00047D01830834244D01830834241D0183067
:104BB00083423ED0183083423BD0196821F00E0169
:104BC00019601368A0F5956073498B4218BF834242
:104BD0006AD072498B4267D018318B4264D0183149
:104BE0008B4261D018318B425ED018318B425BD042
:104BF00018318B4258D001F556718B4254D0183180
:104C00008B4251D018318B424ED018318B424BD051
:104C100018318B4248D018318B4245D018318B4225
:104C200042D018318B423FD0196821F00101196040
:104C30003EE0042082F8350081BB584A93422DD0D3
:104C4000183293422AD01832934227D01832934216
:104C500024D01832934221D0183293421ED002F54C
:104C6000567293421AD01832934217D01832934298
:104C700014D01832934211D0183293420ED0183209
:104C800093420BD01832934208D01832934205D089
:104C90001A6822F001021A60002058E71A6822F010
:104CA00001021A60002052E7196821F00101196021
:104CB0001368384838498B4218BF834242D01831B4
:104CC0008B423FD018318B423CD018318B4239D0C7
:104CD00018318B4236D018318B4233D018318B4289
:104CE00030D001F556718B422CD018318B4229D02F
:104CF00018318B4226D018318B4223D018318B4289
:104D000020D018318B421DD018318B421AD0183167
:104D10008B4217D022498B4214D014318B4211D0D0
:104D200014318B420ED014318B420BD014318B4294
:104D300008D014318B4205D014318B4202D014318B
:104D40008B4217D1116E0B6823F480730B60906D4A
:104D5000D36D03F01F0101238B404360536E916EAE
:104D60005960D36E33B1196821F480711960136FE3
:104D7000516F5960012382F83530002382F83430B6
:104D8000136D2BB1104698470020E0E601207047D4
:104D90000020DCE6100002402800024040000240F3
:104DA00008540258F0B583B00446002301937D4BAC
:104DB0001D687D4BA3FB0535AD0A876D3E68D7F8AE
:104DC00000C0036879497A48834218BF8B420CBF00
:104DD0000120002061D0774A93425ED0183293427E
:104DE0005BD01832934258D01832934255D01832C3
:104DF000934252D0183293424FD002F556729342EA
:104E00004BD01832934248D01832934245D01832D2
:104E1000934242D0183293423FD0183293423CD052
:104E20001832934239D01832934236D06249634ADD
:104E3000934218BF8B4212D0614A93420FD0143272
:104E400093420CD01432934209D01432934206D0CC
:104E50001432934203D01432934240F061821A68B4
:104E6000E16D01F01F010420884010EA0C0F00F0F2
:104E7000A78212F0040F00F0A382786012F4004FB2
:104E800000F05A8212F4803F40F05082A36C002B55
:104E900000F046822046984742E2E26D02F01F0190
:104EA00008228A40324241D070BB424A93422BD002
:104EB0001832934228D01832934225D018329342A8
:104EC00022D0183293421FD0183293421CD002F5E0
:104ED0005672934218D01832934215D0183293422A
:104EE00012D0183293420FD0183293420CD018329D
:104EF000934209D01832934206D01832934203D01D
:104F00001A68C2F3C00202E01A68C2F380026AB1F2
:104F10001A6822F004021A60E36D03F01F020823EE
:104F20009340BB60636D43F001036365E26D02F083
:104F30001F0226FA02F313F0010F47D023681B4823
:104F40001B498B4218BF83423CD018318B4239D069
:104F500018318B4236D018318B4233D018318B4206
:104F600030D018318B422DD018318B422AD001F528
:104F700056718B4226D018318B4223D018318B4288
:104F800020D018318B421DD018318B421AD01831E5
:104F90008B4217D018318B4214D018318B4211D06C
:104FA0001B6813E008000020B5814E1B1000024072
:104FB0002800024040000240085402581C54025885
:104FC000305402585B6913F0800F3BD1E36D03F05E
:104FD0001F03042202FA03F3334240D022689648AA
:104FE00096498A4218BF824235D018318A4232D05F
:104FF00018318A422FD018318A422CD018318A4277
:1050000029D018318A4226D018318A4223D001F59E
:1050100056718A421FD018318A421CD018318A42F8
:1050200019D018318A4216D018318A4213D018315B
:105030008A4210D018318A420DD018318A420AD0E3
:1050400013680CE0012303FA02F2BA60636D43F0C7
:1050500002036365BAE7126812F0020F3DD1E36DF7
:1050600003F01F03102202FA03F333425FD02268D9
:10507000714872498A4218BF824234D018318A423C
:1050800031D018318A422ED018318A422BD01831B3
:105090008A4228D018318A4225D018318A4222D03B
:1050A00001F556718A421ED018318A421BD0183140
:1050B0008A4218D018318A4215D018318A4212D04B
:1050C00018318A420FD018318A420CD018318A42E6
:1050D00009D01268C2F3800208E0BB60636D43F040
:1050E00004036365BBE71268C2F3C002FAB1BB6098
:1050F00023681A6812F4802F0DD01B6813F4002F58
:1051000004D1236C9BB12046984710E0A36C73B187
:10511000204698470BE01A6812F4807F03D11A6882
:1051200022F008021A60236C0BB120469847E36D09
:1051300003F01F03202202FA03F3334200F09280AF
:1051400022683D483D498A4218BF82422ED018311C
:105150008A422BD018318A4228D018318A4225D071
:1051600018318A4222D018318A421FD018318A421F
:105170001CD001F556718A4218D018318A4215D0D8
:1051800018318A4212D018318A420FD018318A421F
:105190000CD018318A4209D018318A4206D0183111
:1051A0008A4203D01268C2F3400202E01268C2F3DE
:1051B0000012002A56D0BB6094F83530DBB2042BC5
:1051C0000ED023681A6812F4802F39D01B6813F4AC
:1051D000002F2CD1636C002B44D02046984741E02F
:1051E0002268136823F0160313602268536923F0C2
:1051F00080035361236CB3B12268136823F0080362
:105200001360E36D03F01F023F239340BB60012353
:1052100084F83530002384F83430236D002B7FD0A0
:10522000204698477CE0A36C002BE5D1E9E7E36BCF
:10523000C3B12046984715E0100002402800024004
:105240001A6812F4807F09D11A6822F010021A60DD
:10525000012384F83530002384F83430E36B0BB13C
:1052600020469847636D002B5AD0636D13F0010FF1
:1052700052D0042384F8353023689649964A9342E5
:1052800018BF8B422FD0183293422CD01832934241
:1052900029D01832934226D01832934223D01832A4
:1052A000934220D0183293421DD002F55672934299
:1052B00019D01832934216D01832934213D01832B4
:1052C000934210D0183293420DD0183293420AD034
:1052D0001832934207D01832934204D01A6822F051
:1052E00001021A6003E01A6822F001021A60019BB1
:1052F00001330193AB4204D823681B6813F0010FFC
:10530000F5D123681B6813F0010F0BD0032384F839
:105310003530002384F83430E36C0BB120469847D5
:1053200003B0F0BD012384F83530F2E7236C002B85
:10533000F6D020469847F3E712F0200F3AD12368C1
:105340006449654A934218BF8B422FD0183293426A
:105350002CD01832934229D01832934226D01832DA
:10536000934223D01832934220D0183293421DD05A
:1053700002F55672934219D01832934216D0183261
:10538000934213D01832934210D0183293420DD06A
:10539000183293420AD01832934207D018329342FF
:1053A00004D01A6822F004021A6003E01A6822F09E
:1053B00008021A60236C002BB2D020469847AFE752
:1053C0000220884010EA0C0F60D012F0020F5DD06E
:1053D000786012F4004F0ED012F4803F05D1636C58
:1053E000002B9DD0204698479AE7E36B002B97D07F
:1053F0002046984794E712F0200F40D123683549A2
:10540000354A934218BF8B422FD0183293422CD08A
:105410001832934229D01832934226D01832934240
:1054200023D01832934220D0183293421DD002F577
:105430005672934219D01832934216D018329342C2
:1054400013D01832934210D0183293420DD0183234
:1054500093420AD01832934207D01832934204D0B4
:105460001A6822F00A021A6003E01A6822F0140295
:105470001A60012384F83530002384F83430E36B5C
:10548000002B3FF44DAF2046984749E7082000FA2B
:1054900001F111EA0C0F3FF443AF12F0080F3FF493
:1054A0003FAF1A6822F00E021A60E36D03F01F038B
:1054B000012202FA03F37B60626584F83520002341
:1054C00084F83430E36C002B3FF42AAF2046984731
:1054D00026E700BF1000024028000240134BDB68A3
:1054E00013F0040F07D1114BDB6803F0070383426D
:1054F0001AD00120704710B50C4AD36823F0070377
:105500001843D06000F04EF80446084B5B6813F473
:10551000005F07D100F046F8001BB0F57A7FF4D9A0
:10552000012000E0002010BD002070470048025814
:1055300010B50320FCF7CEF9FCF7C6FD0F498B69C7
:10554000C3F303230E4AD35C03F01F03D8408B69D7
:1055500003F00F03D35C03F01F0320FA03F3094A9F
:105560001360094B18600F2003F0B2FB10B1012447
:10557000204610BD0446FBF74DFEF9E700440258F3
:10558000ACD800080C00002008000020034B1B785A
:10559000034A11680B441360704700BF00000020ED
:1055A000800A0020014B1868704700BF800A002065
:1055B00038B50446FFF7F6FF0546B4F1FF3F02D0C9
:1055C000044B1B781C44FFF7EDFF401BA042FAD3AD
:1055D00038BD00BF00000020014B1868000C704768
:1055E0000010005C034A536823EA00030B43536036
:1055F000704700BF0004005800285DD010B5044675
:1056000090F84130002B46D0242384F841302268A2
:10561000136823F0010313606368226823F070634A
:1056200013612268936823F400439360E368012BBD
:1056300036D0A368226843F404439360E368022BE6
:1056400034D02268536823F40063536022685168A1
:105650001A4B0B4353602268D36823F40043D36092
:10566000236962691343A169226843EA0123D36075
:10567000E369216A22680B4313602268136843F0D0
:105680000103136000206064202384F8413020630C
:1056900084F8420010BD80F84030FBF793FEB3E77A
:1056A000A368226843F400439360C7E72268536805
:1056B00043F400635360C9E7012070470080000293
:1056C00090F84130DBB2202B24D190F84030012BF0
:1056D00022D0012380F84030242380F84130026832
:1056E000136823F0010313600268136823F48053E6
:1056F000136002681368194311600268136843F06D
:1057000001031360202380F84130002380F84030EB
:1057100018467047022070470220704790F84130C9
:10572000DBB2202B22D190F84030012B20D0012376
:1057300080F84030242380F841300268136823F059
:10574000010313600268136823F4706343EA0121C4
:1057500011600268136843F001031360202380F88E
:105760004130002380F840301846704702207047CF
:1057700002207047314AD2F8883043F47003C2F8EF
:1057800088302F4B1B6803F00F03062B06D82C4ADA
:10579000136823F00F0343F007031360294B1A68C3
:1057A00042F001021A6000221A611968264A0A4072
:1057B0001A60234B1B6813F0080F06D0204A1368A9
:1057C00023F00F0343F0070313601E4B00229A617E
:1057D000DA611A621D4999621D49D9621D4919632E
:1057E0005A639963DA6319645A64196821F4802151
:1057F00019601A66184B1A68184B1340B3F1005F12
:1058000003D2174B0122C3F808210E4BD3F8D43032
:1058100013F4805F10D10B4BD3F8D42042F48052A4
:10582000C3F8D4200F4A43F2D2011160D3F8D42038
:1058300022F48052C3F8D420704700BF00ED00E08E
:1058400000200052004402587FEDF6EA00020202F6
:105850000000FF01800201010010005C0000FFFF5A
:105860000080005100400052054AD36843F0020313
:10587000D360034B5B6813F4005FFAD0704700BF3E
:105880000048025800F1080343604FF0FF32826085
:10589000C360036100230360704700230361704706
:1058A00043684B609A688A60516099600861036838
:1058B00001330360704730B40D68B5F1FF3F11D07C
:1058C00000F108031C465B681A68AA42FAD96368AB
:1058D0004B6099608C60616008610368013303600C
:1058E00030BC70470469F2E70369416882688A60E6
:1058F000416851605A68824206D0002202611A68EB
:10590000013A1A601868704782685A60F5E70346E2
:10591000406A18B11B6B1868C0F13800704710B5A9
:10592000044602F007F9A26BE36B9A4204D000240C
:1059300002F022F9204610BD0124F9E710B5044613
:1059400002F0F8F8A36B23B9012402F015F9204600
:1059500010BD0024F9E770B504461546866B026C4D
:105960005AB903681BB100200136A66370BD806878
:1059700001F046FA0023A360F6E76DB9406806F02F
:10598000C9FD226C636813446360A268934219D313
:10599000236863602846E7E7C06806F0BBFD226C19
:1059A0005142E3689B1AE3602268934202D2A368E3
:1059B0000B44E360022D01D00020D5E726B1013E63
:1059C0000020D1E72846CFE70020CDE70346026C50
:1059D0006AB110B50846D9681144D9609C68A142E3
:1059E00001D31968D960D96806F094FD10BD7047DD
:1059F00038B5054602F09EF895F8454064B201E0DE
:105A0000013C64B2002C0ADD6B6A43B105F124004D
:105A100001F000F90028F3D001F090F9F0E7FF233E
:105A200085F8453002F0A8F802F084F895F8444073
:105A300064B201E0013C64B2002C0ADD2B6943B181
:105A400005F1100001F0E6F80028F3D001F076F936
:105A5000F0E7FF2385F8443002F08EF838BD38B502
:105A6000E0B10D46044602F065F82368E26B216C54
:105A700001FB0230A0600020A0636360013A02FBDA
:105A80000133E360FF2384F8443084F84530FDB9E6
:105A9000236963B902F070F8012038BD4FF050035C
:105AA00083F31188BFF36F8FBFF34F8FFEE704F1CD
:105AB000100001F0AFF80028ECD04FF0E0234FF0D9
:105AC0008052C3F8042DBFF34F8FBFF36F8FE1E710
:105AD00004F11000FFF7D6FE04F12400FFF7D2FE18
