:020000040800F2
:1000000000000220C15E0008690A00086B0A0008AF
:100010006D0A00086F0A0008710A0008000000005D
:10002000000000000000000000000000D14D0008AA
:10003000730A000800000000714E0008750A0008ED
:10004000155F0008155F0008155F0008155F0008C0
:10005000155F0008155F0008155F0008155F0008B0
:10006000155F0008155F0008155F0008155F0008A0
:10007000155F0008155F0008155F0008155F000890
:10008000155F0008155F0008155F0008155F000880
:10009000155F0008155F0008155F0008155F000870
:1000A000155F0008155F0008155F0008155F000860
:1000B000155F0008155F0008155F0008155F000850
:1000C000155F0008155F0008155F0008155F000840
:1000D000155F0008155F00088D0A0008155F00080D
:1000E000155F0008155F000800000000155F00089C
:1000F000155F0008155F0008155F0008155F000810
:10010000155F0008155F0008155F0008155F0008FF
:10011000155F0008155F0008155F0008155F0008EF
:10012000155F0008155F0008155F0008155F0008DF
:10013000155F0008155F0008155F0008155F0008CF
:1001400000000000000000000000000000000000AF
:10015000155F0008155F0008155F0008155F0008AF
:10016000155F0008155F0008155F0008155F00089F
:10017000155F0008155F0008155F0008000000000B
:10018000155F0008155F0008155F0008155F00087F
:10019000155F0008155F0008155F0008155F00086F
:1001A000155F0008155F0008155F0008155F00085F
:1001B000155F0008155F0008155F0008155F00084F
:1001C000155F0008155F0008155F0008155F00083F
:1001D000155F0008155F0008155F0008155F00082F
:1001E000155F0008155F0008155F0008155F00081F
:1001F000155F0008155F0008155F0008155F00080F
:10020000155F0008155F0008155F0008155F0008FE
:10021000155F0008155F0008155F0008155F0008EE
:10022000155F0008155F0008155F0008000000005A
:10023000155F0008155F000800000000155F00084A
:10024000155F0008155F0008155F0008155F0008BE
:10025000155F0008155F0008155F0008155F0008AE
:10026000155F0008155F0008155F0008155F00089E
:10027000155F0008155F0008155F0008000000000A
:10028000155F0008155F0008155F000800000000FA
:0802900000000000155F0008EA
:1002A00010B5054C237833B9044B13B10448AFF3B0
:1002B00000800123237010BD140000200000000006
:1002C0008C5F000808B5034B1BB103490348AFF32B
:1002D000008008BD00000000180000208C5F0008AE
:1002E00053B94AB9002908BF00281CBF4FF0FF319D
:1002F0004FF0FF3000F074B9ADF1080C6DE904CE99
:1003000000F006F8DDF804E0DDE9022304B07047F0
:100310002DE9F047089D04468E46002B4DD18A42B8
:10032000944669D9B2FA82F252B101FA02F3C2F1EB
:10033000200120FA01F10CFA02FC41EA030E94407C
:100340004FEA1C48210CBEFBF8F61FFA8CF708FB9D
:1003500016E341EA034306FB07F199420AD91CEB75
:10036000030306F1FF3080F01F81994240F21C81A7
:10037000023E63445B1AA4B2B3FBF8F008FB1033EF
:1003800044EA034400FB07F7A7420AD91CEB040424
:1003900000F1FF3380F00A81A74240F207816444F4
:1003A000023840EA0640E41B00261DB1D440002379
:1003B000C5E900433146BDE8F0878B4209D9002DDD
:1003C00000F0EF800026C5E9000130463146BDE867
:1003D000F087B3FA83F6002E4AD18B4202D38242D1
:1003E00000F2F980841A61EB030301209E46002D80
:1003F000E0D0C5E9004EDDE702B9FFDEB2FA82F2D5
:10040000002A40F09280A1EB0C014FEA1C471FFA32
:100410008CFE0126200CB1FBF7F307FB131140EA19
:1004200001410EFB03F0884208D91CEB010103F1E6
:10043000FF3802D2884200F2CB804346091AA4B2A8
:10044000B1FBF7F007FB101144EA01440EFB00FE7C
:10045000A64508D91CEB040400F1FF3102D2A645E1
:1004600000F2BB800846A4EB0E0440EA03409CE780
:10047000C6F12007B34022FA07FC4CEA030C20FA2D
:1004800007F401FA06F31C43F9404FEA1C4900FA4D
:1004900006F3B1FBF9F8200C1FFA8CFE09FB1811CA
:1004A00040EA014108FB0EF0884202FA06F20BD93D
:1004B0001CEB010108F1FF3A80F08880884240F28D
:1004C0008580A8F102086144091AA4B2B1FBF9F0D1
:1004D00009FB101144EA014100FB0EFE8E4508D9CC
:1004E0001CEB010100F1FF346CD28E456AD9023851
:1004F000614440EA0840A0FB0294A1EB0E01A14236
:10050000C846A64656D353D05DB1B3EB080261EBA3
:100510000E0101FA07F722FA06F3F1401F43C5E97D
:10052000007100263146BDE8F087C2F12003D840B3
:100530000CFA02FC21FA03F3914001434FEA1C47F5
:100540001FFA8CFEB3FBF7F007FB10360B0C43EAE7
:10055000064300FB0EF69E4204FA02F408D91CEB97
:10056000030300F1FF382FD29E422DD90238634495
:100570009B1B89B2B3FBF7F607FB163341EA034135
:1005800006FB0EF38B4208D91CEB010106F1FF3884
:1005900016D28B4214D9023E6144C91A46EA00467B
:1005A00038E72E46284605E70646E3E61846F8E60D
:1005B0004B45A9D2B9EB020864EB0C0E0138A3E756
:1005C0004646EAE7204694E74046D1E7D0467BE737
:1005D000023B614432E7304609E76444023842E7AF
:1005E000704700BF10B584B00024009401940294B9
:1005F000039400F065FB01238DF800308DF8014075
:1006000001941F228DF8082087228DF809208DF88B
:100610000A408DF80B408DF80C308DF80D308DF8B8
:100620000E408DF80F40684600F068FB042000F093
:1006300055FB04B010BD00002DE9F04F91B000242F
:100640000B940C940D940E940F948F4BD3F8E020E0
:1006500042F48072C3F8E020D3F8E02002F4807204
:100660000192019AD3F8E02042F04002C3F8E02062
:10067000D3F8E02002F040020292029AD3F8E02080
:1006800042F00802C3F8E020D3F8E02002F00802AC
:100690000392039AD3F8E02042F01002C3F8E0205E
:1006A000D3F8E02002F010020492049AD3F8E0207C
:1006B00042F00402C3F8E020D3F8E02002F0040284
:1006C0000592059AD3F8E02042F48062C3F8E02056
:1006D000D3F8E02002F480620692069AD3F8E02074
:1006E00042F00202C3F8E020D3F8E02002F0020258
:1006F0000792079AD3F8E02042F40072C3F8E02092
:10070000D3F8E02002F400720892089AD3F8E020AF
:1007100042F00102C3F8E020D3F8E02002F0010229
:100720000992099AD3F8E02042F08002C3F8E02051
:10073000D3F8E03003F080030A930A9BDFF86CB132
:1007400022464021584602F055FADFF864A12246BD
:100750000521504602F04EFA4C4F224660213846A1
:1007600002F048FAF0230B9302250C950D940E9499
:100770000D260F960BA9464802F02CF94FF4806322
:100780000B930C950D940E940F960BA9384602F01E
:1007900021F90B950C950D940E940F960BA93D48DD
:1007A00002F018F94FF400630B930C950D940E941E
:1007B0000F960BA9384802F00DF94FF04009CDF81B
:1007C0002C904FF00108CDF830800D940E940BA9B9
:1007D000584602F0FFF84FF440730B9312230C932A
:1007E0000D940E9404230F930BA92C4802F0F2F8F9
:1007F0004FF480430B930C940D940BA9284802F0FE
:10080000E9F805230B93CDF830800D940E940BA9D5
:10081000504602F0DFF84FF4C8630B930C950D942B
:100820000E940F960BA91F4802F0D4F8CDF82C9027
:100830004FF4881ACDF830A00D940BA9164802F099
:10084000C9F84FF48079CDF82C90CDF830A00D94F4
:100850000BA9384602F0BEF860230B93CDF8308028
:100860000D940E940BA9384602F0B4F8CDF82C90F4
:100870000C950D940E940F960BA90B4802F0AAF854
:1008800011B0BDE8F08F00BF0044025800180258B4
:1008900000200258001002580008025800040258B4
:1008A0000024025800000258001C02580028025878
:1008B000000C025808B5012004F0F0F8FBE772B60E
:1008C000FEE7000008B51548154B03604FF4E1330F
:1008D000436000238360C36003610C224261836133
:1008E000C36103624362836205F025FA70B9002197
:1008F0000A4805F09BFA58B90021084805F0BBFAF0
:1009000040B9064805F073FA30B908BDFFF7D7FFC4
:10091000FFF7D5FFFFF7D3FFFFF7D1FF340000202B
:100920000044004008B51548154B03604FF4E1330F
:10093000436000238360C36003610C2242618361D2
:10094000C36103624362836205F0F5F970B9002167
:100950000A4805F06BFA58B90021084805F08BFAEF
:1009600040B9064805F043FA30B908BDFFF7A7FFC4
:10097000FFF7A5FFFFF7A3FFFFF7A1FFC8000020C7
:100980000014014000B59DB04C22002109A805F0DB
:10099000F5FA2022002101A805F0F0FA022002F069
:1009A00007FC002300931E4BDA6A22F00102DA6290
:1009B000DB6A03F0010300931A4A936923F440436E
:1009C00043F480439361936903F440430093009B95
:1009D000144B9B6913F4005FFAD00223099301239F
:1009E0000C9340230D930023129309A800F0B2F951
:1009F00088B93F2301930023029303930493059343
:100A0000069307930893012101A800F0F7FD20B990
:100A10001DB05DF804FBFFF752FFFFF750FF00BF6A
:100A2000000400580048025808B5FFF7DBFD02F04B
:100A300011FCFFF7A7FFFFF7FFFDFFF743FFFFF7ED
:100A400071FF03F09FFF054A0021054803F0C8FF2E
:100A5000044B186003F0A8FFFEE700BFB05F00087A
:100A6000B508000830000020FEE7FEE7FEE7FEE7DD
:100A7000FEE7704708B502F01BFC03F0FBFC012801
:100A800000D108BD04F026FAFBE7000008B50248D3
:100A900004F04EFB08BD00BF3400002000B583B059
:100AA0000A4BD3F8F42042F00202C3F8F420D3F842
:100AB000F43003F002030193019B00220F216FF039
:100AC000010000F0A5F803B05DF804FB00440258F3
:100AD00010B5BAB00446002135913691379138915E
:100AE0003991C02204A805F049FA23683A4A934292
:100AF00004D03A4A93423BD03AB010BD02220023C0
:100B0000CDE9042304A801F015F870BB344BD3F8E9
:100B1000E82042F40032C3F8E820D3F8E82002F4D9
:100B200000320092009AD3F8E02042F00802C3F8A5
:100B3000E020D3F8E03003F008030193019B602329
:100B4000359302233693002437943894072339933E
:100B500035A9244801F03EFF22460521262000F059
:100B600057F8262000F08AF8C6E7FFF7A8FECDE781
:100B700001220023CDE9042304A800F0DBFF38BBE9
:100B8000174BD3F8F02042F02002C3F8F020D3F83E
:100B9000F02002F020020292029AD3F8E02042F004
:100BA0004002C3F8E020D3F8E03003F040030393A1
:100BB000039B4FF4844335930223369300233793EA
:100BC00038930723399335A9074801F003FF93E7CA
:100BD000FFF775FED4E700BF004400400014014059
:100BE00000440258000C0258001802580649CB680D
:100BF00023F4E0631B041B0C000200F4E0600343D9
:100C0000024A1A43CA60704700ED00E00000FA058E
:100C100000B5174BDB68C3F30223C3F1070CBCF12B
:100C2000040F28BF4FF0040C03F1040EBEF1060FB1
:100C300014D9033B4FF0FF3E0EFA0CFC21EA0C01E5
:100C400099400EFA03F322EA03031943002807DB55
:100C50000901C9B2074B19545DF804FB0023E9E709
:100C600000F00F000901C9B2034B1954F4E700BFAB
:100C700000ED00E000E400E014ED00E0002807DBF8
:100C800000F01F02400901239340024A42F820303D
:100C9000704700BF00E100E00138B0F1807F0BD267
:100CA0004FF0E0235861054AF02182F8231000201C
:100CB000986107221A6170470120704700ED00E03B
:100CC000BFF35F8F044B5A6A22F480325A620022CB
:100CD000C3F89420704700BF00ED00E040F0010031
:100CE000054BC3F894005A6A42F480325A62BFF34B
:100CF0004F8FBFF36F8F704700ED00E04378144AC9
:100D0000C2F89830D2F8A03023F00103C2F8A03026
:100D10004368C2F89C30017BC37A1B0643EA017327
:100D2000817A43EAC143417B43EA8143817B43EAC1
:100D30004143C17B43EA0143417A43EA0123017AFB
:100D400043EA410301780B43C2F8A030704700BF6B
:100D500000ED00E0002800F0398338B50446036850
:100D600013F0010F25D0944A136903F03803926AF7
:100D7000102B15D0182B0FD06368B3F5803F3FD0F0
:100D8000002B53D18C4B1A6822F480321A601A68F7
:100D900022F480221A6038E002F00302022AEBD12A
:100DA000854B1B6813F4003F03D06368002B00F0F1
:100DB0000F83236813F0020F00F0A1807E4A1369AD
:100DC000926A13F038035AD0182B55D0E368002BE1
:100DD00000F0DE8078490A6822F0190213430B60A4
:100DE00002F072FA0546744B1B6813F0040F40F0D2
:100DF000AD8002F069FA401B0228F4D90320EEE22C
:100E00006D4A136843F48033136063682BB302F0B8
:100E10005BFA0546684B1B6813F4003FC9D102F02A
:100E200053FA401B6428F5D90320D8E2B3F5A02F6C
:100E300009D0614B1A6822F480321A601A6822F4D1
:100E400080221A60E1E75C4B1A6842F480221A6043
:100E50001A6842F480321A60D7E702F035FA054684
:100E6000554B1B6813F4003FA3D002F02DFA401B32
:100E70006428F5D90320B2E212F0030FA6D14E4B3D
:100E80001B6813F0040F03D0E368002B00F0A2826C
:100E9000494A136823F01903E1680B43136002F019
:100EA00013FA0546444B1B6813F0040F06D102F0F9
:100EB0000BFA401B0228F5D9032090E202F00AFA4F
:100EC00041F20303984212D82269402A07D03A49D6
:100ED0004B6823F47C3343EA02334B600FE0364A1D
:100EE000536823F47C3343F40033536007E0324A01
:100EF000536823F0FE43216943EA0163536023688A
:100F000013F0100F00F088802B4A136903F03803A8
:100F1000926A082B56D0182B50D0E369002B00F0B2
:100F2000B880254A136843F08003136002F0CCF9BF
:100F30000546214B1B6813F4807F40F0888002F047
:100F4000C3F9401B0228F4D9032048E202F0C2F999
:100F500041F20303984212D82269402A07D0164969
:100F60004B6823F47C3343EA02334B60C7E7124AF1
:100F7000536823F47C3343F400335360BFE70E4AD5
:100F8000536823F0FE43216943EA01635360B6E7E7
:100F9000094A136823F00103136002F095F905462E
:100FA000054B1B6813F0040FA9D002F08DF9401B0C
:100FB0000228F5D9032012E20044025802F003028D
:100FC000012AAAD1A14B1B6813F4807F03D0E369E7
:100FD000802B40F0018202F07DF941F20303984238
:100FE00012D8226A202A07D098494B6823F0F84388
:100FF00043EA82634B600FE0944A536823F0F8435E
:1010000043F08043536007E0904AD36823F07C5359
:10101000216A43EA0163D360236813F0080F60D0AC
:101020006369002B49D0894A536F43F0010353672A
:1010300002F04AF90546854B5B6F13F0020F50D161
:1010400002F042F9401B0228F5D90320C7E102F063
:1010500041F941F20303984212D8226A202A07D0AC
:101060007A494B6823F0F84343EA82634B60D3E745
:10107000764A536823F0F84343F080435360CBE74C
:10108000724AD36823F07C53216A43EA0163D36038
:10109000C2E76E4A136823F08003136002F014F96C
:1010A00005466A4B1B6813F4807FB5D002F00CF93B
:1010B000401B0228F5D9032091E1644A536F23F0C5
:1010C0000103536702F000F90546604B5B6F13F0B4
:1010D000020F06D002F0F8F8401B0228F5D90320D1
:1010E0007DE1236813F0200F29D0A3699BB1574AF3
:1010F000136843F48053136002F0E6F80546534B3F
:101100001B6813F4005F1AD102F0DEF8401B0228BE
:10111000F5D9032063E14D4A136823F4805313602B
:1011200002F0D2F80546494B1B6813F4005F06D065
:1011300002F0CAF8401B0228F5D903204FE12368CA
:1011400013F0040F21D1636A002B00F047813F4A5E
:10115000126902F03802182A00F0EE80022B79D0D2
:101160003A4A136823F08073136002F0ADF8044626
:10117000364B1B6813F0007F00F0DC8002F0A4F80F
:10118000001B0228F4D9032029E1314A136843F4F3
:101190008073136002F098F805462D4B1B6813F41A
:1011A000807F06D102F090F8401B6428F5D9032017
:1011B00015E1A368012B0AD00BBB244B1A6F22F058
:1011C00001021A671A6F22F004021A6704E01F4A2C
:1011D000136F43F001031367A36833B302F074F88D
:1011E00005461A4B1B6F13F0020FACD102F06CF8DE
:1011F000401B41F288339842F3D90320EFE0052BDE
:1012000009D0124B1A6F22F001021A671A6F22F0EE
:1012100004021A67E0E70D4B1A6F42F004021A67E6
:101220001A6F42F001021A67D6E702F04DF8054640
:10123000064B1B6F13F0020F85D002F045F8401BE0
:1012400041F288339842F3D90320C8E000440258A1
:1012500000480258694A136823F08073136002F053
:1012600033F80546654B1B6813F0007F06D002F08B
:101270002BF8401B0228F5D90320B0E05F4B996A98
:101280005F4A0A40A16AE06A41EA00110A439A6291
:10129000226B013AC2F30802616B0139490289B23B
:1012A0000A43A16B0139090401F4FE010A43E16B11
:1012B0000139090601F0FE410A431A63DA6A22F095
:1012C0000102DA62596B4F4A0A40A16C42EAC1023C
:1012D0005A63DA6A22F00C02216C0A43DA62DA6A93
:1012E00022F00202616C0A43DA62DA6A42F4803266
:1012F000DA62DA6A42F40032DA62DA6A42F48022AE
:10130000DA62DA6A42F00102DA621A6842F0807246
:101310001A6001F0D9FF0446384B1B6813F0007FB8
:1013200006D101F0D1FF001B0228F5D9032056E0B9
:10133000002054E0002052E0304A916A106B012BEB
:101340004ED001F00303A26A93424BD1C1F30511C1
:10135000E36A994248D1C0F30802236B013B9A42E9
:1013600044D1C0F34622636B013B9A4240D1C0F3A3
:101370000642A36B013B9A423CD1C0F30660E36B8B
:10138000013B984238D11D4B5B6BC3F3CC03A26C7D
:101390009A4201D1002022E0184AD36A23F00103C7
:1013A000D36201F091FF054601F08EFFA842FBD009
:1013B000124A516B134B0B40A16C43EAC1035363B8
:1013C000D36A43F00103D362002008E00120704794
:1013D000012004E0012002E0012000E0002038BDEF
:1013E0000120FCE70120FAE70120F8E70120F6E7F9
:1013F0000120F4E70120F2E70120F0E70044025861
:101400000CFCFFFF0700FFFF744B1B6903F0380360
:10141000102B00F0DE80182B10D00BB170487047F5
:101420006E4B1B6813F0200F00F0D5806B4B1868D3
:10143000C0F3C1006B4B23FA00F0704710B4674A49
:10144000916A01F00301946AC4F30510D36A03F0B2
:10145000010C536BC3F3CC030CFB03F307EE903A80
:10146000F8EE677A14F47C7F00F09380012965D050
:10147000022900F09180E1B107EE100AF8EE476A08
:101480009FED596A86EE267A544B1B6BC3F3080313
:1014900006EE903AF8EE666A9FED546A67EE867A39
:1014A00076EEA77AF7EE006A77EEA67A27EE277A2D
:1014B00060E0136813F0200F23D011461268C2F3C6
:1014C000C102484BD34007EE103AF8EE476A07EEE8
:1014D000100AB8EE476A86EE867A0B6BC3F30803F0
:1014E00006EE903AF8EE666A9FED406A67EE867AFD
:1014F00076EEA77AF7EE006A77EEA67A27EE277ADD
:1015000038E007EE100AF8EE476A9FED396A86EE7A
:10151000267A324B1B6BC3F3080306EE903AF8EEC3
:10152000666A9FED326A67EE867A76EEA77AF7EE04
:10153000006A77EEA67A27EE277A1BE007EE100AFC
:10154000F8EE476A9FED286A86EE267A234B1B6BDE
:10155000C3F3080306EE903AF8EE666A9FED236A3D
:1015600067EE867A76EEA77AF7EE006A77EEA67ACD
:1015700027EE277A194B1B6BC3F34623013307EE83
:10158000903AF8EE677AC7EE276AFCEEE67A17EE35
:10159000900A5DF8044B704707EE100AF8EE476AB0
:1015A0009FED146A86EE267A0C4B1B6BC3F308037F
:1015B00006EE903AF8EE666A9FED0C6A67EE867A60
:1015C00076EEA77AF7EE006A77EEA67A27EE277A0C
:1015D000D0E7094870470348704700BF00440258ED
:1015E00000093D000090D0030024744A0000003937
:1015F0000024744C20BCBE4B40787D01002800F0D4
:10160000328170B50D4604469B4B1B6803F00F03F7
:101610008B420BD2984A136823F00F030B431360DD
:10162000136803F00F038B4240F01F81236813F00F
:10163000040F0CD02269914B9B6903F070039A420E
:1016400005D98E498B6923F070031A438A61236898
:1016500013F0080F0CD06269884BDB6903F070034C
:101660009A4205D98549CB6923F070031A43CA61B0
:10167000236813F0100F0CD0A269804BDB6903F4D0
:10168000E0639A4205D97D49CB6923F4E0631A43AC
:10169000CA61236813F0200F0CD0E269774B1B6AF4
:1016A00003F070039A4205D974490B6A23F0700362
:1016B0001A430A62236813F0020F0CD0E2686F4BE2
:1016C0009B6903F00F039A4205D96C498B6923F09B
:1016D0000F031A438A61236813F0010F41D0674A50
:1016E000936923F47063A1680B4393616368022BD1
:1016F0000AD0032B27D0012B2CD0604A126812F09D
:10170000040F06D10120ADE0126812F4003F00F092
:10171000AE805A490A6922F0070213430B6101F0B7
:10172000D3FD0646554B1B6903F038036268B3EBE3
:10173000C20F16D001F0C8FD801B41F288339842D9
:10174000F0D903208EE04D4A126812F0007FE0D1FC
:10175000012087E0494A126812F4807FD9D1012024
:1017600080E0236813F0020F0CD0E268434B9B69C2
:1017700003F00F039A4205D240498B6923F00F030F
:101780001A438A613C4B1B6803F00F03AB420AD932
:10179000394A136823F00F032B431360136803F0D7
:1017A0000F03AB4265D1236813F0040F0CD02269FC
:1017B000324B9B6903F070039A4205D22F498B6923
:1017C00023F070031A438A61236813F0080F0CD0CA
:1017D00062692A4BDB6903F070039A4205D22749FC
:1017E000CB6923F070031A43CA61236813F0100F0A
:1017F0000CD0A269214BDB6903F4E0639A4205D265
:101800001E49CB6923F4E0631A43CA61236813F0CD
:10181000200F0CD0E269194B1B6A03F070039A4247
:1018200005D216490B6A23F070031A430A62FFF7C8
:10183000EBFD12498B69C3F30323114AD35C03F018
:101840001F03D8408B6903F00F03D35C03F01F0321
:1018500020FA03F30B4A13600B4B18600B4B18680C
:1018600001F0D0FC70BD012070470120FAE7012093
:10187000F8E70120F6E700BF0020005200440258BC
:10188000D45F00080C0000200800002004000020A5
:1018900008B5FFF7B9FD0B4A9369C3F303230A495F
:1018A000CB5C03F01F0320FA03F3926902F00F02EE
:1018B000885C00F01F0023FA00F0044A1060044A1C
:1018C000136008BD00440258D45F00080C000020DB
:1018D0000800002008B5FFF7DBFF054BDB69C3F309
:1018E0000213044AD35C03F01F03D84008BD00BFB5
:1018F00000440258D45F000808B5FFF7C9FF054B44
:10190000DB69C3F30223044AD35C03F01F03D8400E
:1019100008BD00BF00440258D45F0008404B9B6ADA
:1019200003F00303032B79D070B505460E463C4AFD
:10193000136823F08063136001F0C6FC0446384B43
:101940001B6813F0006F06D001F0BEFC031B022BD6
:10195000F5D9032070BD324B9A6A22F47C32296893
:1019600042EA01329A626A68013AC2F30802A9683F
:101970000139490289B20A43E9680139090401F4CD
:10198000FE010A4329690139090601F0FE410A43B3
:101990009A63DA6A22F0C00269690A43DA62DA6A93
:1019A00022F02002A9690A43DA62DA6A22F0100200
:1019B000DA62D96B1B4A0A40E96942EAC102DA637A
:1019C000DA6A42F01002DA62C6B91A46DB6A43F4F8
:1019D0000023D362124A136843F08063136001F05E
:1019E00073FC04460E4B1B6813F0006F14D101F01A
:1019F0006BFC001B0228F5D90320ABE7012E05D0B4
:101A0000074AD36A43F40013D362E3E7044AD36A74
:101A100043F48013D362DDE700209BE70120704789
:101A2000004402580700FFFF404B9B6A03F003038A
:101A3000032B79D070B505460E463C4A136823F057
:101A40008053136001F040FC0446384B1B6813F0D0
:101A5000005F06D001F038FC031B022BF5D90320F0
:101A600070BD324B9A6A22F07C72296842EA0152B8
:101A70009A626A68013AC2F30802A9680139490208
:101A800089B20A43E9680139090401F4FE010A43F5
:101A900029690139090601F0FE410A431A64DA6A2C
:101AA00022F4406269690A43DA62DA6A22F4007257
:101AB000A9690A43DA62DA6A22F48072DA62596C3E
:101AC0001B4A0A40E96942EAC1025A64DA6A42F4EE
:101AD0008072DA62C6B91A46DB6A43F48003D362C5
:101AE000124A136843F08053136001F0EDFB044683
:101AF0000E4B1B6813F0005F14D101F0E5FB001BD7
:101B00000228F5D90320ABE7012E05D0074AD36A96
:101B100043F08073D362E3E7044AD36A43F40003DB
:101B2000D362DDE700209BE70120704700440258A4
:101B30000700FFFFF8B50446036813F0006F30D0CC
:101B4000836EB3F5001F26D00ED8EBB1B3F5801F1E
:101B500007D102210830FFF7E1FE054645B12E46C8
:101B600021E0012635461EE0B3F5401F09D10025CE
:101B7000984A136D23F44013A16E0B43136500269E
:101B800011E0012635460EE0924AD36A43F4003351
:101B9000D3620025ECE702212830FFF745FF054618
:101BA000DCE700263546236813F4807F14D0A36D4C
:101BB000042B32D8DFE803F003232A080800854A03
:101BC000D36A43F40033D36255BB824A136D23F0CA
:101BD0000703A16D0B431365236813F4007F31D015
:101BE000E36D802B4CD020D8002B43D0402B19D153
:101BF000002104F10800FFF791FE05461AE00021DC
:101C000004F10800FFF78AFE0546DDE7002104F134
:101C10002800FFF709FF0546D6E701263546DBE732
:101C20002E46D9E7012635460CE0C02B02D0B3F58D
:101C3000807F1CD15DBB674A136D23F4E073E16DB7
:101C40000B431365236813F4806F46D0D4F8A83093
:101C5000B3F5800F39D01FD88BB3B3F5001F18D15F
:101C6000002104F10800FFF759FE05461AE001269D
:101C70003546E7E7574AD36A43F40033D362D9E7DE
:101C8000002104F12800FFF7CFFE0546D2E72E46DB
:101C9000D8E70126354620E0B3F5C00F02D0B3F5F2
:101CA000000F09D1C5B94B4A936D23F46003D4F8F2
:101CB000A8100B43936510E0012635460DE0454A18
:101CC000D36A43F40033D362ECE7002104F1280027
:101CD000FFF7AAFE0546E5E72E46236813F4006FDA
:101CE00024D0D4F8AC30B3F1007F42D00ED8002B12
:101CF00039D0B3F1807F06D1002104F10800FFF74D
:101D00000DFE054608E0012635460FE0B3F1407FA1
:101D100002D0B3F1806F23D1002D31D12D4A936DC4
:101D200023F0E063D4F8AC100B439365236813F001
:101D3000007F2ED0E36C202B40D026D833B1102B5F
:101D400020D1244AD36A43F40033D362002D3CD11E
:101D5000204AD36C23F03003E16C0B43D36418E0CA
:101D600001263546E2E71B4AD36A43F40033D362C7
:101D7000D2E7002104F12800FFF756FE0546CBE725
:101D80002E46D3E70126354603E0302BDED0012670
:101D90003546236813F4805F2DD0236EB3F5005FC2
:101DA0004FD019D8002B46D0B3F5805F0FD100215A
:101DB00004F10800FFF7B2FD054613E0022104F12B
:101DC0000800FFF7ABFD0546C0E72E46E1E7012618
:101DD000354610E000440258B3F5405F02D0B3F539
:101DE000804F25D1002D33D1774A136D23F4E04382
:101DF000216E0B431365236813F4005F38D0636EC4
:101E0000B3F5003F53D028D843B1B3F5803F21D17B
:101E1000012104F10800FFF781FD0546002D4DD199
:101E2000694A136D23F4E023616E0B4313651FE0D1
:101E300001263546DFE7644AD36A43F40033D362B0
:101E4000D0E7002104F12800FFF7EEFD0546C9E7C1
:101E50002E46D0E7012635460AE0B3F5802FDDD0C7
:101E6000B3F5A02FDAD0B3F5403FD7D001263546E1
:101E7000236813F4804F31D0D4F8B030B3F1005F51
:101E800045D020D843B1B3F1805F19D1012104F1CD
:101E90000800FFF743FD0546002D3FD14A4A936DE8
:101EA00023F0E043D4F8B0100B43936516E0012112
:101EB00004F12800FFF7B8FD0546AFE72E46D7E747
:101EC000012635460AE0B3F1804FE5D0B3F1A04FCB
:101ED000E2D0B3F1405FDFD001263546236813F42A
:101EE000004F09D0236FB3F1805F19D0B3F1005FC9
:101EF00024D0D3B101263546236813F0807F33D038
:101F0000A36C032B5BD8DFE803F0272253270121C2
:101F100004F12800FFF788FD0546BDE72E46DDE702
:101F2000294AD36A43F40033D36275B9264A136D44
:101F300023F04053216F0B431365DDE7012104F1CA
:101F40000800FFF7EBFC0546EFE72E46D4E71E4AF4
:101F5000D36A43F40033D362A5BB1B4AD36C23F08E
:101F60000303A16C0B43D364236813F4800F2DD1BA
:101F7000236813F0010F00F0A580E36F282B00F217
:101F80009F80DFE803F08D9D9D9D9D9D9D9D879D7C
:101F90009D9D9D9D9D9D969D9D9D9D9D9D9D8D9D88
:101FA0009D9D9D9D9D9D8D9D9D9D9D9D9D9D8D001E
:101FB000022104F10800FFF7B1FC0546CCE7012639
:101FC0003546D1E72E46CFE700440258914A1368C0
:101FD00043F48073136001F077F907468D4B1B685B
:101FE00013F4807F05D101F06FF9C01B6428F5D987
:101FF0000325002D4AD1884B1B6FD4F8B4205340E1
:1020000013F4407F0CD0844B1A6F22F44072196F86
:1020100041F480311967196F21F4803119671A670B
:10202000D4F8B430B3F5807F15D08DBBD4F8B4307C
:1020300003F44072B2F5407F1ED0774A136923F44F
:102040007C53136174490B6FD4F8B420C2F30B02B4
:1020500013430B678CE701F037F907466E4B1B6F94
:1020600013F0020FE1D101F02FF9C01B41F28833C8
:102070009842F3D90325D8E76748026922F47C52D5
:10208000664901EA131313430361DBE72E466FE74A
:102090002E466DE7012104F10800FFF73FFC0546DD
:1020A000E5B95D4A536D23F03803E16F0B43536587
:1020B00008E0012104F12800FFF7B6FC0546EFE730
:1020C00001263546236813F0020F17D0A36F052BA6
:1020D00028D8DFE803F00B05200B0B0B2E46F1E7A9
:1020E000012104F10800FFF719FC0546EDB94A4A41
:1020F000536D23F00703A16F0B435365236813F05F
:10210000040F23D0D4F89430052B45D8DFE803F032
:10211000150F3D151515012104F12800FFF784FC6A
:102120000546E3E701263546E8E72E46E6E70121C6
:1021300004F10800FFF7F2FB054685BB364A936DB4
:1021400023F00703D4F894100B439365236813F02E
:10215000200F34D0D4F89030B3F1005F4ED023D8A4
:1021600043B1B3F1805F1CD1002104F10800FFF7F7
:10217000D5FB0546002D48D1274A536D23F0E04397
:10218000D4F890100B43536519E0012104F12800A5
:10219000FFF74AFC0546D0E701263546D6E72E462E
:1021A000D4E7012635460AE0B3F1804FE2D0B3F11F
:1021B000A04FDFD0B3F1405FDCD001263546236865
:1021C00013F0400F37D0D4F89C30B3F5006F53D0E4
:1021D00026D843B1B3F5806F19D1002104F108006E
:1021E000FFF79CFB0546002D4DD10B4A936D23F460
:1021F000E053D4F89C100B4393651CE0022104F1DA
:102200002800FFF711FC0546B4E72E46D7E7012664
:10221000354610E00048025800440258CFFFFF0046
:10222000B3F5805FDFD0B3F5A05FDCD0B3F5406FCE
:10223000D9D001263546236813F0800F33D0D4F867
:10224000A030B3F5804F00F0A38021D843B1B3F59F
:10225000005F1AD1002104F10800FFF75FFB05467B
:10226000002D40F09C80814A936D23F46043D4F8A4
:10227000A0100B43936516E0022104F12800FFF73C
:10228000D3FB0546AFE72E46D5E7012635460AE0E3
:10229000B3F5004FE4D0B3F5204FE1D0B3F5C04F14
:1022A000DED001263546236813F0080F0CD0D4F891
:1022B0008430B3F5805F74D06C4A536D23F440537F
:1022C000D4F884100B435365236813F0100F0CD01F
:1022D000D4F89830B3F5807F6CD0644A936D23F4C2
:1022E0004073D4F898100B439365236813F4002FC0
:1022F0000BD0D4F8A430B3F5803F74D0B3F5003FD1
:1023000067D0002B5FD001263546236813F4802F59
:102310000CD0D4F88830B3F5001F7CD0B3F5401F43
:102320006FD0B3F5801F67D001263546236813F4BC
:10233000803F08D0236D002B76D0B3F5803F00F0AE
:10234000818001263546236813F0005F40F08380CA
:10235000236813F4003F00F08E80D4F88030B3F58A
:10236000807F00F0EC8040F28380B3F5007F03D0E3
:10237000B3F5407F40F0E180002D40F0E6803B4A1D
:10238000536D23F44073D4F880100B43536572E00F
:10239000022104F12800FFF747FB054660E72E46BF
:1023A00081E7022104F12800FFF73EFB002883D0DB
:1023B000012681E7022104F12800FFF735FB002800
:1023C0008BD0012689E7002104F10800FFF7A6FA67
:1023D00005467DB9254A936D23F44033D4F8A41003
:1023E0000B43936591E7022104F12800FFF71CFBE2
:1023F0000546EEE72E4688E71C4AD36A43F40033CD
:10240000D3627DB9194A536D23F44013D4F8881070
:102410000B4353658AE7012104F12800FFF704FB11
:102420000546EEE72E4681E7104AD36A43F40033AF
:10243000D36275B90D4AD36C23F48033216D0B43FD
:10244000D36480E7022104F10800FFF767FA05462C
:10245000EFE72E4677E7022104F12800FFF7E4FAC0
:1024600000283FF475AF012672E700BF0044025810
:10247000002B81D00126236813F4801F06D04F4A19
:10248000136D23F00043616F0B431365236813F052
:10249000805F07D0494A136923F48043D4F8B81009
:1024A0000B431361236813F4001F06D0434A136DD6
:1024B00023F08073E16E0B431365236813F0804FA4
:1024C00009D03E4B1A6922F400421A611A69D4F805
:1024D000BC100A431A612368002B06DA374AD36C12
:1024E00023F04053616D0B43D364236813F4000F52
:1024F00007D0324A536D23F44003D4F88C100B43B9
:102500005365636813F0010F21D1636813F0020F64
:1025100026D1636813F0040F2BD1636813F0080F02
:1025200030D1636813F0100F35D1636813F0200FBA
:102530003AD106B101263046F8BD01269BE71F4A75
:10254000D36A43F40033D36216E72E4693E70021A3
:1025500004F10800FFF7E2F90028D6D00646D4E7D8
:10256000012104F10800FFF7D9F90028D1D006466F
:10257000CFE7022104F10800FFF7D0F90028CCD002
:102580000646CAE7002104F12800FFF74DFA0028AB
:10259000C7D00646C5E7012104F12800FFF744FA39
:1025A0000028C2D00646C0E7022104F12800FFF748
:1025B0003BFA0028BDD00646BBE700BF00440258E6
:1025C00008B5FFF765F9054B1B6AC3F30213044A0C
:1025D000D35C03F01F03D84008BD00BF004402587D
:1025E000D45F000810B5774A916A946AC4F3053E37
:1025F000D36AC3F3001CD36BC3F3CC030CFB03F30C
:1026000014F47C3F00F0D88001F0030107EE903A0B
:10261000F8EE677A012965D0022900F0B080E1B1B7
:1026200007EE10EAB8EE477A9FED676AC6EE076AD2
:10263000644B9B6BC3F3080307EE103AB8EE477A7E
:102640009FED626A67EE867A77EE277AB7EE007AB8
:1026500077EE877A66EEA76A60E0136813F0200FC2
:1026600023D011461268C2F3C102594BD34007EE82
:10267000103AB8EE477A06EE90EAB8EE666AC7EE10
:10268000066A8B6BC3F3080307EE103AB8EE477A7D
:102690009FED4E6A67EE867A77EE277AB7EE007A7C
:1026A00077EE877A66EEA76A38E007EE10EAB8EEB2
:1026B000477A9FED486AC6EE076A424B9B6BC3F3AD
:1026C000080307EE103AB8EE477A9FED406A67EECE
:1026D000867A77EE277AB7EE007A77EE877A66EE1B
:1026E000A76A1BE007EE10EAB8EE477A9FED366A5C
:1026F000C6EE076A334B9B6BC3F3080307EE103A31
:10270000B8EE477A9FED316A67EE867A77EE277AE0
:10271000B7EE007A77EE877A66EEA76A294A936B5E
:10272000C3F3462307EE103AB8EE477AB7EE006AD5
:1027300037EE067AC6EE877AFCEEE77AC0ED007ACD
:10274000936BC3F3064307EE103AB8EE477A37EEC1
:10275000067AC6EE877AFCEEE77AC0ED017A936BD3
:10276000C3F3066307EE903AF8EE677A77EE867A5F
:1027700086EEA77ABCEEC77A80ED027A10BD07EE2E
:1027800010EAB8EE477A9FED146AC6EE076A0D4B61
:102790009B6BC3F3080307EE103AB8EE477A9FED40
:1027A0000B6A67EE867A77EE277AB7EE007A77EED5
:1027B000877A66EEA76AB1E700230360436083600F
:1027C000DCE700BF004402580024744A00000039CE
:1027D0000090D0030024744C20BCBE4B10B5774A47
:1027E000916A946AC4F3055ED36AC3F3002C536CF8
:1027F000C3F3CC030CFB03F314F07C7F00F0D88010
:1028000001F0030107EE903AF8EE677A012965D0EE
:10281000022900F0B080E1B107EE10EAB8EE477A85
:102820009FED676AC6EE076A644B1B6CC3F308032F
:1028300007EE103AB8EE477A9FED626A67EE867A45
:1028400077EE277AB7EE007A77EE877A66EEA76A98
:1028500060E0136813F0200F23D011461268C2F312
:10286000C102594BD34007EE103AB8EE477A06EE54
:1028700090EAB8EE666AC7EE066A0B6CC3F308030B
:1028800007EE103AB8EE477A9FED4E6A67EE867A09
:1028900077EE277AB7EE007A77EE877A66EEA76A48
:1028A00038E007EE10EAB8EE477A9FED486AC6EEC8
:1028B000076A424B1B6CC3F3080307EE103AB8EEED
:1028C000477A9FED406A67EE867A77EE277AB7EE11
:1028D000007A77EE877A66EEA76A1BE007EE10EAC9
:1028E000B8EE477A9FED366AC6EE076A334B1B6C2B
:1028F000C3F3080307EE103AB8EE477A9FED316A4A
:1029000067EE867A77EE277AB7EE007A77EE877AE7
:1029100066EEA76A294A136CC3F3462307EE103A02
:10292000B8EE477AB7EE006A37EE067AC6EE877AD7
:10293000FCEEE77AC0ED007A136CC3F3064307EEB2
:10294000103AB8EE477A37EE067AC6EE877AFCEE92
:10295000E77AC0ED017A136CC3F3066307EE903A91
:10296000F8EE677A77EE867A86EEA77ABCEEC77ABB
:1029700080ED027A10BD07EE10EAB8EE477A9FEDBF
:10298000146AC6EE076A0D4B1B6CC3F3080307EE0F
:10299000103AB8EE477A9FED0B6A67EE867A77EECB
:1029A000277AB7EE007A77EE877A66EEA76AB1E704
:1029B0000023036043608360DCE700BF00440258EB
:1029C0000024744A000000390090D0030024744CA5
:1029D00020BCBE4BF0B583B000236BE085685E0081
:1029E0000324B44025EA0405CC68B4402C43846039
:1029F000446824EA0C0C4C68C4F300149C4044EA7C
:102A00000C04446068E0DD08083550F8256003F0E8
:102A100007044FEA840C0F2404FA0CF426EA040E8F
:102A20000C6904FA0CF444EA0E0440F825406BE00B
:102A3000092400E0002404FA0EF42C430CF1020CEB
:102A4000694D45F82C404FF0B0442568D44325EA41
:102A500002064F6817F4801F01D042EA05064FF0C6
:102A6000B0452E606D6804EA05064F6817F4001F34
:102A700001D042EA05064FF0B0456E60D5F88450AB
:102A800004EA05064F6817F4003F01D042EA050644
:102A90004FF0B045C5F88460D5F880502C404E68A2
:102AA00016F4803F01D042EA05044FF0B042C2F86C
:102AB000804001330A6832FA03F400F092804FF04C
:102AC000010C0CFA03FC1CEA0202F2D04C6804F080
:102AD0000304013C012C81D94C6804F00304032C4D
:102AE0000CD0C4685D004FF0030C0CFA05FC24EA1E
:102AF0000C0C8C68AC4044EA0C04C4604C6804F0D4
:102B00000304022C3FF47FAF04684FEA430E4FF0FA
:102B1000030C0CFA0EFC24EA0C0C4C6804F00304C1
:102B200004FA0EF444EA0C0404604C6814F4403FC8
:102B3000BFD02E4CD4F8F45045F00205C4F8F45040
:102B4000D4F8F44004F002040194019C4FEA930C81
:102B50000CF10205244C54F8255003F003044FEA0D
:102B6000840E0F2404FA0EF425EA0405204CA0423A
:102B70003FF460AF04F58064A04222D004F5806485
:102B8000A04220D004F58064A0421ED004F58064E9
:102B9000A0421CD004F58064A0421AD004F58064E1
:102BA000A04218D004F58064A04216D004F58064D9
:102BB000A04214D004F58064A0423FF439AF0A2447
:102BC00039E7012437E7022435E7032433E70424F7
:102BD00031E705242FE706242DE707242BE70824F7
:102BE00029E703B0F0BD00BF0004005800440258BC
:102BF000000002580AB18161704709048161704781
:102C000070B5044600F060FB002C00F09181054691
:102C100094F83530DBB2022B06D0802363650023A5
:102C200084F83430012070BD23688C498C4A93426B
:102C300018BF8B4230D0183293422DD018329342B5
:102C40002AD01832934227D01832934224D0183217
:102C5000934221D0183293421ED002F5567293420D
:102C60001AD01832934217D01832934214D0183227
:102C7000934211D0183293420ED0183293420BD0A7
:102C80001832934208D01832934205D01A6822F0C5
:102C90000E021A60266809E01A6822F01E021A6005
:102CA0002268536923F080035361266823686B49C7
:102CB0006B4A934218BF8B4242D0183293423FD0A6
:102CC000183293423CD01832934239D01832934292
:102CD00036D01832934233D01832934230D002F5B6
:102CE000567293422CD01832934229D01832934214
:102CF00026D01832934223D01832934220D0183273
:102D000093421DD0183293421AD01832934217D0F2
:102D1000544A934214D01432934211D01432934245
:102D20000ED0143293420BD01432934208D0143296
:102D3000934205D01432934202D01432934204D10C
:102D4000226E136823F48073136023684349444A56
:102D5000934218BF8B422FD0183293422CD0183296
:102D6000934229D01832934226D01832934223D06E
:102D70001832934220D0183293421DD002F5567279
:102D8000934219D01832934216D01832934213D07E
:102D90001832934210D0183293420DD01832934219
:102DA0000AD01832934207D01832934204D01A68DE
:102DB00022F001021A6003E01A6822F001021A6090
:102DC000336813F0010F0ED000F07EFA431B052B81
:102DD000F6D920236365032384F83530002384F873
:102DE000343001201FE723681C491D4A934218BF55
:102DF0008B4239D01832934236D01832934233D0B6
:102E00001832934230D0183293422DD01832934268
:102E10002AD01832934227D002F55672934223D01B
:102E20001832934220D0183293421DD01832934268
:102E30001AD01832934217D01832934214D0183255
:102E4000934211D0183293420ED0A16DE36D03F07E
:102E50001F02012393404B600DE000BF10000240B1
:102E60002800024008540258A16DE36D03F01F02D0
:102E70003F2393408B6023682E492F4A934218BF0B
:102E80008B4242D0183293423FD0183293423CD00A
:102E90001832934239D01832934236D018329342C6
:102EA00033D01832934230D002F5567293422CD070
:102EB0001832934229D01832934226D018329342C6
:102EC00023D01832934220D0183293421DD01832AA
:102ED00093421AD01832934217D0184A934214D012
:102EE0001432934211D0143293420ED014329342D2
:102EF0000BD01432934208D01432934205D01432CE
:102F0000934202D0143293420BD1636EA26E5A6088
:102F1000E36E33B11A6822F480721A60236F626F15
:102F20005A60012384F83530002084F834007AE6B2
:102F3000012078E6100002402800024008540258A0
:102F4000002800F0298108B5024690F83530DBB240
:102F5000022B03D080234365012008BD03689048FD
:102F600090498B4218BF83420CBF0121002166D0DB
:102F70003030834263D01830834260D018308342AF
:102F80005DD0183083425AD01830834257D0183061
:102F9000834254D000F55670834250D0183083429B
:102FA0004DD0183083424AD01830834247D0183071
:102FB000834244D01830834241D0183083423ED0FF
:102FC000183083423BD0196821F00E011960136854
:102FD000A0F5956073498B4218BF83426AD072494D
:102FE0008B4267D018318B4264D018318B4261D04C
:102FF00018318B425ED018318B425BD018318B4236
:1030000058D001F556718B4254D018318B4251D0B3
:1030100018318B424ED018318B424BD018318B4235
:1030200048D018318B4245D018318B4242D01831EC
:103030008B423FD0196821F0010119603EE0042065
:1030400082F8350081BB584A93422DD01832934202
:103050002AD01832934227D01832934224D0183203
:10306000934221D0183293421ED002F556729342F9
:103070001AD01832934217D01832934214D0183213
:10308000934211D0183293420ED0183293420BD093
:103090001832934208D01832934205D01A6822F0B1
:1030A00001021A60002058E71A6822F001021A6033
:1030B000002052E7196821F00101196013683848AF
:1030C00038498B4218BF834242D018318B423FD0DF
:1030D00018318B423CD018318B4239D018318B4299
:1030E00036D018318B4233D018318B4230D001F5B5
:1030F00056718B422CD018318B4229D018318B421B
:1031000026D018318B4223D018318B4220D0183171
:103110008B421DD018318B421AD018318B4217D0F8
:1031200022498B4214D014318B4211D014318B427E
:103130000ED014318B420BD014318B4208D0143195
:103140008B4205D014318B4202D014318B4217D1FF
:10315000116E0B6823F480730B60906DD36D03F0D8
:103160001F0101238B404360536E916E5960D36EF3
:1031700033B1196821F480711960136F516F596070
:10318000012382F83530002382F83430136D2BB1DF
:10319000104698470020E0E6012070470020DCE65A
:1031A000100002402800024040000240085402582B
:1031B000134BDB6813F0040F07D1114BDB6803F0EE
:1031C000070383421AD00120704710B50C4AD36818
:1031D00023F007031843D06000F076F80446084B4C
:1031E0005B6813F4005F07D100F06EF8001BB0F5C8
:1031F0007A7FF4D9012000E0002010BD0020704744
:1032000000480258104B1B780BB90120704710B5CD
:1032100004464FF47A70B0FBF3F30C4A1068B0FB2D
:10322000F3F0FDF739FD68B90F2C01D901200AE050
:10323000002221464FF0FF30FDF7EAFC044B1C60F2
:10324000002000E0012010BD000000200800002048
:103250000400002010B50320FDF7C8FCFEF7D4F8E9
:103260000F498B69C3F303230E4AD35C03F01F039A
:10327000D8408B6903F00F03D35C03F01F0320FADF
:1032800003F3094A1360094B18600F20FFF7BAFFD8
:1032900010B10124204610BD0446FDF7FFFBF9E7FD
:1032A00000440258D45F00080C00002008000020F1
:1032B000034B1B78034A11680B441360704700BF2F
:1032C000000000205C010020014B1868704700BF1F
:1032D0005C010020014B1868000C70470010005C76
:1032E000314AD2F8883043F47003C2F888302F4B4B
:1032F0001B6803F00F03062B06D82C4A136823F033
:103300000F0343F007031360294B1A6842F00102D0
:103310001A6000221A611968264A0A401A60234B73
:103320001B6813F0080F06D0204A136823F00F0320
:1033300043F0070313601E4B00229A61DA611A62A0
:103340001D4999621D49D9621D4919635A639963E0
:10335000DA6319645A64196821F4802119601A66C5
:10336000184B1A68184B1340B3F1005F03D2174B88
:103370000122C3F808210E4BD3F8D43013F4805F38
:1033800010D10B4BD3F8D42042F48052C3F8D42090
:103390000F4A43F2D2011160D3F8D42022F48052B4
:1033A000C3F8D420704700BF00ED00E000200052B9
:1033B000004402587FEDF6EA000202020000FF011D
:1033C000800201010010005C0000FFFF008000513E
:1033D00000400052054AD36843F00203D360034B18
:1033E0005B6813F4005FFAD0704700BF00480258D2
:1033F00000F1080343604FF0FF328260C360036155
:1034000000230360704700230361704743684B60EB
:103410009A688A60516099600861036801330360AB
:10342000704730B40D68B5F1FF3F11D000F10803CB
:103430001C465B681A68AA42FAD963684B609960B7
:103440008C606160086103680133036030BC7047C1
:103450000469F2E70369416882688A6041685160E3
:103460005A68824206D0002202611A68013A1A6044
:103470001868704782685A60F5E710B5044601F095
:10348000B9FCA26BE36B9A4204D0002401F0D4FC97
:10349000204610BD0124F9E710B5044601F0AAFC4E
:1034A000A36B23B9012401F0C7FC204610BD002402
:1034B000F9E770B504461546866B026C5AB9036885
:1034C0001BB100200136A66370BD806800F0E2FFEA
:1034D0000023A360F6E76DB9406802F041FD226C5D
:1034E000636813446360A268934219D323686360DE
:1034F0002846E7E7C06802F033FD226C5142E368DA
:103500009B1AE3602268934202D2A3680B44E360F3
:10351000022D01D00020D5E726B1013E0020D1E7E1
:103520002846CFE70020CDE70346026C6AB110B50C
:103530000846D9681144D9609C68A14201D3196832
:10354000D960D96802F00CFD10BD704738B505464A
:1035500001F050FC95F8454064B201E0013C64B2D2
:10356000002C0ADD6B6A43B105F1240000F0E8FE8F
:103570000028F3D000F078FFF0E7FF2385F845300E
:1035800001F05AFC01F036FC95F8444064B201E0C9
:10359000013C64B2002C0ADD2B6943B105F1100037
:1035A00000F0CEFE0028F3D000F05EFFF0E7FF232E
:1035B00085F8443001F040FC38BD38B5E0B10D4627
:1035C000044601F017FC2368E26B216C01FB02301A
:1035D000A0600020A0636360013A02FB0133E36056
:1035E000FF2384F8443084F84530FDB9236963B97A
:1035F00001F022FC012038BD4FF0500383F3118805
:10360000BFF36F8FBFF34F8FFEE704F1100000F0A0
:1036100097FE0028ECD04FF0E0234FF08052C3F823
:10362000042DBFF34F8FBFF36F8FE1E704F110005C
:10363000FFF7DEFE04F12400FFF7DAFED8E738B525
:103640001D46049C0B4649B92460E06323640121B4
:103650002046FFF7B2FF84F84C5038BD2260F4E7F3
:1036600040B94FF0500383F31188BFF36F8FBFF35E
:103670004F8FFEE710B584B01C4683B10B1E18BFF8
:103680000123002A08BF43F001038BB94FF0500318
:1036900083F31188BFF36F8FBFF34F8FFEE74FF0B7
:1036A000500383F31188BFF36F8FBFF34F8FFEE793
:1036B000B1FA81F35B09002A18BF43F0010343B953
:1036C0004FF0500383F31188BFF36F8FBFF34F8F19
:1036D000FEE750230393039B502B08D04FF0500379
:1036E00083F31188BFF36F8FBFF34F8FFEE7039B08
:1036F000012384F8463000949DF81830FFF79FFFAF
:10370000204604B010BDF0B585B0019288B10F46D7
:103710001D460446B1B1022D20D1E36B012B1DD013
:103720004FF0500383F31188BFF36F8FBFF34F8FB8
:10373000FEE74FF0500383F31188BFF36F8FBFF3A1
:103740004F8FFEE7036C002BE5D04FF0500383F35F
:103750001188BFF36F8FBFF34F8FFEE700F08AFE33
:10376000064658B9019B002B48D04FF0500383F315
:103770001188BFF36F8FBFF34F8FFEE700263DE048
:103780002A4639462046FFF794FE636A7BB948B162
:103790004FF0E0234FF08052C3F8042DBFF34F8F5A
:1037A000BFF36F8F01F048FB012005B0F0BD04F1BD
:1037B000240000F0C5FD0028F4D04FF0E0234FF0C6
:1037C0008052C3F8042DBFF34F8FBFF36F8FE9E72B
:1037D00001F032FB0020E8E702A800F0F7FD012627
:1037E00019E0002384F8443021E0002384F84530B8
:1037F00023E02046FFF7AAFE00F082FC01F0FAFA6F
:10380000A26BE36B9A42BBD3022DB9D0019B002B74
:10381000DED0002EE0D001F00FFB00F0D7FB01F06E
:10382000E9FA94F8442052B2B2F1FF3FD9D094F8AB
:10383000452052B2B2F1FF3FD7D001F0FDFA01A905
:1038400002A800F0CFFDD8B92046FFF716FE0028E9
:10385000CFD0019904F1100000F03EFD2046FFF7A3
:1038600075FE00F04DFC0028C8D14FF0E0234FF06A
:103870008052C3F8042DBFF34F8FBFF36F8FBDE7A6
:103880002046FFF763FE00F03BFC00208DE72DE9AA
:10389000F84390B10F4616461C460546B1B1022CBE
:1038A00020D1EB6B012B1DD04FF0500383F3118817
:1038B000BFF36F8FBFF34F8FFEE74FF0500383F3DB
:1038C0001188BFF36F8FBFF34F8FFEE7036C002BA0
:1038D000E5D04FF0500383F31188BFF36F8FBFF330
:1038E0004F8FFEE701F0ACFBEFF311894FF050036F
:1038F00083F31188BFF36F8FBFF34F8FAA6BEB6B0E
:103900009A4206D3022C04D0002089F31188BDE826
:10391000F88395F845804FFA88F8AB6B2246394614
:103920002846FFF7C6FDB8F1FF3F06D008F10103B6
:103930005BB285F845300120E7E76B6A0BB90120DF
:10394000E3E705F1240000F0FBFC18B126B10120EB
:103950003060DAE70120D8E70120D6E7F0B585B07E
:10396000019290B10F460446C1B100F083FD0646B6
:1039700000BB019B002B5ED04FF0500383F31188F6
:10398000BFF36F8FBFF34F8FFEE74FF0500383F30A
:103990001188BFF36F8FBFF34F8FFEE7036C002BCF
:1039A000E3D04FF0500383F31188BFF36F8FBFF361
:1039B0004F8FFEE700263EE039462046FFF7B4FD74
:1039C000013DA563236923B901F036FA012005B052
:1039D000F0BD04F1100000F0B3FC0028F4D04FF06B
:1039E000E0234FF08052C3F8042DBFF34F8FBFF395
:1039F0006F8FE9E701F020FA0020E8E702A800F065
:103A0000E5FC012621E0002384F8443029E000236E
:103A100084F845302BE02046FFF798FD00F070FB5E
:103A200009E02046FFF792FD00F06AFB2046FFF711
:103A300033FD00283FD101F0DDF9A56B002DBBD18E
:103A4000019B002BD6D0002ED8D001F0F5F900F064
:103A5000BDFA01F0CFF994F844305BB2B3F1FF3F07
:103A6000D1D094F845305BB2B3F1FF3FCFD001F035
:103A7000E3F901A902A800F0B5FC0028D1D1204645
:103A8000FFF70AFD0028C6D0019904F1240000F0D8
:103A900023FC2046FFF75AFD00F032FB0028CAD174
:103AA0004FF0E0234FF08052C3F8042DBFF34F8F47
:103AB000BFF36F8FBFE7002089E700000023072BCB
:103AC0000CD8074A52F833200AB10133F7E7044A09
:103AD00042F8331002EBC30358607047704700BFD1
:103AE0006001002070B504460D46164601F082F9CB
:103AF00094F844305BB2B3F1FF3F0DD094F84530F9
:103B00005BB2B3F1FF3F0BD001F096F9A36B5BB151
:103B10002046FFF71BFD70BD002384F84430EDE71D
:103B2000002384F84530EFE73246294604F12400AB
:103B300000F0EAFBECE70000084B1B681B6823B9A8
:103B4000074B4FF0FF321A607047044B1B68DB686D
:103B5000DB685A68024B1A60704700BFA40100205E
:103B60004C0600202DE9F04780460D461746994641
:103B7000089EDDF824A00A9C9200A521206B02F08B
:103B8000FDF9236B6FF040423A4403EB820727F0C4
:103B90000707B5B34FF0000CBCF10F0F0BD815F8A9
:103BA0000C2004EB0C0383F8342015F80C3013B10F
:103BB0000CF1010CF0E7002384F84330372E00D9D4
:103BC0003726E662E66400252565201DFFF71BFC0D
:103BD00004F11800FFF717FC2461C6F13806A6614E
:103BE0006462656584F858504A464146384601F09B
:103BF000D9F82060BAF1000F01D0CAF80040BDE842
:103C0000F087002384F83430D8E7000038B500246A
:103C100007E004EB840293000E481844FFF7E8FB2A
:103C20000134372CF5D90C4D2846FFF7E1FB0B4C3E
:103C30002046FFF7DDFB0A48FFF7DAFB0948FFF7EC
:103C4000D7FB0948FFF7D4FB084B1D60084B1C60ED
:103C500038BD00BFAC010020200600203406002043
:103C6000580600208406002070060020A4010020D1
:103C7000A801002010B5044601F0BCF8224A1368E0
:103C800001331360214B1B685BB1214B1B686BB97F
:103C90001E4B1B68DA6AE36A9A4207D81B4B1C600A
:103CA00004E01A4B1C601368012B29D0194A1368D1
:103CB000013313606364E06A174B1B68984201D9B3
:103CC000154B186000EB8000211D144B03EB8000A6
:103CD000FFF79CFB01F0B0F80D4B1B687BB10B4B61
:103CE0001B68DA6AE36A9A4209D24FF0E0234FF088
:103CF0008052C3F8042DBFF34F8FBFF36F8F10BDF9
:103D0000FFF784FFD2E700BF0C060020A0010020CF
:103D10006C060020180600201C060020AC010020C4
:103D200010B5044690F8593063B1012B11D0022B25
:103D30000ED04FF0500383F31188BFF36F8FBFF3A2
:103D40004F8FFEE7006B00F0B1FF204600F0AEFFA2
:103D500010BD00F0ABFFFBE70F4B1B68D3B110B5F4
:103D600001F048F80D4BDB68DC68201DFFF772FBA3
:103D70000B4A1368013B1360074A1368013B136049
:103D800001F05AF82046FFF7CBFF034B1B68002BCE
:103D9000E6D110BD704700BF100600208406002049
:103DA0000C06002008B5FFF7D7FF074B1B68012B57
:103DB000F9D94FF0E0234FF08052C3F8042DBFF340
:103DC0004F8FBFF36F8FEEE7AC01002070B5044654
:103DD0000D46194B1E68194B18680430FFF73AFB63
:103DE000B4F1FF3F14BF00230123002D08BF0023BF
:103DF0006BB93444114B1B685C60A6420ED9104B62
:103E000018680E4B19680431FFF70BFB70BD0B4BA4
:103E1000196804310B48FFF7F9FAF7E70A4B1868FD
:103E2000064B19680431FFF7FCFA084B1B68A342E4
:103E3000ECD9064B1C60E9E798060020A0010020A1
:103E4000A801002070060020A40100204C060020DC
:103E500030B587B00B9C7CB10C9DB5B15C25049549
:103E6000049D5C2D1AD04FF0500383F31188BFF3EB
:103E70006F8FBFF34F8FFEE74FF0500383F311882E
:103E8000BFF36F8FBFF34F8FFEE74FF0500383F305
:103E90001188BFF36F8FBFF34F8FFEE7049D0C9D1A
:103EA0002C63022485F8594000240394029505AC44
:103EB00001940A9C0094FFF755FE0C98FFF7DAFE78
:103EC000059807B030BD2DE9F04385B00746884618
:103ED00014461E46900000F06BFE00B381465C2045
:103EE00000F066FE0546B0B1C0F83090E5B10023A1
:103EF00085F85930039302950D9B01930C9B009319
:103F00003346224641463846FFF72CFE2846FFF747
:103F1000B1FE012005E0484600F0C8FEE6E74FF09C
:103F2000FF3005B0BDE8F0834FF0FF30F9E7000047
:103F300010B588B000240594069407AA06A905A820
:103F400000F0BAFD059B0293069B01930094234663
:103F5000079A18491848FFF77BFF184B186040B1C3
:103F600000F050FB012806D0B0F1FF3F18D008B098
:103F700010BD0020F6E74FF0500383F31188BFF324
:103F80006F8FBFF34F8F0E4B4FF0FF321A600D4B08
:103F900001221A600C4B00221A6000F0C5FFE6E710
:103FA0004FF0500383F31188BFF36F8FBFF34F8F30
:103FB000FEE700BFE45F0008A53D000848060020BA
:103FC0004C0600206C06002098060020024A136868
:103FD00001331360704700BF14060020014B1868BE
:103FE000704700BF98060020F8B53A4B1B68002BBD
:103FF00069D1394B1D6801351D60C5B9374B1B6848
:104000001B6843B14FF0500383F31188BFF36F8FE8
:10401000BFF34F8FFEE7314A1168314B18681060CB
:104020001960304A136801331360FFF785FD2E4B8A
:104030001B68AB423DD900272C4B1B68DB6A03EBA6
:1040400083039A002A4B9B58012B00D90127294B47
:104050001B68002B3CD001273AE001271F4B1B684F
:104060001B6843B31D4B1B68DB68DC6863689D42BB
:1040700026D3261D3046FFF7EDF9A36A1BB104F1E4
:104080001800FFF7E7F9E36A1B4A1268934201D967
:10409000194A136003EB83039A0031461448104415
:1040A000FFF7B4F9E26A114B1B68DB6A9A42D4D27B
:1040B000D4E70027D2E70C4B4FF0FF321A60BBE782
:1040C000094A1360B8E70D4A1368013313600027EB
:1040D0003846F8BD1406002098060020A4010020F0
:1040E000A8010020500600204C060020A00100205E
:1040F000AC0100209C0600201C0600205406002075
:1041000038B5354B1B6843B94FF0500383F3118822
:10411000BFF36F8FBFF34F8FFEE700F06BFE2E4BA8
:104120001A68013A1A601B68002B4FD12B4B1B6891
:104130000BB900244BE00024294B1B681BB3284B10
:10414000DB68DC6804F11800FFF784F9251D2846B8
:10415000FFF780F9E06A234B1B68984201D9214B95
:10416000186000EB800029461F4B03EB8000FFF72F
:104170004DF9E26A1D4B1B68DB6A9A42DCD31C4B8B
:1041800001221A60D8E70CB1FFF7D6FC194B1C6866
:1041900084B9174B1C68D4B14FF0E0234FF0805224
:1041A000C3F8042DBFF34F8FBFF36F8F01240EE0D0
:1041B000013C07D0FFF718FF0028F9D00C4B012273
:1041C0001A60F5E70B4B00221A60E2E7002400F0CA
:1041D00033FE204638BD00BF140600200C06002028
:1041E000580600201C060020AC010020A001002081
:1041F0009C0600205406002010B5A8B10446104BC0
:104200001B6843B14FF0500383F31188BFF36F8FE6
:10421000BFF34F8FFEE7FFF7D9FE00212046FFF7DF
:10422000D5FDFFF76DFF48B94FF0E0234FF0805206
:10423000C3F8042DBFF34F8FBFF36F8F10BD00BFC6
:10424000140600201F4B1B681BB11F4B01221A6074
:1042500070471D4B00221A601C4B1B6803EB830147
:104260008A001B498A585AB90BB1013BF6E74FF057
:10427000500383F31188BFF36F8FBFF34F8FFEE7B7
:1042800003EB830082000A4450684068506003EBEF
:10429000830C4FEA8C020832114488420BD003EBA6
:1042A000830291000A4A0A445268D168094A11609F
:1042B000064A13607047406862469100044A0A4407
:1042C0005060ECE7140600209C0600201C0600202D
:1042D000AC010020A001002058B110B50C46094ADD
:1042E00011681831FFF79DF801212046FFF76EFD98
:1042F00010BD4FF0500383F31188BFF36F8FBFF3EE
:104300004F8FFEE7A001002038B570B10D4614466E
:104310000A4A11681831FFF779F80CB14FF0FF35F0
:1043200021462846FFF752FD38BD4FF0500383F376
:104330001188BFF36F8FBFF34F8FFEE7A0010020FE
:1043400038B5C368DC6824B304F118052846FFF7C4
:1043500081F8184B1B682BBB251D2846FFF77AF800
:10436000E06A154B1B68984201D9134B186000EBAB
:1043700080002946114B03EB8000FFF747F8E26A03
:104380000F4B1B68DB6A9A4211D901200D4B186054
:1043900038BD4FF0500383F31188BFF36F8FBFF325
:1043A0004F8FFEE729460848FFF730F8E7E700207F
:1043B000EEE700BF140600201C060020AC01002020
:1043C000A00100209C06002058060020034B1B681B
:1043D0000360034B1B684360704700BF500600201A
:1043E00098060020F8B5C8B10C460546F9B100F0B2
:1043F00001FD1B4B19686B68C81A2268B2F1FF3FB8
:1044000026D0184E36682F68B74201D08B4224D987
:10441000824215D80023236001241AE04FF0500394
:1044200083F31188BFF36F8FBFF34F8FFEE74FF019
:10443000500383F31188BFF36F8FBFF34F8FFEE7F5
:104440005B1A134423602846FFF7C0FF002400E0F6
:10445000002400F0F1FC2046F8BD0124F9E700BF7C
:104460009806002050060020014B01221A60704778
:104470009C060020054B1B6833B1054B1B680BB134
:104480000020704702207047012070476C06002012
:104490001406002000283BD038B504461E4B1B688C
:1044A000834208D04FF0500383F31188BFF36F8F1E
:1044B000BFF34F8FFEE7036D43B94FF0500383F313
:1044C0001188BFF36F8FBFF34F8FFEE7013B03658A
:1044D000C16AC26C91421DD00BB1002038BD051DD0
:1044E0002846FEF7B7FFE06CE062C0F13803A36135
:1044F0000A4B1B68984201D9084B186000EB8000FA
:104500002946074B03EB8000FEF780FF0120E5E71B
:10451000002070470020E1E7A00100201C060020D9
:10452000AC010020064B1A6813682BB90123036005
:1045300023B9D368186870470023F8E70020704754
:10454000A006002008B54160006191420CD8D21A43
:1045500083699A4201D3012008BD011D0B4B1868E5
:10456000FEF75FFF0020F7E79A422CBF00220122EE
:10457000994238BF00220AB10120EDE7011D044B2A
:104580001868FEF74EFF0020E6E700BFA4060020F3
:10459000A006002030B583B000F02CFC114B1B6846
:1045A0001BB100F049FC03B030BD0F4D2846FEF7AB
:1045B0001FFF0E4C2046FEF71BFF0D4B1D600D4BE1
:1045C0001C60002300930C4B0C4A10210A20FFF7BB
:1045D00047F8044B18600028E3D00949FFF76EFA4A
:1045E000DFE700BFC4070020480700205C07002069
:1045F000A0060020A406002074070020A8060020C2
:10460000EC5F000810B588B0FFF7C4FF124B1B68C1
:10461000CBB100240594069407AA06A905A800F0CA
:1046200057FA059B0293069B0193022300932346AE
:10463000079A0A490A48FFF70BFC0A4B186010B1A9
:10464000012008B010BD4FF0500383F31188BFF371
:104650006F8FBFF34F8FFEE7C4070020F45F0008A1
:104660006D490008C8070020B8B19C4603461848A9
:10467000006858B300B585B00091019202930529F6
:104680001CDCFFF7F7FE022810D000231A4669460B
:104690000F480068FFF737F815E04FF0500383F339
:1046A0001188BFF36F8FBFF34F8FFEE70023069A89
:1046B000694607480068FFF726F804E000236246D1
:1046C0006946FFF7E4F805B05DF804FB0020704789
:1046D000C407002070B582B01B4B1B681A6862B318
:1046E000DB681E68DC68251D2846FEF7B3FE236ADA
:1046F0002046984794F8283013F0040FECD0A369B3
:1047000033449E4207D26360246129460E4B1868E9
:10471000FEF787FEE0E7002100910B463246204677
:10472000FFF7A2FF0028D7D14FF0500383F3118881
:10473000BFF36F8FBFF34F8FFEE7044A1068024943
:104740000860136002B070BDA0060020A40600201F
:1047500038B50546FFF742FC0446074B1B68834209
:1047600005D800232B60044B1C60204638BDFFF7A2
:10477000B1FF01232B60F6E77007002070B582B00F
:1047800006460D4617490968C968CC68201DFEF722
:1047900061FE94F828C01CF0040F08D12CF0010C25
:1047A00084F828C0236A2046984702B070BDA169EA
:1047B00033462A4631442046FFF7C4FE0028F1D094
:1047C000002100910B4632462046FFF74DFF00289E
:1047D000E8D14FF0500383F31188BFF36F8FBFF31D
:1047E0004F8FFEE7A006002070B582B006460C464B
:1047F000FFF7ECFB01A8FFF7ABFF019B3BBB0546B6
:10480000B04228BF002C19D024B1134A1268126894
:10481000DAB901242246711B104B1868FFF762F9C0
:10482000FFF76EFCA8B94FF0E0234FF08052C3F8B9
:10483000042DBFF34F8FBFF36F8F0AE0FFF760FCCB
:1048400029463046FFF79AFF03E01C46E2E7FFF7F0
:1048500057FC02B070BD00BFA4060020C4070020B2
:1048600010B588B002E0049B002B0FDA002204A9E7
:104870003D4B1868FFF772F8002873D0049B002B9B
:10488000F1DA07990698059B9847ECE7069C63695F
:1048900013B1201DFEF7DEFD03A8FFF759FF049BAF
:1048A000092BE3D8DFE803F005050530375005058F
:1048B000303794F8283043F0010384F82830059B02
:1048C000A169024619442046FFF73CFE0028CDD0DE
:1048D000236A2046984794F8283013F0040FC5D077
:1048E000A269002100910B46059802442046FFF77B
:1048F000BBFE0028BAD14FF0500383F31188BFF3F9
:104900006F8FBFF34F8FFEE794F8283023F0010339
:1049100084F82830AAE794F8283043F0010384F89B
:1049200028300599A16131B1034602460144204671
:10493000FFF708FE9AE74FF0500383F31188BFF3A7
:104940006F8FBFF34F8FFEE794F8283013F0020FFC
:1049500004D023F0010384F8283087E7204600F0D4
:10496000A5F983E708B010BDC407002000B583B0E7
:1049700001A8FFF7D7FD0199FFF736FFFFF770FF9A
:10498000F6E70000EFF305832BB9064B186828B94A
:1049900001221A6070476FF0050070474FF0FF303A
:1049A000704700BF280A0020EFF3058373B90A4B54
:1049B0001B68012B0DD110B50024084BDC77064B8A
:1049C00002221A60FFF7B4FA204610BD6FF005000E
:1049D00070474FF0FF307047280A002000ED00E0DC
:1049E000F0B587B000240594EFF3058474BB68B379
:1049F00022B31568936903B918235C1E372C49D874
:104A0000546814F0010F47D156696EB14FEA960C05
:104A100094682CB1D7685B2F02D9176907B1C6B962
:104A20002CB14FF0FF340EE04FF0800CF0E7D4686B
:104A30008CB9146994B14FF0FF3404E0154600249A
:104A400018234FF0800C012C0AD0ACB1059807B0A8
:104A5000F0BD0124F7E74FF0FF34F4E70024F2E75C
:104A6000146992680292019400930B4662462946AB
:104A7000FFF7EEF90590E9E705AA019200930B46CE
:104A80001FFA8CF22946FFF71EFA0128DED0002318
:104A90000593DBE70020DAE70020D8E708B5EFF35D
:104AA000058333B908B9002008BDFFF7A5FB002036
:104AB000FAE76FF00500F7E7034B0360034B0B6069
:104AC00080231360704700BFCC090020CC07002072
:104AD000034B0360034B0B604FF48073136070470C
:104AE0002C0E00202C0A0020124A12F0070F1ED0B4
:104AF000D11D21F00701C1F5705313440A460E4839
:104B00000260002141601344083B23F007030B4877
:104B1000036059601960991A51601360084B19605D
:104B2000084B1960084B4FF000421A6070474FF471
:104B30007053E4E78C0E0020A04A0020880E00206D
:104B4000944A0020904A00208C4A0020164B1A46B6
:104B50001B688342FBD3516802EB010C844509D0EA
:104B6000416800EB010C634509D00360904219D005
:104B7000106070474068014451601046F0E710B47F
:104B80000A4C2468A3420BD05B6819444160136847
:104B90001B680360904200D010605DF8044B7047C2
:104BA0000460F7E7704700BFA04A0020880E00208D
:104BB00070B50546FFF70AFA364B1B68A3B1364BB2
:104BC0001B681D424ED135B1083515F0070F02D0D4
:104BD00025F007050835002D46D0304B1B68AB4249
:104BE00051D32F4A146804E0FFF77EFFE7E722461F
:104BF0001C466368AB4202D22368002BF7D1254BD9
:104C00001B68A34241D016680836236813606368A6
:104C10005B1B102B10D9601910F0070F08D04FF054
:104C2000500383F31188BFF36F8FBFF34F8FFEE7FD
:104C300043606560FFF78AFF626818490B689B1A3A
:104C40000B60184909688B4201D216490B60124B60
:104C50001B681343636000232360134A1368013306
:104C6000136002E0002600E00026FFF749FA16F084
:104C7000070F0CD04FF0500383F31188BFF36F8FF1
:104C8000BFF34F8FFEE70026EFE70026EDE7304643
:104C900070BD00BF880E00208C4A0020904A002082
:104CA000A04A0020944A0020984A0020002834D0CE
:104CB00038B50446A0F1080550F8043C174A1268BC
:104CC000134208D14FF0500383F31188BFF36F8F65
:104CD000BFF34F8FFEE750F8081C41B14FF050036F
:104CE00083F31188BFF36F8FBFF34F8FFEE723EA83
:104CF000020340F8043CFFF769F954F8041C084A21
:104D000013680B4413602846FFF720FF054A136819
:104D100001331360FFF7F4F938BD70478C4A002067
:104D2000904A00209C4A002082B0002301930D4B42
:104D30001B68B3F1FF3F08D04FF0500383F3118895
:104D4000BFF36F8FBFF34F8FFEE74FF0500383F336
:104D50001188BFF36F8FBFF34F8F019B002BFCD0E7
:104D600002B070471000002008480068006880F317
:104D700008884FF0000080F3148862B661B6BFF374
:104D80004F8FBFF36F8F00DF00BF000008ED00E022
:104D9000DFF80C00016841F4700101607047000009
:104DA00088ED00E04FF0807340F8043C21F00101F1
:104DB00040F8081C054B40F80C3C40F8202C6FF0E4
:104DC000020340F8243C4438704700BF294D0008D6
:104DD000074B19680868B0E8F04F80F30988BFF303
:104DE0006F8F4FF0000080F311887047AFF30080A1
:104DF000A00100204FF0500383F31188BFF36F8FA1
:104E0000BFF34F8F0B4A136801331360012B00D09F
:104E100070474FF0E023D3F8043D13F0FF0FF7D0B5
:104E20004FF0500383F31188BFF36F8FBFF34F8FA1
:104E3000FEE700BF10000020094B1B6843B94FF08C
:104E4000500383F31188BFF36F8FBFF34F8FFEE7DB
:104E5000013B034A13600BB983F31188704700BF0D
:104E60001000002000000000000000000000000012
:104E7000EFF30980BFF36F8F154B1A681EF0100F08
:104E800008BF20ED108A20E9F04F10602DE90900DD
:104E90004FF0500080F31188BFF34F8FBFF36F8F37
:104EA000FFF7D0F94FF0000080F3118809BC1968B2
:104EB0000868B0E8F04F1EF0100F08BFB0EC108A81
:104EC00080F30988BFF36F8F704700BFAFF3008096
:104ED000A001002008B54FF0500383F31188BFF301
:104EE0006F8FBFF34F8FFFF77FF828B14FF0E023AC
:104EF0004FF08052C3F8042D002383F3118808BDBE
:104F00004FF0E022002313619361054B1B680549B4
:104F1000A1FB03139B09013B5361072313617047F6
:104F200008000020D34D62104FF0E023D3F8002D8D
:104F30003D4B9A421CD04FF0E023D3F8002D3B4B61
:104F40009A421ED030B583B0394B1A78D2B2019252
:104F5000FF221A701B78DBB28DF803309DF8033006
:104F600003F05003334A1370334B07221A601BE0DF
:104F70004FF0500383F31188BFF36F8FBFF34F8F50
:104F8000FEE74FF0500383F31188BFF36F8FBFF339
:104F90004F8FFEE7284A1368013B13609DF80330EA
:104FA0005B00DBB28DF803309DF8033013F0800F07
:104FB000F0D1214B1B68032B08D04FF0500383F333
:104FC0001188BFF36F8FBFF34F8FFEE71B021A4AA2
:104FD000136003F4E0631360019BDBB2144A1370A7
:104FE0004FF0E024D4F8203D43F47003C4F8203D92
:104FF000D4F8203D43F07043C4F8203DFFF780FF14
:1050000000250E4B1D60FFF7C3FED4F8343F43F07C
:105010004043C4F8343FFFF7A7FEFFF713F9FFF74B
:1050200083FE284603B030BD71C20F4170C20F41EC
:1050300000E400E0A84A0020AC4A00201000002054
:10504000EFF305830F2B0FD9114A9B5CDBB2114A9A
:1050500012789A4208D94FF0500383F31188BFF3B6
:105060006F8FBFF34F8FFEE74FF0E023D3F80C3D77
:1050700003F4E063084A1268934208D94FF05003E2
:1050800083F31188BFF36F8FBFF34F8FFEE7704735
:10509000F0E300E0A84A0020AC4A0020026852E891
:1050A000003F23F4907342E800310029F6D10268F2
:1050B00002F1080353E8001F0D4B0B40083242E891
:1050C00000310029F3D1C36E012B06D02023C0F894
:1050D0008C300023C36643677047026852E8003F84
:1050E00023F0100342E800310029F6D1EEE700BFBB
:1050F000FEFFFFEF704708B5026852E8003F23F05B
:10510000400342E800310029F6D12023C0F888305E
:1051100000238367FFF7EEFF08BD704708B5806B7B
:105120000023A0F85E30FFF7F8FF08BD70470000CD
:1051300070B504460168CB6908688D6840F60F02B7
:105140001A4008D113F0200F05D010F0200F34D1F1
:1051500015F0805F31D12AB18B4A2A4033D18B4E72
:10516000304230D1E26E012A00F0C68013F4801F75
:1051700003D015F4800F40F0A98113F0800F07D001
:1051800010F0800F40F0A98115F4000F40F0A581C8
:1051900013F0400F03D010F0400F40F0A58113F43E
:1051A000000F03D010F0804F40F0A28113F0807FF9
:1051B00002D00028C0F2A08170BD636F002BFBD02D
:1051C00020469847F8E713F0010F09D010F4807FCC
:1051D00006D001260E62D4F890103143C4F8901026
:1051E00013F0020F0BD015F0010F08D02168022632
:1051F0000E62D4F8901041F00401C4F8901013F03E
:10520000040F0BD015F0010F08D0216804260E62A0
:10521000D4F8901041F00201C4F8901013F0080F78
:105220000BD010F0200F00D13AB122680821116292
:10523000D4F890200A43C4F8902013F4006F0CD0E7
:1052400010F0806F09D022684FF400611162D4F829
:10525000902042F02002C4F89020D4F89020002A38
:10526000AAD013F0200F09D010F0200F02D115F0B2
:10527000805F03D0636F0BB120469847D4F890202D
:1052800023689B6813F0400F02D112F0280F2CD036
:105290002046FFF703FF23689B6813F0400F20D0E0
:1052A000226802F1080353E8003F23F0400308326C
:1052B00042E800310029F3D1D4F880306BB1344A90
:1052C0001A65D4F88000FDF73BFE00283FF474AF68
:1052D000D4F88000036D98476EE72046FFF71DFF66
:1052E0006AE72046FFF719FF66E72046FFF715FF3C
:1052F0000023C4F890305FE713F0100F3FF436AF8F
:1053000010F0100F3FF432AF10230B6223689B683C
:1053100013F0400F00F0A080D4F8802013681D48DF
:105320001D498B4218BF834238D018318B4235D08B
:1053300018318B4232D018318B422FD018318B422A
:105340002CD018318B4229D018318B4226D001F550
:1053500056718B4222D018318B421FD018318B42AC
:105360001CD018318B4219D018318B4216D018310D
:105370008B4213D018318B4210D018318B420DD094
:105380005B689BB20CE000BF01000010200100042C
:105390001D51000810000240280002405B689BB2CB
:1053A000002B49D0B4F85C10994245D9A4F85E307E
:1053B000D369B3F5807F32D0226852E8003F23F4EE
:1053C000807342E800310029F6D1226802F1080317
:1053D00053E8003F23F00103083242E8003100297E
:1053E000F3D1226802F1080353E8003F23F04003A1
:1053F000083242E800310029F3D12023C4F88C3070
:105400000023E366226852E8003F23F0100342E8DD
:1054100000310029F6D1D4F88000FDF7F1FB02231A
:105420002367B4F85C10B4F85E309BB2C91A89B235
:105430002046FFF77BFEBFE6B4F85C1099427FF48C
:10544000BBAED369B3F5807F7FF4B6AE022323678A
:105450002046FFF76BFEAFE6B4F85C10B4F85E30A0
:105460009BB2C91A89B2B4F85E309BB2002B3FF4EC
:10547000A3AE00293FF4A0AE226852E8003F23F417
:10548000907342E800300028F6D1226802F1080348
:1054900053E8000F1A4B0340083242E8003000285E
:1054A000F3D12023C4F88C300023E36663672268BD
:1054B00052E8003F23F0100342E800300028F6D104
:1054C000022323672046FFF731FE75E64FF4801371
:1054D0000B62204600F088FC6EE6A36F002B3FF4C1
:1054E0006BAE2046984767E62046FFF704FE63E66A
:1054F000204600F07BFC5FE6204600F076FC5BE691
:10550000FEFFFFEF70B586B004460168836802694C
:10551000134342691343C26913430868884A02402F
:1055200013430B602268536823F44053E1680B4334
:105530005360A1692268834B9A4201D0236A1943C0
:105540009068814B03400B4393602268D36A23F039
:105550000F03616A0B43D36222687C4B9A4221D0CD
:105560007B4B9A4200F08C807A4B9A4200F0A280EA
:10557000794B9A4200F0B580784B9A4200F0C8808F
:10558000774B9A4200F0F480764B9A4200F01981F2
:10559000754B9A4200F02C816A4B9A4200F03F8191
:1055A000802333E0714B5B6D03F03803282B65D803
:1055B000DFE813F029006400640064006400640004
:1055C000640064004D0164006400640064006400D1
:1055D000640064002B0064006400640064006400E4
:1055E000640064005E0064006400640064006400A1
:1055F000640064006000640064006400640064008F
:10560000640064006200012300E008234D498A42DF
:1056100000F02F81E069B0F5004F00F0AF81202B42
:1056200000F20782202B00F25182DFE813F01E0205
:1056300024024F024F0227024F024F024F022C0258
:105640004F024F024F024F024F024F024F023102F0
:105650004F024F024F024F024F024F024F024F02C2
:105660004F024F024F024F024F024F024F023D02C4
:105670001023CBE72023C9E74023C7E78023C5E7F2
:105680003A4B5B6D03F00703052B11D8DFE813F0ED
:105690000600E10008000A000C000E000023B5E738
:1056A0000823B3E71023B1E72023AFE74023ADE79A
:1056B0008023ABE72D4B5B6D03F00703052B0ED862
:1056C000DFE803F003C90507090B00239EE7082361
:1056D0009CE710239AE7202398E7402396E780234E
:1056E00094E7224B5B6D03F00703052B0ED8DFE830
:1056F00003F003B40507090B002387E7082385E7B8
:10570000102383E7202381E740237FE780237DE781
:10571000164B5B6D03F00703052B0ED8DFE803F093
:10572000039F0507090B002370E708236EE710238A
:105730006CE720236AE7402368E7802366E700BF21
:10574000F369FFCF000C0058FFF4FF110010014077
:105750000044004000480040004C00400050004021
:105760000014014000780040007C004000440258D2
:105770007D4B5B6D03F03803282B20D8DFE803F066
:10578000151F1F1F1F1F1F1F711F1F1F1F1F1F1FE1
:10579000171F1F1F1F1F1F1F191F1F1F1F1F1F1F27
:1057A0001B1F1F1F1F1F1F1F1D0001232EE7082384
:1057B0002CE710232AE7202328E7402326E780232D
:1057C00024E7694B5B6D03F00703052B0ED8DFE878
:1057D00003F0034A0507090B002317E7082315E721
:1057E000102313E7202311E740230FE780230DE761
:1057F0005D4B5B6D03F00703052B0ED8DFE803F06C
:1058000003350507090B002300E70823FEE61023F4
:10581000FCE62023FAE64023F8E68023F6E603F5CB
:105820000E339B6D03F00703052B0ED8DFE803F062
:10583000031F0507090B0223E8E60823E6E6102309
:10584000E4E62023E2E64023E0E68023DEE60423CC
:10585000DCE60423DAE60423D8E60423D6E60423B0
:10586000D4E60423D2E60423D0E60423CEE60423C0
:10587000CCE6202B27D8022BC0F01A81023B1E2B2E
:1058800000F21881DFE813F05000160156001601EF
:10589000160116015B00160116011601160116010C
:1058A00016011601600016011601160116011601F7
:1058B0001601160116011601160116011601160130
:1058C000160116016C00402B2CD14FF40040626A87
:1058D000264B33F81220B0FBF2F3656805EB450167
:1058E000994200F2E980B3EB053F00F2E780002621
:1058F00033463146FAF7F4FC090241EA106100022E
:105900006B08C0182A46334641F10001FAF7E8FC5B
:10591000A0F54072164B9A4200F2D2802368D860FC
:105920003046D4E00120D2E0FCF74AFE0028CED178
:105930000020CCE003A8FCF755FE0498F6E7684683
:10594000FCF74CFF0198F1E7074B1B6813F0200FA1
:1059500008D0054B1B68C3F3C1030648D840E5E7F0
:105960000548B4E70348B2E700440258FC5F00086A
:10597000FFFC0F000090D00300093D00202B15D83C
:10598000202B00F29F80DFE803F031379D9D3A9D88
:105990009D9D3F9D9D9D9D9D9D9D449D9D9D9D9DEE
:1059A0009D9D9D9D9D9D9D9D9D9D5000402B1BD12E
:1059B000626A4D4B33F81230B0FBF3F06268530863
:1059C00003EB4000B0FBF2F0A0F110024FF6EF73D2
:1059D0009A4279D883B223F00F03C0F342001843F0
:1059E0002368D860002072E0012070E0FBF772FFAE
:1059F0000028DDD100206AE0FBF77EFFF8E703A86E
:105A0000FCF7F0FD0498F3E76846FCF7E7FE019821
:105A1000EEE7364B1B6813F0200F08D0334B1B68A2
:105A2000C3F3C1033248D840E2E73248C0E7304808
:105A3000BEE7402B17D14FF40040626A2A4B33F87F
:105A40001230B0FBF3F0636800EB5300B0FBF3F0EF
:105A5000A0F110024FF6EF739A4242D8236880B249
:105A6000D860002033E0012031E0FBF733FF00284D
:105A7000E3D100202BE0FBF73FFFF8E703A8FCF79A
:105A8000B1FD0498F3E76846FCF7A8FE0198EEE73D
:105A9000164B1B6813F0200F08D0144B1B68C3F380
:105AA000C1031348D840E2E71248C6E71048C4E7EC
:105AB00001200CE001200AE0012008E0012006E0BE
:105AC000012004E0012002E0012000E00120012388
:105AD000A4F86A30A4F8683000236367A36706B0AF
