:020000040800F2
:10000000A008002465030008513F0008E13B0008F8
:10001000493F000869050008C94D000800000000BC
:10002000000000000000000000000000B1410008D6
:100030007105000800000000593F0008B9410008A0
:100040008303000883030008830300088303000878
:100050008303000883030008830300088303000868
:100060008303000883030008830300088303000858
:100070008303000883030008830300088303000848
:100080008303000883030008830300088303000838
:100090008303000883030008830300088303000828
:1000A0008303000883030008830300088303000818
:1000B0008303000883030008830300088303000808
:1000C00083030008830300088303000883030008F8
:1000D0008303000883030008B94D00088303000868
:1000E0008303000883030008000000008303000866
:1000F00083030008830300088303000883030008C8
:1001000083030008830300088303000883030008B7
:1001100083030008830300088303000883030008A7
:100120008303000883030008830300088303000897
:100130008303000883030008830300088303000887
:1001400000000000000000000000000000000000AF
:100150008303000883030008830300088303000867
:100160008303000883030008830300088303000857
:1001700083030008830300088303000800000000D5
:100180008303000883030008830300088303000837
:100190008303000883030008830300088303000827
:1001A0008303000883030008830300088303000817
:1001B0008303000883030008830300088303000807
:1001C00083030008830300088303000883030008F7
:1001D00083030008830300088303000883030008E7
:1001E00083030008830300088303000883030008D7
:1001F00083030008830300088303000883030008C7
:1002000083030008830300088303000883030008B6
:1002100083030008830300088303000883030008A6
:100220008303000883030008830300080000000024
:100230008303000883030008000000008303000814
:100240008303000883030008830300088303000876
:100250008303000883030008830300088303000866
:100260008303000883030008830300088303000856
:1002700083030008830300088303000800000000D4
:1002800083030008830300088303000800000000C4
:10029000000000008303000800F002F800F052F8AC
:1002A00014A696E8000CB244B344DA4501D100F03C
:1002B00049F8BAE80F000FA696E83000A5EB040550
:1002C00004EB0607AAEB0704A7F101074FEA15158F
:1002D0004FEA3414A4F10104AC4201D300F032F827
:1002E00013F0010F18BFFB1A43F0010300F001F8EF
:1002F000DBE71847CC520000EC520000103A24BF54
:1003000078C878C1FAD8520724BF30C830C144BF7A
:1003100004680C6070470000704700000023002450
:1003200000250026103A28BF78C1FBD8520728BF05
:1003300030C148BF0B6070471FB505F011F91FBDF4
:1003400010B510BD00F0D8F81146FFF7F5FF04F026
:100350003FFD00F0F6F803B4FFF7F2FF03BC00F036
:10036000F9F800000A4880470A4880470A480047D1
:10037000FEE7FEE7FEE7FEE7FEE7FEE7FEE7FEE755
:10038000FEE7FEE705480649064A074B70470000AE
:10039000890500088942000899020008A00200248B
:1003A000A0080024A0040024A004002453EA020CA6
:1003B00000F069802DE9F04B4FF00006002B1FBFC5
:1003C000B3FA83F503FA05F424FA05F65E4012BF8A
:1003D0001643B2FA82F502FA05F4C5F120051EBFF4
:1003E00022FA05FC44EA0C04203556EA044C4FEA94
:1003F000144418BF641C4FF000084FF000099042ED
:1004000071EB030C39D3002919BFB1FA81F701FA56
:1004100007F6B0FA80F700FA07F6C7F120071EBF0B
:1004200020FA07FC46EA0C062037B6FBF4FCA7EBE3
:100430000507103F07F01F0BCBF120062CFA06F63C
:100440000CFA0BFB44BFB3460026202FA4BF5E4628
:100450004FF0000B5BEA060C08BF4FF0010B19EBE5
:100460000B0948EB0608ABFB027C06FB02CC0BFB3E
:1004700003CCC01B71EB0C01C1E70B4602464146A1
:100480004846BDE8F08B13B5084318BF4FF0FF3066
:100490000146AFF30080BDE81C4070474FF00002FA
:1004A00000B5134694469646203922BFA0E80C506A
:1004B000A0E80C50B1F12001BFF4F7AF090728BF45
:1004C000A0E80C5048BF0CC05DF804EB890028BFC1
:1004D00040F8042B08BF704748BF20F8022B11F0EA
:1004E000804F18BF00F8012B704770477047704766
:1004F00000487047100000247546FFF7F9FFAE462C
:1005000005006946534620F00700854618B020B51F
:10051000FFF738FFBDE820404FF000064FF000071E
:100520004FF000084FF0000BAC46ACE8C009ACE857
:10053000C009ACE8C009ACE8C00921F007018D464C
:10054000704710B50446AFF300802046BDE8104068
:10055000FFF701BF01491820ABBEFEE726000200ED
:100560007047000000000000FEE7000000000000EF
:100570007047000000000000EFF3108072B600BF6B
:10058000FEE700000000000044F60400C5F602008B
:10059000816841F0020181600168890409D4016821
:1005A00089045CBF01685FEA814102D40168890463
:1005B000F2D57047000000002DE9F041044600F03C
:1005C000E3FC1CB3054694F83500022822D140F222
:1005D0000F472668C4F2020740F26F48BE426FF030
:1005E0000E00C4F202081DDC6F21C4F202018E422B
:1005F0002ADC3F21C4F202018E4241DC1021C4F208
:1006000002018E4263D028215CE000BF0120BDE8DA
:10061000F08100BF802060650120002184F8341043
:10062000BDE8F08146451BDC40F23F41C4F20201C7
:100630008E422DDC40F21041C4F202018E4246D0BF
:1006400040F228413EE000BF9F21C4F202018E42E9
:1006500028DC7021C4F202018E4238D0882131E0BA
:1006600040F29F41C4F202018E4223DC40F270410D
:10067000C4F202018E422AD040F2884122E000BF3B
:100680004021C4F202018E4221D058211AE000BF5D
:1006900040F24041C4F202018E4218D040F258416B
:1006A00010E000BFA021C4F202018E420FD0B82199
:1006B00008E000BF40F2B841C4F202018E4206D009
:1006C00040F2A041C4F202018E42314607D13146C8
:1006D000306820F01E0041F8140B6FF080000A68AB
:1006E000464500EA020008601ADC9F20C4F20200BE
:1006F000864233DC5720C4F2020086425ADC1020C6
:10070000C4F20200864200F097802820C4F2020062
:10071000864200F091804020C4F202008AE000BFCF
:1007200045F22F40C5F6020086422DDC40F2B7406C
:10073000C4F2020086424BDC40F27040C4F2020078
:10074000864279D040F28840C4F20200864273D0DB
:1007500040F2A040C4F202006CE000BF40F227402B
:10076000C4F20200864243DCA020C4F202008642AA
:1007700062D0B820C4F2020086425DD040F2104040
:10078000C4F2020056E000BF45F26B40C5F602001D
:1007900086423FDC45F23040C5F6020086424BD02F
:1007A00045F24440C5F60200864245D045F2584025
:1007B0003EE000BF5820C4F2020086423CD07020C8
:1007C000C4F20200864237D08820C4F2020031E031
:1007D00040F2B840C4F2020086422DD045F20840F3
:1007E000C5F60200864227D045F21C4020E000BF3B
:1007F00040F22840C4F2020086421DD040F2404040
:10080000C4F20200864217D040F25840C4F20200FF
:1008100010E000BF45F26C40C5F6020086420BD0E6
:1008200045F29440C5F60200864205D045F280406C
:10083000C5F60200864204D1206E016821F4807161
:100840000160306820F00100306000BF3068C007F0
:1008500010D000F099FB401B0628F7D320206065DC
:10086000032084F835000120002184F83410BDE80D
:10087000F08100BF20680821B8424FF03F0211DC30
:100880006F23C4F2020398421EDC3F23C4F202032A
:10089000984235DC1023C4F20203984257D0282333
:1008A00050E000BF40451BDC40F23F43C4F202036E
:1008B00098422DDC40F21043C4F20203984246D025
:1008C00040F228433EE000BF9F23C4F20203984257
:1008D00028DC7023C4F20203984238D0882331E028
:1008E00040F29F43C4F20203984223DC40F270437B
:1008F000C4F2020398422AD040F2884322E000BFAB
:100900004023C4F20203984221D058231AE000BFCA
:1009100040F24043C4F20203984218D040F25843D8
:1009200010E000BFA023C4F2020398420FD0B82306
:1009300008E000BF40F2A043C4F20203984206D090
:1009400040F2B843C4F20203984240F0C580D4E9B3
:10095000163707F01F07404502FA07F25A5019DC14
:100960009F21C4F20201884232DC5721C4F2020105
:10097000884259DC1021C4F20201884200F09680BE
:100980002821C4F20201884200F090804021C4F284
:10099000020189E045F22F41C5F6020188422DDCB3
:1009A00040F2B741C4F2020188424BDC40F2704190
:1009B000C4F20201884279D040F28841C4F20201B7
:1009C000884273D040F2A041C4F202016CE000BF43
:1009D00040F22741C4F20201884243DCA021C4F264
:1009E0000201884262D0B821C4F2020188425DD07F
:1009F00040F21041C4F2020156E000BF45F26B41E3
:100A0000C5F6020188423FDC45F23041C5F60201DD
:100A100088424BD045F24441C5F60201884245D098
:100A200045F258413EE000BF5821C4F2020188421D
:100A30003CD07021C4F20201884237D08821C4F230
:100A4000020131E040F2B841C4F2020188422DD0E7
:100A500045F20841C5F60201884227D045F21C4103
:100A600020E000BF40F22841C4F2020188421DD0BC
:100A700040F24041C4F20201884217D040F258418E
:100A8000C4F2020110E000BF45F26C41C5F602015C
:100A900088420BD045F29441C5F60201884205D048
:100AA00045F28041C5F6020188420BD1616EA26E0B
:100AB000E06E4A6030B1016821F480710160D4E9D0
:100AC0001C014160012084F835000020002184F8D9
:100AD0003410BDE8F08100BF0421012237E7000097
:100AE000F0B190F83510022918D180B540F20F42CC
:100AF0000168C4F20202914214DC6F23C4F20203C3
:100B0000994225DC3F23C4F2020399423CDC1023C6
:100B1000C4F2020399425DD0282357E08021416549
:100B20000120704740F26F43C4F2020399421BDC7C
:100B300040F23F43C4F2020399422DDC40F21043DD
:100B4000C4F20203994245D040F228433EE000BF80
:100B50009F23C4F20203994228DC7023C4F20203EB
:100B6000994237D0882331E040F29F43C4F2020318
:100B7000994223DC40F27043C4F20203994229D027
:100B800040F2884322E000BF4023C4F202039942AE
:100B900020D058231AE000BF40F24043C4F20203C1
:100BA000994217D040F2584310E000BFA023C4F28E
:100BB000020399420ED0B82308E000BF40F2B843C8
:100BC000C4F20203994205D040F2A043C4F20203EA
:100BD000994275D191424FF0040280F8352011DC22
:100BE0006F20C4F20200814222DC3F20C4F20200E6
:100BF000814239DC1020C4F20200814259D0282001
:100C000054E000BF40F26F40C4F2020081421BDC9E
:100C100040F23F40C4F2020081422DDC40F210401D
:100C2000C4F20200814244D040F228403EE000BFBE
:100C30009F20C4F20200814228DC7020C4F202002E
:100C4000814236D0882031E040F29F40C4F2020059
:100C5000814223DC40F27040C4F20200814228D07D
:100C600040F2884022E000BF4020C4F202008142EE
:100C70001FD058201AE000BF40F24040C4F20200EA
:100C8000814216D040F2584010E000BFA020C4F2CC
:100C9000020081420DD0B82008E000BF40F2B84009
:100CA000C4F20200814204D040F2A040C4F202002B
:100CB0008142086820F001000860002080BD00BF6C
:100CC0000A6822F00E020A6045F25742C5F6020297
:100CD00091420A6822F001020A600FDC45F22F42BD
:100CE000C5F60202914219DC45F20842C5F602023D
:100CF000914229D045F21C4222E000BF45F27F42DA
:100D0000C5F60202914213DC45F25842C5F60202D2
:100D1000914219D045F26C4212E000BF45F23042D8
:100D2000C5F6020291420FD045F2444208E000BFEE
:100D300045F29442C5F60202914205D045F2804246
:100D4000C5F6020291421AD1D0E9181CD0E916E387
:100D50000A6822F480720A6003F01F01012202FA7D
:100D600001F1CEF80410816ECCF80410C16E31B1DF
:100D70000A6822F480720A60D0E91C124A600121DC
:100D800080F83510016D0022002980F8342094D0BD
:100D90008847002080BD0000B0B5044600F0F4F89C
:100DA00040F200010546C2F20041621C097818BFFA
:100DB0000C4400BF00F0E8F8401BA042FAD3B0BDDD
:100DC0002DE9F04F83B00F68002F00F0C98000F1CB
:100DD000264642F2004506F1FF76C5F602050A22D4
:100DE000A8424FEAB62540F2040C08BF092200F1E0
:100DF00020030093092DC5F6000C38BF4FEAB62238
:100E0000002400264FF0000801920AE008F10108D2
:100E10000F6837FA08F206F1020604F1040400F044
:100E20009F80012202FA08FE17EA0E09EED0D1F8DF
:100E300004B003220BF00307B2407D1E6FEA020AE2
:100E4000012D11D88268CD6802EA0A02B5402A4312
:100E50008260CBF30015426822EA0E0205FA08F51B
:100E60002A43426004E000BF032F01D103271FE0A3
:100E7000C2688D6802EA0A02B540022F42EA050202
:100E8000C26015D16FF0030204F01C0502EA580B92
:100E9000009A0F2352F80BE0AB400F692EEA0303D0
:100EA000AF403B4342F80B30D1F804B00BF00307DE
:100EB000026807FA06F302EA0A021BF4403F42EA1C
:100EC00003020260A2D044F2F44340F2084EC5F699
:100ED0000203C5F6000E0F251A6842F002021A60DE
:100EE0001A6802F00202029228F00302029B04F048
:100EF0000C0352F80E709D40AF43019D05FA03F3B9
:100F00003B4342F80E304FF0B04EDEF800204B6805
:100F100042EA0907DD0258BF22EA09079D02CEF81E
:100F20000070DCF8002042EA090758BF22EA0907EE
:100F30009D03CCF80070DCF8802042EA090758BF16
:100F400022EA0907DB03CCF88070DCF87C2042EA57
:100F5000090758BF22EA0907CCF87C7056E700BFA2
:100F600003B0BDE8F08F0000002A08BF09048161CA
:100F7000704700000000000041F20000C5F600408C
:100F80000068000C7047000040F29C20C2F2004054
:100F9000006870470000000090F84120202A03D12B
:100FA00090F84020012A01D102207047242280F8C5
:100FB00041200268136823F001031360136823F4CF
:100FC00080531360136819431160116841F00101E7
:100FD0001160202180F84110002180F8401000208D
:100FE000704700000000000090F84120202A03D143
:100FF00090F84020012A01D102207047242280F875
:1010000041200268136823F001031360136823F47E
:10101000706343EA01211160116841F00101116020
:10102000202180F84110002180F8401000207047F6
:1010300010B310B590F8411031B9002180F840107C
:10104000044600F045FB2046242180F8411090E83A
:101050001210C3680A68012B22F001020A6024F012
:1010600070620A618A6822F400428A6006D14CF4F8
:1010700000428A600CE000BF01207047022B4CF454
:1010800004428A6004D14A6842F4006203E000BF6F
:101090004A6822F400624A6000F1100C4A6842F08B
:1010A000007242F400424A60CA6822F40042CA60F8
:1010B0009CE81C101A4342EA0422CA60026A42EA0F
:1010C0000C020A600A6842F001020A6000214164D1
:1010D000202280F84120016380F84210002010BDDA
:1010E0002DE9F04F83B000270297044690F84100A5
:1010F000202807D120688069000403D494F84000B8
:10110000012803D1022003B0BDE8F08F0F4642F260
:1011100000091D4690466FF39F27C0F2002903F196
:10112000010B4FF0100A012084F84000242084F8BD
:1011300041000020606411E0C1F81CA020210022C1
:1011400020462B46009602F0FFFD002866D002984C
:101150000130029002980298404571D2E0684946F9
:101160000128206818BF01F5006139434160FFF78D
:101170000BFF216806468A698B6902F0200203F0A2
:101180001003D21812D1BBF1000F23D0002D55D07F
:10119000FFF7FAFE801BA84252D8216888698A6945
:1011A00000F0200002F010028018F1D08869C0061B
:1011B000C2D42021002220462B46009602F0C4FD16
:1011C00080B3606C0428C2D120682021C161002056
:1011D0006064BCE788698A6900F0200002F01002B0
:1011E0008018E3D188698A6900F0200002F01002BB
:1011F000801801BF88698A6900F0200002F010029F
:1012000008BF10EB0200D1D188698A6900F0200084
:1012100002F010028018DDD0C8E700BF206820214E
:10122000C16194E720682021C161002084F8411049
:10123000002184F8401003B0BDE8F08FFFF7A4FE52
:10124000202084F84100606C40F0200060640120A0
:10125000002184F8401003B0BDE8F08F00000000CA
:101260002DE9F04F83B0044690F84100202807D1C3
:101270000C9F4FB10D9E3EB194F8400001280BD158
:10128000022003B0BDE8F08F4FF4007060640120CD
:1012900003B0BDE8F08F00BF9A4693468846012010
:1012A00084F84000FFF770FE216805468A69120441
:1012B00049D4222084F84100402084F842005FFA9B
:1012C0008AF04FF000096FF39F28C4F844906762DA
:1012D00048EA0040668549F60006C4F83490CFF627
:1012E00000464A68CDF808803240DDF83880104466
:1012F0002A4600F5005048602046414602F0D8FDDD
:10130000C0B9BAF1010F206809D04FEA1B218162F0
:10131000204641462A4602F0CBFD58B920685FFAC4
:101320008BF181624021002220464346009502F065
:101330000BFD48B384F84090012003B0BDE8F08F66
:1013400088690004B5D5192120462A4602F04CFCD4
:1013500000289CD1FFF718FE401B21681A28EFD304
:1013600088690004ECD5606C40F0200060642020A7
:1013700084F84100002084F8420084F840000120F5
:1013800003B0BDE8F08F00BF608D40F2000AC0F2EC
:10139000FF1AB0F5807F09D320680AF5105350F882
:1013A000041F01EA0602FF210AE000BF618D2068E8
:1013B000CAB250F8043F334043EA02420AF592337E
:1013C000029F1A4307F100794FF0FF0B06F5806684
:1013D0003A43026021850BE0608D21682085C0B210
:1013E0004A6849EA0040324010434860608DA8B323
:1013F0000421002220464346009502F0A5FC002867
:101400007FF445AF2068616A406A0870218D606A88
:1014100001306062481E2085618D01396185618DD2
:101420000029E3D00004E1D1802100222046434678
:10143000009502F089FC00287FF429AF608DB0F59B
:10144000807FC9D32168A4F828B0486800EA060262
:101450000298104340EA0A00C7E700BF2046414611
:101460002A4602F0E5FC00287FF411AF2068202115
:101470004EF60003C161CFF6006342681A40426035
:1014800084F84110002084F8420084F8400003B042
:10149000BDE8F08F000000002DE9F04F81B0044658
:1014A00090F84100202807D10A9F4FB10B9E3EB112
:1014B00094F8400001280BD1022001B0BDE8F08F64
:1014C0004FF400706064012001B0BDE8F08F00BFF0
:1014D0009A4691468B46012084F84000FFF754FD60
:1014E000216805468A6912044DD4212084F8410000
:1014F000402084F842005FFA8AF04FF000086FF352
:101500009F2BC4F8448067624BEA0040668549F629
:101510000046CFF60046C4F834804A68A6F58063DA
:101520001A405F461044DDF830B040F080702A4623
:1015300040F4005048602046594602F0B9FCC0B95A
:10154000BAF1010F206809D04FEA192181622046C3
:1015500059462A4602F0ACFC58B920685FFA89F176
:1015600081628021002220465B46009502F0ECFB60
:1015700050B384F84080012001B0BDE8F08F00BF77
:1015800088690004B1D5192120462A4602F02CFBB7
:10159000002898D1FFF7F8FC401B21681A28EFD3E8
:1015A00088690004ECD5606C40F020006064202065
:1015B00084F84100002084F8420084F840000120B3
:1015C00001B0BDE8F08F00BF608D40F20009C0F2AD
:1015D000FF19B0F5807F09D32068B4464B4650F818
:1015E000041F01EA0602FF210BE000BF618DB44633
:1015F0002068CAB250F8043F334043EA02424FF039
:1016000000731A4307F1007A4FF0FF0866463A4329
:10161000026021850CE000BF608D21682085C0B28A
:101620004A684AEA0040324010434860608D88B3FF
:10163000204659462A4602F03BFC00287FF443AF7F
:10164000606A216810F8012B8A626062608D01383F
:101650006085208D01382085618D0029E6D0000449
:10166000E4D18021002220465B46009502F06CFB0D
:1016700000287FF428AF608DB0F5807FCCD3206840
:10168000A4F8288041683140394341EA09014160AA
:10169000CCE700BF204659462A4602F0C9FB002885
:1016A0007FF411AF206820214EF60003C161CFF610
:1016B000006342681A40426084F84110002084F8B8
:1016C000420084F8400001B0BDE8F08F0000000047
:1016D000B0B5B8B0044602A80830B821002533954B
:1016E000CDE93655CDE93455FEF7D8FE45F2004137
:1016F0002068C4F20001884202D038B0B0BD00BFFB
:101700000820029002A8039500F0B2FA08B1FEF793
:1017100033FF44F2E04433A9C5F60204206840F0E8
:1017200002002060206800F00200019001984FF450
:1017300040703390122034900020CDE93500042011
:10174000379040F20040C5F60200FFF739FBA06871
:1017500040F40010A060A06800F40010019001980F
:1017600038B0B0BD0000000040F2000040F29C2103
:10177000C2F20040C2F2004100780A6810440860DA
:10178000704700000000000080B5032000F0FCF866
:1017900001F0AAF944F2184145F28653C5F6020158
:1017A000C0F600030A68C2F303229A5C096801F0DC
:1017B0000F0102F01F02595CD04040F20C02C2F24D
:1017C000004201F01F0120FA01F1116040F208010E
:1017D000C2F2004108600F2000F00AF800281CBF88
:1017E000012080BD00F07CF8002080BD00000000DA
:1017F000B0B540F20005C2F200452978F1B10446C7
:1018000040F20800C2F200404FF47A72B2FBF1F1EC
:101810000068B0FBF1F001F0AFFC0F2C01464FF077
:1018200001000AD8002918BFB0BD4FF0FF300022D8
:10183000214600F079F800206C60B0BD0120B0BDF9
:1018400010B54EF6A05E4378CEF2000E90F800C0C0
:101850004EF8083CDEF8003023F00103CEF80030EB
:1018600043684EF8043C037BC27A817A447B1206BB
:1018700042EA0372837B42EAC141C27B41EA84416E
:10188000447A41EA4341007A41EA024141EA0421B3
:1018900041EA400040EA0C00CEF8000010BD000014
:1018A0004EF62450CEF20000BFF35F8F016821F4A2
:1018B00080310160002101677047000000000000D6
:1018C0004EF6245140F00100CEF20001086708688E
:1018D00040F480300860BFF34F8FBFF36F8F7047C5
:1018E00081B044F2F440C5F60200016841F0020103
:1018F0000160006800F002000090009801B070479D
:10190000002848BF704700F01F01012202FA01F1D0
:101910004EF20012C0F34A10CEF2000242F820103C
:10192000704700000000000070B54EF60C5C4FF0F0
:10193000FF36CEF2000C00F1604505F56445DCF899
:101940000030C3F3022E8EF00703042B28BF0423BC
:10195000BEF1030406FA03F321EA030100F00F03CA
:1019600038BF0024043B0028634406FA04F048BF53
:1019700003F10C05A14022EA000008430001287091
:1019800070BD0000000000004EF60C514FF6FF0342
:10199000CEF200010A681A4060F30A2242F0806029
:1019A00040F0FD7008607047B0B544F60C05C5F610
:1019B000020529684907296806D401F00701081AB9
:1019C00018BF0120B0BD00BF21F007010843286007
:1019D000FFF7DAFA044600BF55F8080C800407D474
:1019E000FFF7D2FA001BB0F57A7FF5D90120B0BD20
:1019F0000020B0BD0000000080B500F0EDFF44F213
:101A0000204145F28652C5F60201C0F6000209687F
:101A1000C1F30211515C01F01F01C84080BD0000FC
:101A200080B544F2384EC5F6020E5EF8103C5EF802
:101A3000101C5EF80C2CC1F3053CDEF80410BCF160
:101A4000000F19D0C9089FED3C1AD20601EAE271D5
:101A500003F003026FF35F3100EE101AB8EE400A94
:101A6000DFE802F0022210225EF8381C89060DD44D
:101A70009FED331A18E000BF00218160C0E900111A
:101A800080BD00BF9FED2D1A0EE000BF5EF8381C30
:101A900049F20002C0F2D032C1F3C10122FA01F1D1
:101AA00001EE101AB8EE411ADEF800109FED253A4B
:101AB0006FF35F2102EE101ADEF80010C1F3462129
:101AC000B8EE422A013100EE032A00EE10CAB7EE4A
:101AD000003AB8EE400A81EE000A32EE031A20EE18
:101AE000010A01EE101AB8EE411A80EE011ABCEE9E
:101AF000C11A80ED001ADEF80010C1F30641013171
:101B000001EE101AB8EE411A80EE011ABCEEC11AAD
:101B100080ED011ADEF80010C1F30661013101EE1B
:101B2000101AB8EE411A80EE010ABCEEC00A10EE9F
:101B3000101A816080BD00BF0024744A20BCBE4BD7
:101B40000024744C0000003980B544F2404EC5F6C4
:101B5000020E5EF8183C5EF8181C5EF8142CC1F3F7
:101B6000055CDEF80410BCF1000F19D0C9089FED28
:101B70003C1AD20501EAE27103F003026FF35F3110
:101B800000EE101AB8EE400ADFE802F0022210223E
:101B90005EF8401C89060DD49FED331A18E000BF93
:101BA00000218160C0E9001180BD00BF9FED2D1AAA
:101BB0000EE000BF5EF8401C49F20002C0F2D032D5
:101BC000C1F3C10122FA01F101EE101AB8EE411A77
:101BD000DEF800109FED253A6FF35F2102EE101A38
:101BE000DEF80010C1F34621B8EE422A013100EEC2
:101BF000032A00EE10CAB7EE003AB8EE400A81EEB2
:101C0000000A32EE031A20EE010A01EE101AB8EEB5
:101C1000411A80EE011ABCEEC11A80ED001ADEF8FE
:101C20000010C1F30641013101EE101AB8EE411A5D
:101C300080EE011ABCEEC11A80ED011ADEF8001028
:101C4000C1F30661013101EE101AB8EE411A80EEBF
:101C5000010ABCEEC00A10EE101A816080BD00BF00
:101C60000024744A20BCBE4B0024744C0000003990
:101C70002DE9F0470446C07844F22C480007C5F629
:101C8000020828D5A06E4FEA305103292AD8DFE890
:101C900001F0030B131B00BFD8F8001041F4003112
:101CA000C8F8001010E000BF04F10800022102F0A3
:101CB00057F9064680B906E004F12800022102F037
:101CC000E3F9064640B9A06ED8F8241021F440117B
:101CD0000843C8F8240000266078C00706D13546BE
:101CE0002FE000BF01266078C007F8D0A06D04285F
:101CF00058D83546DFE800F004140E0B0B0000BF87
:101D0000D8F80000354640F40030C8F800002F46EF
:101D1000C5B90DE004F12800002102F0B5F904E096
:101D200004F10800002102F01BF905462F464DB9C9
:101D3000D8F82400A16D20F0070000250843C8F85A
:101D4000240037466078800731D5E06D4FEAB01047
:101D500004285FD8DFE800F004140E0A0A0000BF70
:101D6000D8F8000040F40030C8F800002E46FDB955
:101D70000EE000BF04F12800002102F085F904E024
:101D800004F10800002102F0EBF805462E467DB96B
:101D9000D8F82400E16D20F4E07000250843C8F86D
:101DA000240004E00125012760788007CDD43E4659
:101DB0006078400733D5D4F8A8004FEA7050042863
:101DC00060D8DFE800F003130D090900D8F800001F
:101DD00040F40030C8F80000A9460DBB0EE000BF7B
:101DE00004F12800002102F04FF904E004F108009A
:101DF000002102F0B5F80546A9468DB9D8F82C00A7
:101E0000D4F8A81020F4600000250843C8F82C007E
:101E100005E000BF0125012660784007CBD4B1461C
:101E20006078000734D5D4F8AC004FEA306004285D
:101E30005ED8DFE800F003130D090900D8F80000B0
:101E400040F40030C8F800002F4615BB0EE000BF7C
:101E500004F12800002102F017F904E004F1080061
:101E6000002102F07DF805462F4695B9D8F82C00E0
:101E7000D4F8AC1020F0E06000250843C8F82C002E
:101E800006E000BF01254FF0010960780007CAD4C1
:101E90004F46E078800730D5E06C4FEA30100328D9
:101EA00020D8DFE800F00903150900BFD8F80000CA
:101EB00040F40030C8F800002E46ADB9D8F8200034
:101EC000E16C20F0300000250843C8F8200014E041
:101ED00004F10800022102F043F805462E461DB920
:101EE000ECE700BF012501266078C00609D434E084
:101EF00001250127E0788007CED43E466078C006F1
:101F00002BD5206E4FEA3030042839D8DFE800F0B6
:101F100004140E0A0A0000BFD8F8000040F4003094
:101F2000C8F800002F46CDB90EE000BF04F128002C
:101F3000002102F0A9F804E004F10800002102F0F9
:101F40000FF805462F464DB9D8F82400216E20F42D
:101F5000E04000250843C8F8240037466078800632
:101F600035D5606E4FEA3040052815D8DFE800F01F
:101F7000041A0E04040400BF2E46DDB91EE000BFA3
:101F80000125012760788006EBD420E004F12800C9
:101F9000012102F079F80AE0012501266078400667
:101FA00019D449E004F10800012101F0D9FF0546E8
:101FB0002E461DB1607840060DD43DE0D8F82400CF
:101FC000616E20F4E02000250843C8F824003E4656
:101FD0006078400630D5D4F8B0004FEA307005285C
:101FE0000ED8DFE800F00313070303032F46ADB953
:101FF00018E000BF04F12800012102F045F80AE0D2
:1020000001250127607800061AD43CE004F108009D
:10201000012101F0A5FF05462F461DB1607800069D
:102020000ED430E0D8F82C00D4F8B01020F0E04006
:1020300000250843C8F82C0037466078000622D5F2
:10204000206F58B1B0F1005F0CD0B0F1805F37D194
:10205000D8F8000040F40030C8F800002E469DB9C2
:1020600008E000BF04F10800012101F079FF0546F6
:102070002E464DB9D8F82400216F20F0405000259D
:102080000843C8F824003E46E078C0071DD0A06C85
:10209000032855D8DFE800F008024A08D8F8000005
:1020A00040F40030C8F80000A9467DB9D8F82000F7
:1020B000A16C20F0030000250843C8F8200004E0CC
:1020C00001250126E078C007E1D1B146A07840069D
:1020D00002D44F4618E000BFD8F8D40340F4807013
:1020E000C8F8D403FEF750FF064600BFD8F8D40363
:1020F000C00507D4FEF748FF801B6428F6D90325E6
:10210000032701E02F46FDB12078C00700F06F8063
:10211000E06F4FEAF00005284ED8DFE800F00353E7
:1021200047030303002D2E4654D157E004F1080065
:10213000022101F015FF0546002DA946C6D1B5E7DD
:1021400001254FF00109C1E7D8F84410D4F8B400D4
:10215000414011F4407F11D0D8F84410D8F8442001
:1021600042F48032C8F84420D8F8442021F4407169
:1021700022F48032C8F84420C8F84410B0F5807FBB
:1021800040F0E082FEF700FF064641F2883A032560
:10219000032700BFD8F84400800700F1D182FEF782
:1021A000F3FE801B5045F5D9AEE700BF04F12800CF
:1021B000012101F069FF0AE001250126207880074E
:1021C00019D446E004F10800012101F0C9FE0546DA
:1021D0002E461DB1207880070DD43AE0D8F82800AB
:1021E000E16F20F0380000250843C8F828003E467B
:1021F000207880072DD5A06F05280FD8DFE800F0E4
:1022000004140804040400BF2F46ADB918E000BF51
:1022100004F12800012101F037FF0AE00125012720
:102220002078400719D447E004F10800012101F0AB
:1022300097FE05462F461DB1207840070DD43BE0A0
:10224000D8F82800A16F20F0070000250843C8F83F
:1022500028003746207840072ED5D4F8940005286A
:102260000ED8DFE800F00313070303032E46ADB9D1
:1022700018E000BF04F12800012101F005FF0AE089
:1022800001250126207880061AD44BE004F10800CD
:10229000012101F065FE05462E461DB1207880061D
:1022A0000ED43FE0D8F82C00D4F8941020F00700AA
:1022B00000250843C8F82C003E462078800631D51A
:1022C000D4F890004FEA307005280FD8DFE800F00E
:1022D00004140804040400BF2F46ADB918E000BF81
:1022E00004F12800022101F0CFFE0AE001250127B8
:1022F000207840061AD44BE004F10800002101F0D8
:102300002FFE05462F461DB1207840060ED43FE033
:10231000D8F82800D4F8901020F0E04000250843B9
:10232000C8F8280037462078400631D5D4F89C00FC
:102330004FEAB02005280FD8DFE800F004140804A5
:10234000040400BF2E46ADB918E000BF04F1280018
:10235000022101F099FE0AE00125012620780006FD
:102360001AD44EE004F10800002101F0F9FD054601
:102370002E461DB1207800060ED442E0D8F82C007D
:10238000D4F89C1020F4E05000250843C8F82C0035
:102390003E462078000634D5D4F8A0004FEA7030CD
:1023A000052815D8DFE800F0041A0E04040400BF65
:1023B0002F46E5B12068010727D4C1063ED40003AB
:1023C00055D477E004F12800022101F05DFE0AE017
:1023D0000125012720680107EFD516E004F1080068
:1023E000002101F0BDFD0546002D2F46E2D1D8F8B1
:1023F0002C00D4F8A01020F4604000250843C8F851
:102400002C00374620680107D7D5D4F88400B0F5F2
:10241000805F09D104F12800022101F035FE002877
:1024200018BF0127D4F88400D8F8281021F44051AF
:102430000843C8F828002068C106C0D5D4F8980021
:10244000B0F5807F09D104F12800022101F01CFEC3
:10245000002818BF0127D4F89800D8F82C1021F4D0
:1024600040710843C8F82C002068000322D5D4F836
:10247000A400B0F5003F11D0B0F5803F08D000288F
:1024800044D104F10800002101F06AFD05E000BF1D
:1024900004F12800022101F0F7FD05462E4655B94A
:1024A000D8F82C00D4F8A41020F4403000250843BC
:1024B000C8F82C003E46A07840072CD5D4F88800F8
:1024C000B0F5401F0BD0B0F5001F0BD0B0F5801F4A
:1024D0002AD1D8F8000040F40030C8F800002F4698
:1024E000D5B907E004F12800012101F0CDFD054632
:1024F0002F468DB9D8F82800D4F8881020F4401061
:1025000000250843C8F8280005E000BF0125012682
:10251000A0784007D2D43746A078C00709D13E46FC
:102520002168880015D532E001250127A078C00771
:10253000F5D0206DB0F5803F10D018BBD8F8000062
:1025400040F40030C8F800002E4685B121688800AC
:102550001DD460688A0326D469E000BF04F1080036
:10256000022101F0FDFC0546002D2E46EED1D8F8E3
:102570002000216D20F4803000250843C8F8200099
:10258000CDE700BF0125012621688800E1D504F1CF
:102590002800022101F078FD002818BF0126D4E9A7
:1025A00000108A0343D5D4F880206FF0010303EBB9
:1025B0003223022B0BD34FEA322343B1012B40F0DD
:1025C000B980D8F8003043F40033C8F800303DB388
:1025D000CA022FD4CA0037D48A0240D44A0048D451
:1025E000CA0F55D109025DD4C10766D181076FD4E6
:1025F000410779D4010700F18380C10600F18C8086
:10260000800607D504F12800022101F03DFD0028D5
:1026100018BF0125002D18BF01252846BDE8F08709
:10262000D8F8283023F440731A43C8F828203546D8
:10263000CA02CFD5D8F82420636F22F000421A4393
:10264000C8F82420CA00C7D558F81C2CD4F8B830D4
:1026500022F480421A4348F81C2C8A02BED5D8F8CE
:102660002420E36E22F080721A43C8F824204A0026
:10267000B6D558F81C2C22F4004248F81C2CD4F88B
:10268000BC2058F81C3C1A4348F81C2CCA0FA9D08F
:10269000D8F82020636D22F040521A43C8F8202059
:1026A0000902A1D5D8F82810D4F88C2021F44001D3
:1026B0001143C8F82810C10798D004F10800002180
:1026C00001F04EFC002818BF0546606881078FD5D1
:1026D00004F10800012101F043FC002818BF054661
:1026E000606841077FF586AF04F10800022101F020
:1026F00037FC002818BF0546606801077FF57DAFED
:1027000004F12800002101F0BFFC002818BF054695
:102710006068C1067FF574AF04F12800012101F063
:10272000B3FC002818BF0546606880063FF56AAF15
:1027300070E700BF0125CA027FF54CAF7AE700BF02
:10274000D4F8B4004FF6CF7358F81C2CC0F2FF0336
:1027500000F4407122F47C5203EA10136FF31F302F
:10276000B1F5407F08BF1A43002548F81C2CD8F863
:1027700044100843C8F84400FFF7ABBC0000000059
:102780002DE9F04381B0002800F0208142F20009D9
:102790000446C5F20029D9F8000000F00F0081427C
:1027A0000DD9D9F8000020F00F000843C9F8000047
:1027B000D9F8000000F00F00884240F0078120683F
:1027C00044F218464207C5F602060AD52269336864
:1027D00003F070039A4204D9336823F070031A435C
:1027E000326002070AD56269736803F070039A4287
:1027F00004D9736823F070031A437260C2060AD5C5
:10280000A269736803F4E0639A4204D9736823F4FD
:10281000E0631A43726082060AD5E269B36803F086
:1028200070039A4204D9B36823F070031A43B2606C
:1028300010F002020AD0E368376807F00F07BB42C6
:1028400004D9376827F00F073B433360C3073FD0F5
:10285000306820F47062D4E901031A433260012821
:1028600056F8182C0AD0032804D002280AD1920363
:102870000BD4ABE0920108D4A8E000BFD20504D489
:10288000A4E000BF520740F1A180884656F8081C1A
:1028900021F00701084346F8080CFEF775FB0546D2
:1028A00041F2883756F8080C616800F03800B0EB48
:1028B000C10F09D0FEF768FB401BB842F2D90320D4
:1028C00001B0BDE8F08300BF2068414600F002027D
:1028D00052B1E268336803F00F039A4204D23368BE
:1028E00023F00F031A433260D9F8002002F00F02E0
:1028F00091420CD2D9F8002022F00F020A43C9F805
:102900000020D9F8002002F00F028A425ED1410770
:102910000AD52169326802F07002914204D232680D
:1029200022F070021143316001070AD561697268B3
:1029300002F07002914204D2726822F070021143D8
:102940007160C1060AD5A169726802F4E062914221
:1029500004D2726822F4E0621143716080060AD5E5
:10296000E069B16801F07001884204D2B16821F0D9
:1029700070010843B06000F0B7F8316845F2865244
:10298000C0F60002C1F30321515C336803F00F036A
:1029900001F01F01D25C20FA01F102F01F0040F2A9
:1029A0000C02C2F2004221FA00F0106040F2040072
:1029B00040F20802C2F20040C2F200420068116018
:1029C00001B0BDE8F043FEF713BF00BF012001B026
:1029D000BDE8F0830000000080B500F085F844F207
:1029E000184145F28653C5F60201C0F600030A6895
:1029F000C2F303229A5C096801F00F0102F01F0282
:102A0000595C20FA02F201F01F0040F20C01C2F200
:102A1000004122FA00F0086040F20801C2F20041D1
:102A20000A6080BD0000000080B500F05DF844F24F
:102A3000184C45F28653C5F6020CC0F60003DCF8CC
:102A40000020C2F303229A5CDCF8001001F00F01B1
:102A500002F01F02595CD04040F20C02C2F2004268
:102A600001F01F0120FA01F1116040F20802C2F2E8
:102A700000421060DCF80400C0F30210185C00F0A3
:102A80001F0021FA00F080BD80B500F02DF844F25F
:102A9000184C45F28653C5F6020CC0F60003DCF86C
:102AA0000020C2F303229A5CDCF8001001F00F0151
:102AB00002F01F02595CD04040F20C02C2F2004208
:102AC00001F01F0120FA01F1116040F20802C2F288
:102AD00000421060DCF80400C0F30220185C00F033
:102AE0001F0021FA00F080BD44F20041C5F602014A
:102AF0000869C0F3C200032816D002280ED00028AF
:102B000032D10868800649F20000C0F2D03058BFC8
:102B100070470968C1F3C101C840704747F64000DB
:102B2000C0F27D10704700BF8B6A886AD1F82CC054
:102B30004A6BC0F30510E8B1C2F3CC0203F0030303
:102B400000EE102A9FED2A1AB8EE400A20EE010A84
:102B50009FED281ADFE803F0022110210A6892068F
:102B60000ED49FED261A18E040F60010C0F23D008A
:102B7000704700BF002070479FED1F1A0DE000BF97
:102B80000A6849F20003C0F2D033C2F3C10223FA4B
:102B900002F201EE102AB8EE411A0A6B9FED183AC4
:102BA0006FF35F2202EE102A5FEACC7203FE000A86
:102BB00003EE100A086BB8EE422AC0F34620B8EEC6
:102BC000433A013030EE020AB7EE002A81EE031AD2
:102BD00030EE020A21EE000A01EE100AB8EE411AA8
:102BE00080EE010ABCEEC00A10EE100A704700BF6A
:102BF000000000390024744A20BCBE4B0024744CF1
:102C0000000000000000000070B3F0B581B0044681
:102C1000007844F20046C007C5F6020626D12078A7
:102C2000800740F1C280306910F03801B06A3FD0AF
:102C3000182908BF5FEA80703AD0E0683168002840
:102C400062D021F0190108433060FEF79DF9054676
:102C50003068400748D4FEF797F9401B0228F7D99F
:102C6000032001B0F0BD00BF01207047306900F0C3
:102C70003801B06A102905D018290BD100F00300E3
:102C8000022807D130688003C9D560680028C6D102
:102C90003CE100BF6168306800294FD0B1F5A02F3A
:102CA00044D0B1F5803F5FD140F4803062E000BF96
:102CB00030684007E06802D5002800F027813168BD
:102CC00021F0190108433060FEF75EF9054600BFA8
:102CD0003068400708D4FEF757F9401B02284FF030
:102CE0000300F5D901B0F0BDFEF746F941F203014A
:102CF00088424FD820697168402821F47C3151D135
:102D000041F4003050E000BF21F001003060FEF7D8
:102D10003BF905463068400747D5FEF735F9401BBB
:102D200002284FF00300F5D9DCE700BF40F4802013
:102D30003060306840F480301CE000BF20F4803008
:102D40003060306820F480203060FEF71DF90546C1
:102D5000306880037FF563AFFEF716F9401B6428E7
:102D60004FF00300F4D9BDE720F4803030603068C4
:102D700020F480203060FEF707F9054630688003B4
:102D80003FF54DAFFEF700F9401B6428F6D903204C
:102D900001B0F0BD7068216920F0FE4040EA01609A
:102DA00002E000BF41EA003070602078C00654D5D0
:102DB000306900F03801B06A082905D0182919D106
:102DC00000F00300012815D13068C00503D5E06983
:102DD000802840F09B80FEF7CFF841F20301884243
:102DE0001ED8206A7168202821F0F84132D141F0C4
:102DF000804031E0E0690028306819D040F0800060
:102E00003060FEF7C1F805463068C005E3D4FEF730
:102E1000BBF8401B02284FF00300F5D962E700BF62
:102E2000F068216A20F07C5040EA0160F06014E014
:102E300020F080003060FEF7A7F805463068C00536
:102E40000BD5FEF7A1F8401B02284FF00300F5D97F
:102E500048E700BF41EA80607060207800073FD4F7
:102E60002078800656D42078400769D4656A9DB3DF
:102E7000306900F03800182840F0A880012DB16AB0
:102E8000306B43D001F00302A36A9A423ED1C1F3F2
:102E90000511E26A914239D10146226B6FF35F213D
:102EA000013A914232D1C0F34622616B01398A4224
:102EB0002CD1C0F30642A16B01398A4226D1C0F35E
:102EC0000660E16B0139884220D1706BA16CC0F3C0
:102ED000CC00814240F03481002001B0F0BD00BF41
:102EE00060690028706F41D040F001007067FEF704
:102EF0004BF80546706F8007B2D4FEF745F8401BCB
:102F00000228F7D9032001B0F0BD00BF012001B0B5
:102F1000F0BD00BFA0690028306845D040F4805063
:102F20003060FEF731F80546306880049BD4FEF728
:102F30002BF8401B0228F7D9032001B0F0BD00BFD9
:102F4000D6F8000440F48070C6F80004FEF71CF8C0
:102F5000054600BFD6F80004C00519D4FEF714F8E2
:102F6000401B6428F6D9032001B0F0BD20F0010019
:102F70007067FEF709F80546706F80077FF570AF40
:102F8000FEF702F8401B02284FF00300F4D9A9E62F
:102F9000A168306F002943D0052939D0012957D1C4
:102FA00040F001005AE000BF20F480503060FDF78F
:102FB000EBFF0546306880047FF555AFFDF7E4FF71
:102FC000401B02284FF00300F4D98BE6306820F054
:102FD00080703060FDF7D8FF022D05460CD100BF90
:102FE000306880014CD5FDF7CFFF401B02284FF021
:102FF0000300F5D976E600BF306880017FF56CAF3D
:10300000FDF7C2FF401B02284FF00300F4D969E628
:1030100040F004003067306F40F001001EE000BF58
:1030200020F001003067306F20F004003067FDF7BA
:10303000ABFF054641F28837306F80077FF516AF4A
:10304000FDF7A2FF401BB8424FF00300F4D949E658
:1030500020F001003067306F20F004003067FDF78A
:1030600093FF054641F28837306F80073FF5FEAE8B
:10307000FDF78AFF401BB8424FF00300F4D931E658
:1030800004F12807B06A40F2F33188438ECF084339
:10309000591E40EA02104FF47E426FF35F21B06286
:1030A00002EB47204FF4FE0280B2E36B0844A16BB1
:1030B00002EB01414FF0FE4201F4FE0102EB03621C
:1030C000084402F0FE4108443063F06A4FF6F8719C
:1030D00020F00100F062706BA26C884340EAC200ED
:1030E0007063F06A216C20F00C000843F062F06A13
:1030F000616C20F002000843F062F06A40F4803016
:10310000F062F06A40F40030F062F06A40F480202F
:10311000F062F06A40F00100F062306840F08070C8
:103120003060FDF731FF0446306880013FF5D4AED2
:10313000FDF72AFF001B02284FF00300F4D9D1E568
:10314000F06A20F00100F062FDF71EFF0546FDF772
:103150001BFFA842FBD0706B4FF6F871A26C88433E
:1031600040EAC2007063F06A40F00100F0620020A3
:1031700001B0F0BD00000000411E0020B0EB116F57
:1031800002D00120704700BF4EF21002F023CEF2B1
:10319000000251604EF62351CEF200010B70072160
:1031A000906011607047000090F88410012901D1EF
:1031B000022070472421C0F8881001680A680B6853
:1031C00022F0005223F001030B60002343660A60E3
:1031D0002021C0F8881080F884300020704700005B
:1031E0007047000000000000704700000000000071
:1031F00090F88420012A01D10220704770B5242262
:10320000C0F888200268D0F864E0BEF1000FD2F860
:1032100000C0136823F001031360936823F0606318
:1032200041EA0301916019D0916845F2AE5E93685E
:10323000C0F6000E5B0F45F2B655C1F34266C0F60C
:1032400000051EF80340E95C2301B3FBF1F11EF811
:103250000630AE5D1B01B3FBF6F301E00121012353
:10326000A0F86A102021A0F86830C2F800C0C0F8A9
:103270008810002180F88410002070BD000000003C
:1032800090F88420012A01D10220704770B52422D1
:10329000C0F888200268D0F864E0BEF1000FD2F8D0
:1032A00000C0136823F001031360936823F06043A8
:1032B00041EA0301916019D0916845F2AE5E9368CE
:1032C000C0F6000E5B0F45F2B655C1F34266C0F67C
:1032D00000051EF80340E95C2301B3FBF1F11EF881
:1032E0000630AE5D1B01B3FBF6F301E001210123C3
:1032F000A0F86A102021A0F86830C2F800C0C0F819
:103300008810002180F88410002070BD00000000AB
:10331000704700000000000070470000000000003F
:10332000704700000000000070B5016840F62F02F1
:10333000CB691A40202A0A688E680BD102F020045B
:1033400006F080552D1917D0416F69B3BDE8704064
:10335000084700BF40F60F052B420DD0012540F273
:103360002014C1F20005C0F2004406EA050C02EA8E
:10337000040515EB0C0525D1DD06C46E16D5012C10
:1033800014D112F0100511D010220A628968490682
:1033900066D4B0F85C10B0F85E20B0F85E30002B58
:1033A00018BF914240F0688270BD00BFDD0215D5A4
:1033B00016F4800512D04FF480120A62BDE8704006
:1033C000FFF7AABFDD0718BF12F4807540F02A810D
:1033D0009D0706F0010E00F131813AE1190606D58C
:1033E00002F0800106F40006891940F0CB825906EC
:1033F00040F10C8112F0400100F00881016851E8B1
:10340000001F026821F0400142E80013F3B1016897
:1034100051E8001F026821F0400142E80013002B30
:103420001FBF016851E8001F026821F040011CBF66
:1034300042E80013002B09D0016851E8001F026820
:1034400021F0400142E80013002BD7D12021C0F821
:10345000881000218167BDE8704000F0BDBB00BF4F
:10346000D0F8802011684B68B0F85C4099B2002910
:1034700000F0C280A14280F0BF80A0F85E30D16928
:10348000B1F5807F00F0AC80016851E8001F026850
:1034900021F4807142E80013F3B1016851E8001F84
:1034A000026821F4807142E80013002B1FBF0168FD
:1034B00051E8001F026821F480711CBF42E800132C
:1034C000002B09D0016851E8001F026821F48071C7
:1034D00042E80013002BD7D1016851E8021F0268AF
:1034E00021F0010142E80213F3B1016851E8021F23
:1034F000026821F0010142E80213002B1FBF01689E
:1035000051E8021F026821F001011CBF42E80213CA
:10351000002B09D0016851E8021F026821F0010167
:1035200042E80213002BD7D1016851E8021F02685C
:1035300021F0400142E80213F3B1016851E8021F93
:10354000026821F0400142E80213002B1FBF01680E
:1035500051E8021F026821F040011CBF42E802133B
:10356000002B09D0016851E8021F026821F04001D8
:1035700042E80213002BD7D12021C0F88C10002183
:10358000C166016851E8001F026821F0100142E89D
:103590000013F3B1016851E8001F026821F0100127
:1035A00042E80013002B1FBF016851E8001F0268AA
:1035B00021F010011CBF42E80013002B09D0016864
:1035C00051E8001F026821F0100142E80013002BAF
:1035D000D7D1D0F8801004460846FCF7EDFF20460E
:1035E00002210167B0F85C10B0F85E20891A89B238
:1035F000BDE87040FFF7F4BD8C427FF4D5AED269D0
:10360000B2F5807F7FF4D0AEB6E100BF190240F181
:10361000C58112F0804100F0C181BDE87040FFF724
:1036200077BE00BF01250D62D0F8905045F001052E
:10363000C0F890509D0706F0010E0AD5BEF1000FAC
:1036400007D002240C62D0F8904044F00404C0F883
:1036500090405C070AD5BEF1000F07D004250D622B
:10366000D0F8905045F00205C0F890501D070CD5D9
:1036700002F0200555EA0C0507D008250D62D0F8A8
:10368000905045F00805C0F890501D050BD512F07C
:10369000806508D04FF400650D62D0F8905045F079
:1036A0002005C0F89050D0F89050002D3FF47CAE2B
:1036B0009B060BD502F0200206F08053D21805D0ED
:1036C000426F1AB10446904720462168D0F89020F6
:1036D000896801F0400102F02802891806D10446E9
:1036E000FFF71EFE0020C4F8900070BD016851E88D
:1036F000001F026821F4907142E80013F3B10168E1
:1037000051E8001F026821F4907142E80013002B79
:103710001FBF016851E8001F026821F490711CBFAF
:1037200042E80013002B09D0016851E8001F02682D
:1037300021F4907142E80013002BD7D14FF6FE71AF
:10374000CEF6FF71026852E8022F03680A4043E890
:103750000226DEB1026852E8022F03680A4043E8FD
:103760000226002E1FBF026852E8022F03680A409B
:103770001CBF43E80226002E08D0026852E8022F40
:1037800003680A4043E80226002EDBD1C16E0129FE
:1037900027D1016851E8001F026821F0100142E8BA
:1037A0000013F3B1016851E8001F026821F0100115
:1037B00042E80013002B1FBF016851E8001F026898
:1037C00021F010011CBF42E80013002B09D0016852
:1037D00051E8001F026821F0100142E80013002B9D
:1037E000D7D12021C0F88C100021C1660268416742
:1037F0009168490640F1CE80016851E8021F0268D5
:1038000021F0400142E80213F3B1016851E8021FC0
:10381000026821F0400142E80213002B1FBF01683B
:1038200051E8021F026821F040011CBF42E8021368
:10383000002B09D0016851E8021F026821F0400105
:1038400042E80213002BD7D1D0F88010002900F0F5
:10385000A18044F2C95204460846C0F600020A6537
:10386000FDF73EF900283FF49FADD4F88000016DCC
:10387000BDE87040084700BF891A026852E8002F6F
:10388000036822F4907243E80026F6B1026852E819
:10389000002F036822F4907243E80026002E1FBF19
:1038A000026852E8002F036822F490721CBF43E8BC
:1038B0000026002E09D0026852E8002F036822F487
:1038C000907243E80026002ED7D14FF6FE72CEF656
:1038D000FF72036853E8023F0668134046E802356A
:1038E000DDB1036853E8023F0668134046E802353D
:1038F000002D1FBF036853E8023F066813401CBF3A
:1039000046E80235002D08D0036853E8023F0668F8
:10391000134046E80235002DDBD12022C0F88C2070
:103920000022C2664267026852E8002F036822F054
:10393000100243E80026F6B1026852E8002F03683F
:1039400022F0100243E80026002E1FBF026852E852
:10395000002F036822F010021CBF43E80026002E4F
:1039600009D0026852E8002F036822F0100243E8F1
:103970000026002ED7D189B202220267BDE870402E
:10398000FFF72EBC816F00293FF40EADBDE87040FB
:10399000084700BFBDE87040FFF7C2BCD9017FF502
:1039A00003ADB2F1FF3FC8BF70BDBDE87040FFF787
:1039B0001BBC00000000000010B5D8B10446D0F8D0
:1039C000880028B9002084F88400204600F028F8F8
:1039D0002420C4F888002068A16A0268002922F027
:1039E0000101016002D0204600F0C6FC204600F034
:1039F000F3FD08B1012010BD2068416821F4904119
:103A00004160816821F02A018160016841F0010173
:103A100001602046BDE8104000F01EBD000000001F
:103A20002DE9F041B8B0044602A8C0210025CDE937
:103A30003655CDE934553395FCF730FD41F2004160
:103A40002068C4F20101884200F0908044F6000131
:103A5000C4F20001884241D044F20041C4F20001A6
:103A6000884240F0B58002A8002403940225029504
:103A7000FEF7FEF808B1FCF77FFD44F2E040C5F622
:103A80000200816841F400318160816801F40031F5
:103A900001910199016841F008010160006840F25C
:103AA000004100F008000190C5F602010198602075
:103AB000CDE933050720379001F5006033A9CDE942
:103AC0003544FDF77DF9262000210022FDF72CFF6B
:103AD0002620FDF715FF38B0BDE8F08102A80026CA
:103AE00003964FF00208CDF80880FEF7C1F808B140
:103AF000FCF742FD44F2E04040F20044C5F602000B
:103B0000C5F6020433AD0727816841F48021816046
:103B1000816801F4802101910199016841F004015B
:103B20000160016801F0040101910199016841F00F
:103B3000020101600068294600F00200019001982E
:103B40004FF48060CDE9330804F580603797CDE904
:103B50003566FDF735F94FF400603797CDE9330846
:103B6000CDE935662046294630E000BF01200290AD
:103B700002A80395FEF77CF808B1FCF7FDFC44F2BF
:103B8000E040C5F60200016941F0200101610169D0
:103B900001F0200101910199016841F040010160AB
:103BA000006840F2004100F040000190C5F60201BB
:103BB00001984FF484403390022034900020CDE9E6
:103BC00035000720379001F5A05033A9FDF7F8F82C
:103BD00038B0BDE8F0810000704700000000000030
:103BE000FEE700000000000070B50446006883692D
:103BF000DB0603D40021002269E000BF0E4610213D
:103C0000C161816989065ED4711C52D0154636BBEC
:103C1000FDF7BAF92068426894F8421083691B04E2
:103C20000CD512F4804209D1202907D0416841F413
:103C300080414160FDF7A8F9054600BF2068816911
:103C4000890605D4FDF7A0F9401B1A28F6D328E011
:103C500081698906DCD536E08169890633D4FDF7B0
:103C600093F9401BB0422068F6D9426894F842109C
:103C700083691B040CD512F4804209D1202907D096
:103C8000416841F480414160FDF77EF9054600BF7F
:103C9000206881698906DFD4FDF776F9401B1A2870
:103CA000F6D3206801228169242110E08169890608
:103CB00009D48169890606D4816989065CBF816956
:103CC0005FEA8161F2D52021C1610122042183696B
:103CD000DE0505D541F001014FF48072C261012279
:103CE0005E0505D49B050AD472B9002070BD00BFE3
:103CF00041F008019A054FF48062C26104D541F099
:103D000002014FF40072C2618269920701D500225C
:103D100082628269D20703D1826942F00102826124
:103D20004EF600034268CFF600631A404260606CB2
:103D300008436064202084F84100002084F8420099
:103D400084F84000012070BD2DE9F0410446006870
:103D500080690840401AB0FA80F04009824221D1BF
:103D60000D4616461F46581CDDF8188027D0CFBBDD
:103D7000002120464246FFF737FF002853D1FDF7C8
:103D800003F9206881692940491BB1FA81F1490989
:103D90008E423CD080692840401BB0FA80F0400938
:103DA0008642E5D00020BDE8F08100BF2068806930
:103DB0002840401BB0FA80F040098642F2D14FF013
:103DC000FF3120464246FFF70FFF0028EED00120CA
:103DD000BDE8F08180692840401BB0FA80F04009BE
:103DE0008642DFD1204639464246FFF7FDFED0B974
:103DF000FDF7CAF8A0EB0800B8422068EAD981694B
:103E00002940491BB1FA81F149098E42E2D1606C27
:103E100040F020006064202084F84100002084F8F5
:103E2000420084F840000120BDE8F081000000005D
:103E300070B5044600688069800635D415460E4684
:103E400019B928E0806980062ED4204631462A46DA
:103E5000FFF7CAFE30BBFDF797F8401BB042206861
:103E6000F0D981698906EDD4606C40F0200060646F
:103E7000202084F84100002084F8420084F84000AB
:103E8000012070BDFDF780F8206881698906EBD5B7
:103E90008069800608D4002120462A46FFF7A4FE48
:103EA0000028EFD0012070BD002070BD0000000090
:103EB00070B5044600688069800714D415460E4624
:103EC000481C17D01EBB00BF002120462A46FFF722
:103ED0008BFEB8BBFDF758F820688169890725D5A6
:103EE00080698007F0D5002070BD00BF2068806920
:103EF0008007F8D44FF0FF3120462A46FFF774FEC2
:103F00000028F3D0012070BD80698007EBD42046E3
:103F100031462A46FFF768FEA0B9FDF735F8401B89
:103F2000B0422068F0D981698907EDD4606C40F017
:103F300020006064202084F84100002084F84200C2
:103F400084F84000012070BDFEE700000000000082
:103F5000FEE70000000000007047000000000000C5
:103F6000F0B581B044F22C47C5F6020757F8042C8F
:103F700002F00302032A03D1012001B0F0BD00BF0B
:103F8000054657F82C0C0C4620F0806047F82C0CA6
:103F9000FCF7FAFF064600BF57F82C0C000105D5C8
:103FA000FCF7F2FF801B0228F6D964E057F8040CF6
:103FB000EE6895E80E0020F47C30012C40EA0130D8
:103FC000A2F101016FF35F214FF47E4202EB432225
:103FD00047F8040C92B24FF0FE4302EB01004FF49D
:103FE000FE012A6901EB064101F4FE0103EB0262C6
:103FF000084402F0FE410844F8603868696920F01E
:10400000C00040EA010038603868A96920F020004B
:1040100040EA0100386038684FF6F87120F010006F
:1040200038603869EA6920EA01004FF4001140EA7B
:10403000C2003861386808BF4FF4801140F01000AA
:10404000002C386008BF4FF40021386808433860FE
:1040500057F82C0C40F0806047F82C0CFCF794FFCC
:10406000044600BF57F82C0C000107D4FCF78CFF66
:10407000001B0328F6D3032001B0F0BD002001B0DF
:10408000F0BD000000000000F0B581B044F22C4704
:10409000C5F6020757F8042C02F00302032A03D1E5
:1040A000012001B0F0BD00BF054657F82C0C0C46AE
:1040B00020F0805047F82C0CFCF766FF064600BF46
:1040C00057F82C0C800005D5FCF75EFF801B0228FA
:1040D000F6D964E057F8040CEE6895E80E0020F07D
:1040E0007C70012C40EA0150A2F101016FF35F21C5
:1040F0004FF47E4202EB432247F8040C92B24FF099
:10410000FE4302EB01004FF4FE012A6901EB064178
:1041100001F4FE0103EB0262084402F0FE41084490
:1041200078613868696920F4406040EA01003860CD
:104130003868A96920F4007040EA010038603868E6
:104140004FF6F87120F480703860B869EA6920EAA7
:1041500001004FF0807140EAC200B861386808BFC2
:104160004FF4000140F48070002C386008BF4FF419
:10417000800138680843386057F82C0C40F08050B4
:1041800047F82C0CFCF700FF044600BF57F82C0C36
:10419000800007D4FCF7F8FE001B0328F6D30320A9
:1041A00001B0F0BD002001B0F0BD00000000000033
:1041B0007047000000000000FDF7D6BA00000000C4
:1041C000B0B59CB044F6180409A84C21C5F6020409
:1041D000FCF764F902200025CDE90755CDE9055526
:1041E000CDE90355CDE90155FDF7DEFB40F22C404A
:1041F0000095C5F60000016821F00101016000682A
:10420000012100F001000090206861F38F302060F0
:10421000206800F44040009000982068800409D491
:10422000206880045CBF20685FEA804002D4206878
:104230008004F2D50220099001200C9009A84025A5
:104240000D9500241294FEF7DFFC28B1EFF31080E7
:1042500072B600BFFEE700BF3F200121CDE9010497
:104260004FF48060CDE9070401A8CDE90344CDE90E
:104270000545FEF785FA28B1EFF3108072B600BF4E
:10428000FEE700BF1CB0B0BD4EF6885042F2000CF5
:10429000CEF20000C5F2002C016841F4700101600B
:1042A000DCF8000000F00F00062806D8DCF800005B
:1042B000072161F30300CCF8000044F200404EF601
:1042C0007F52C5F60200CEF6F622016841F00101E8
:1042D00001600021016103681A400260DCF80020DF
:1042E000120706D5DCF80020072363F30302CCF89D
:1042F000002040F200228161C161C0F2022201620D
:1043000082620022C0F2FF12C26240F28022C0F23A
:104310000112026341638263C16302644164026803
:1043200022F48022026041F200020166C5F60042DA
:104330001268B1EB527F05D148F208110122C5F293
:1043400000110A60D0F8D410C90448BF7047D0F8F3
:10435000D41043F2D20241F48051C0F8D41044F298
:104360000001C5F200210A60D0F8D41021F4805178
:10437000C0F8D41070470000816A0A070CD4CA073D
:1043800015D18A071ED44A0727D4CA0630D48A0614
:1043900039D44A0642D454E00268D0F838C0536891
:1043A00023F4004343EA0C035360CA07E9D00268D0
:1043B000D0F82CC0536823F4003343EA0C03536055
:1043C0008A07E0D50268D0F830C0536823F4803300
:1043D00043EA0C0353604A07D7D50268D0F834C0CB
:1043E000536823F4802343EA0C035360CA06CED5F6
:1043F0000268D0F83CC0936823F4805343EA0C036E
:1044000093608A06C5D50268D0F840C0936823F44B
:10441000005343EA0C0393604A0612D50268D0F8B1
:1044200044C0BCF5801F536823F4801343EA0C0397
:10443000536006D1536823F4C00C836C43EA0C0329
:104440005360090658BF70470168C06C4A6822F47F
:104450000022104348607047B0B582B00446002087
:10446000C4F89000FCF790FD216805460A68120721
:1044700037D54FF4001100226FF07E4000902046A7
:104480002B4600F0EDFA58B3206850E8000F216881
:1044900020F0800041E80002002A1FBF206850E899
:1044A000000F216820F080001CBF41E80002002AB4
:1044B00012D0206850E8000F216820F0800041E809
:1044C00000024AB1206850E8000F216820F0800007
:1044D00041E80002002AD7D10320202188226CE085
:1044E0002168086840075FD54FF4800100226FF013
:1044F0007E40009020462B4600F0B2FA002853D0B0
:10450000206850E8000F216820F4907041E8000214
:10451000F2B1206850E8000F216820F4907041E863
:104520000002002A1FBF206850E8000F216820F415
:1045300090701CBF41E80002002A09D0206850E8B2
:10454000000F216820F4907041E80002002AD7D1C2
:10455000206850E8020F216820F0010041E80202C3
:10456000002A1FBF206850E8020F216820F00100D8
:104570001CBF41E80202002A12D0206850E8020F56
:10458000216820F0010041E802024AB1206850E8A9
:10459000020F216820F0010041E80202002AD7D171
:1045A000032020218C2208E02020C4F88800C4F8D1
:1045B0008C00002170220020E166A150002184F8C7
:1045C000841002B0B0BD0000806B0021A0F85E1026
:1045D000FEF7A6BE00000000F0B583B004460068F8
:1045E00046F6F31640F6004E22696569D4E90213D7
:1045F0000A43E7690168CCF6FF762A43314011434C
:10460000C5F6000E394301604168704521F4405100
:1046100044F2544C41EA03014160A2694FF2FF4366
:104620001CBF216A0A438168C1F2FF131940C5F615
:10463000020C1143816047F2FF72C16AC4F20002AA
:1046400021F00F01656A90424FF0800341EA0501B5
:10465000C1621FDD40F6FF71C4F2010188423BDDFB
:10466000704500F0258141F20041C4F20101884209
:1046700005D041F20001C4F20101884244D1DCF8C6
:104680000010C1F3C202062A3ED245F27A51C0F6AA
:10469000000137E044F6FF31C4F2000188420DDC2E
:1046A00044F20041C4F20001884221D044F60001E6
:1046B000C4F2000188421BD026E000BF44F600414E
:1046C000C4F20001884213D045F20001C4F2000197
:1046D00088420DD018E000BF47F60001C4F2000187
:1046E000884205D047F60041C4F2000188420BD150
:1046F000DCF8001001F00702062A05D245F28051CD
:10470000C0F600018B181B78704540F60010C0F20F
:104710003D0000F05380B7F5004F40F07B80402B08
:104720004FF0010100F28F81DFE813F04200380101
:104730008D018D0140018D018D018D014C018D0197
:104740008D018D018D018D018D018D0114018D0172
:104750008D018D018D018D018D018D018D018D01E9
:104760008D018D018D018D018D018D0152018D0114
:104770008D018D018D018D018D018D018D018D01C9
:104780008D018D018D018D018D018D018D018D01B9
:104790008D018D018D018D018D018D018D018D01A9
:1047A0008D018D018D018D018D018D01300100BFC5
:1047B000FEF73AF9002840F00A8140E19A1E0121F3
:1047C0001E2A00F27F80DFE812F01F003E019100F8
:1047D0003E013E013E0197003E013E013E013E0189
:1047E0003E013E013E0183003E013E013E013E018D
:1047F0003E013E013E013E013E013E013E013E01C1
:104800003E013E013E019F00FDF7F6F8002840F012
:104810007A8014E1402B4FF0010100F21481DFE8AF
:1048200013F04100C10012011201CB00120112016C
:104830001201F30012011201120112011201120100
:104840001201A7001201120112011201120112013C
:1048500012011201120112011201120112011201C0
:104860001201F900120112011201120112011201CA
:1048700012011201120112011201120112011201A0
:104880001201120112011201120112011201120190
:104890001201120112011201120112011201120180
:1048A0001201B900FEF7C0F8002840F0B280C6E05F
:1048B000DCF8041001F00702062ABFF425AF66A158
:1048C00020E700BF402B40F0BE804FF400401BE0CB
:1048D0005CF8540C800649F20000C0F2D03013D5C9
:1048E0005CF8541CC1F3C101C8400DE06846FDF7F7
:1048F00097F8019838B9A2E06846FDF725F90198C4
:10490000002800F09C80656A45F296516268C0F606
:10491000000131F81510B0FBF1F002EB42018842C2
:104920004FF00101C0F08F801303984200F28B809A
:10493000010E0023000210EB520041F10001FBF7D1
:1049400035FD4FF60052A0F54071C0F20F029142C2
:1049500073D377E05CF8540C800649F20000C0F293
:10496000D03035D55CF8541CC1F3C101C8402FE0EC
:104970005CF8540C800649F20000C0F2D03049D5F2
:104980005CF8541CC1F3C101C84043E04FF400403F
:104990001EE000BF4FF400403CE000BFFEF774F89B
:1049A000A8B94CE0FEF770F898BB48E06846FDF700
:1049B00037F8019858B942E06846FDF731F8019898
:1049C00038BB3CE06846FDF7BFF80198B8B3656AAC
:1049D00045F29651C0F6000131F81510B0FBF1F028
:1049E00061684A0802EB40004FF6EF72B0FBF1F04D
:1049F000A0F11001914225D84FF6F0710140C0F3AB
:104A00004200084419E000BF6846FDF79DF8019890
:104A1000A8B1656A45F296516268C0F6000131F8A6
:104A20001510B0FBF1F000EB5200B0FBF2F0A0F17A
:104A300010014FF6EF72914204D82168C86000213E
:104A400001E000BF01214FF00110A0660020C4E981
:104A50001D00084603B0F0BD02040810204000000D
:104A60002DE9F041804600680D46C7693940491B71
:104A7000B1FA81F149098A4225D1069C34B3164620
:104A8000611C29D1C1692940491BB1FA81F1490949
:104A90008E4218D1C1692940491BB1FA81F14909F7
:104AA0008E4201BFC1692940491BB1FA81F104BF9F
:104AB00049098E4207D1C1692940491BB1FA81F1E8
:104AC00049098E42DED00020BDE8F081FCF75CFA97
:104AD0000320BDE8F08100BF1F4607E0C069284001
:104AE000401BB0FA80F040098642ECD1FCF74CFA4A
:104AF000C01BA04200F2B680D8F800000168490748
:104B0000ECD5402D18BF802DE8D0C169090700F110
:104B1000AD80C1690905E1D54FF400610162D8F8A3
:104B2000000050E8000FD8F8001020F4907041E821
:104B3000000222B3D8F8000050E8000FD8F80010A7
:104B400020F4907041E80002002A1FBFD8F800004E
:104B500050E8000FD8F8001020F490701CBF41E816
:104B60000002002A0BD0D8F8000050E8000FD8F857
:104B7000001020F4907041E80002002ACFD14FF6D7
:104B8000FE70CEF6FF70D8F8001051E8021FD8F87A
:104B90000020014042E802130BB3D8F8001051E89E
:104BA000021FD8F80020014042E80213002B1FBF6B
:104BB000D8F8001051E8021FD8F8002001401CBFAF
:104BC00042E80213002B0AD0D8F8001051E8021F67
:104BD000D8F80020014042E80213002BD3D1D8F8C6
:104BE0006C0001282FD1D8F8000050E8000FD8F849
:104BF000001020F0100041E8000222B3D8F80000B5
:104C000050E8000FD8F8001020F0100041E8000232
:104C1000002A1FBFD8F8000050E8000FD8F8001095
:104C200020F010001CBF41E80002002A0BD0D8F889
:104C3000000050E8000FD8F8001020F0100041E804
:104C40000002002ACFD12020C8F88C000021C8F82B
:104C50006C10C8F87410C8F89000032088F884100D
:104C6000BDE8F0810320BDE8F08100BF08210162AA
:104C7000D8F8000050E8000FD8F8001020F4907029
:104C800041E8000222B3D8F8000050E8000FD8F83D
:104C9000001020F4907041E80002002A1FBFD8F8ED
:104CA000000050E8000FD8F8001020F490701CBFEE
:104CB00041E80002002A0BD0D8F8000050E8000FAD
:104CC000D8F8001020F4907041E80002002ACFD1FB
:104CD0004FF6FE70CEF6FF70D8F8001051E8021FB4
:104CE000D8F80020014042E802130BB3D8F80010B6
:104CF00051E8021FD8F80020014042E80213002BBF
:104D00001FBFD8F8001051E8021FD8F8002001405A
:104D10001CBF42E80213002B0AD0D8F8001051E85B
:104D2000021FD8F80020014042E80213002BD3D123
:104D3000D8F86C0001282FD1D8F8000050E8000FF7
:104D4000D8F8001020F0100041E8000222B3D8F893
:104D5000000050E8000FD8F8001020F0100041E8E3
:104D60000002002A1FBFD8F8000050E8000FD8F852
:104D7000001020F010001CBF41E80002002A0BD0F8
:104D8000D8F8000050E8000FD8F8001020F010000C
:104D900041E80002002ACFD12020C8F88C00002072
:104DA000C8F86C00C8F874000821C8F8901088F89A
:104DB00084000120BDE8F08140F2E000C2F2004032
:104DC000FEF7B2BA00000000FEE70000000000009D
:104DD0009AB001200390FCF763FD48F21F70059024
:104DE00040F20110069003A800270497FCF728FD65
:104DF0000420FCF765FDFCF7C7FCFFF7E1F944F27E
:104E0000E0400797C5F6020041F6000BCDE90577B3
:104E1000CDE903770168C5F6020B41F480710160AA
:104E200001680BF5805A01F48071009100990168C6
:104E300041F0400101600168002201F04001009151
:104E40000099016841F008010160016801F0080162
:104E500000910099016841F004010160016801F0CE
:104E6000040100910099016841F01001016001689E
:104E700001F0100100910099016841F48061016026
:104E8000016801F4806100910099016841F002011C
:104E90000160016801F0020100910099016841F48C
:104EA00000710160016801F40071009100990168CE
:104EB00041F001010160016801F0010100910099D8
:104EC000016841F0800101600068402100F080002D
:104ED000009000985046FCF747F8ABF54068052174
:104EE00000224046FCF740F8602100225846FCF7BB
:104EF0003BF803ADF02003900D2007900BF5006008
:104F000029464FF00209CDE9049706970D24FBF7D7
:104F100057FF4FF480602946CDE9030958460794AE
:104F2000CDE90577FBF74CFFABF500602946CDE9ED
:104F30000399CDE905770794FBF742FFABF580565F
:104F40004FF40060CDE9030930462946CDE90577E5
:104F50000794FBF735FF4020039050462946012473
:104F60000697CDE90447FBF72BFF4FF48040294615
:104F7000CDE903070BF540600597FBF721FF0520FE
:104F80002946CDE9030440464FF0010ACDE90577F3
:104F9000FBF716FF4FF4C8602946CDE90309ABF5CE
:104FA000C0504FF00D08CDE90577CDF81C80FBF718
:104FB00007FF40200390304629464FF48814CDE97E
:104FC0000447FBF7FDFE584629464FF480760597C7
:104FD000CDE90364FBF7F4FE60202946CDE9030A1E
:104FE0005846CDE90577FBF7EBFECDF81C8044F27F
:104FF00000480BF580602946CDE90369CDE90577C6
:10500000C4F20008FBF7DCFE40F2E0004FF4E131AF
:10501000C2F20040C0F80080C0E90117C0E9037780
:105020000C21C0E90517C0E90777C0E90977FEF749
:10503000C3FC28B1EFF3108072B600BFFEE700BFDB
:1050400040F2E0000021C2F20040FEF719F928B159
:10505000EFF3108072B600BFFEE700BF40F2E00041
:105060000021C2F20040FEF7C3F828B1EFF3108030
:1050700072B600BFFEE700BF40F2E000C2F200409F
:10508000FEF792F820B1EFF3108072B6FEE700BF92
:1050900040F2082008F55041C2F200400C220160A5
:1050A0004FF4E13141600021C0E902110161C0E922
:1050B0000521C0E90711C0E90911FEF77DFC28B1FF
:1050C000EFF3108072B600BFFEE700BF40F2082089
:1050D0000021C2F20040FEF7D3F828B1EFF31080B0
:1050E00072B600BFFEE700BF40F208200021C2F206
:1050F0000040FEF77DF828B1EFF3108072B600BFD4
:10510000FEE700BF40F20820C2F20040FEF74CF874
:1051100020B1EFF3108072B6FEE700BF40F27005D9
:1051200008F58051C2F200450122284640F81C1FB4
:1051300047F6BB41C0F27001416000218160C0E9C7
:105140000321C0E90511C0E90711FBF771FF28B180
:10515000EFF3108072B600BFFEE700BF05F11C043C
:1051600000212046FBF718FF20B1EFF3108072B644
:10517000FEE700BF002120460026FBF735FF18B1EF
:10518000EFF3108072B6FEE740F2741008F580610C
:10519000C2F2004001604FF4E131C0E90116C0E9FC
:1051A00003660C21C0E90516C0E90766C0E9096677
:1051B000FEF702FC20B1EFF3108072B6FEE700BFED
:1051C00040F274100021C2F20040FEF759F818B105
:1051D000EFF3108072B6FEE740F274100021C2F2C5
:1051E0000040FEF705F818B1EFF3108072B6FEE745
:1051F00040F27410C2F20040FDF7D6FF20B1EFF389
:10520000108072B6FEE700BF15A003ACD0E9010123
:10521000CDE90101124800906946204600F028F8C7
:105220003220FBF7B9FD204600F0AEF803E000BFE6
:105230000A20FBF7B1FD204600F0F2F80028F7D174
:105240000C9828600D9868600E98A8600F98E86028
:1052500010982861119868611298A861E8E700BF6A
:105260008C000024680000006400000000000000C2
:10527000F0B585B0044600284FF0060016D00D4664
:10528000A1B12868A0B1002184F84810E164AE689B
:1052900029792060002E217108BF6426490003226D
:1052A0003346FBF71DFF0146032029B105B0F0BDD1
:1052B000062005B0F0BD00BF2179206801220DF164
:1052C0001203CDE900324900752201230296FBF753
:1052D000C7FF18B1022005B0F0BD00BF9DF8120055
:1052E000702831D12179206800228DF81320012700
:1052F0000DF11302CDE9002749006B22012302962C
:10530000FCF7CAF80028E5D184F84870FBF73CFEAA
:10531000697916A29FED171A012908BF0432E064CB
:10532000A879022992ED000AA0F10100C0B201FEA5
:10533000000A022884ED100A0AD810A202EB8000AD
:1053400090ED000A06E000BF042005B0F0BD00BFEC
:105350009FED090A84F85410A87984ED110A84F8A5
:1053600055000720A66505B0F0BD00BF00008046CF
:105370000000004600008045000003430000834217
:10538000333303423333834180B1F0B585B00446F3
:1053900090F8480001280BD1FBF7F6FDE16C401AAC
:1053A0000A2809D2072005B0F0BD00BF06207047CB
:1053B000012005B0F0BD00BF94F85500A56D22791D
:1053C000012794F85460C10020688DF812100DF187
:1053D00012010123CDE9001751001B220295FCF7B1
:1053E0005BF818B1022005B0F0BD00BF2279F100D2
:1053F00020688DF813100DF113010123CDE900177A
:1054000051001C220295FCF747F800284FF00200DB
:10541000C9D184F84800002005B0F0BD00000000AC
:10542000C0B190F84810022914D1B0B588B0017904
:10543000054600680E220DF112034900CDE9003245
:105440003B22012364240294FBF70AFF20B10220CF
:1054500008B0B0BD012070479DF812009DF81310F0
:1054600000029DF8142000B29DF815404318100268
:1054700000EE103A9DF8162001B2284601EB040E0A
:105480001102B8EEC00A9DF8172009B290ED101A6B
:105490001144AB6080EE010ABDF8185002EE10EA2C
:1054A00080ED090A00EE101A9DF81A2095FA85FC85
:1054B0009DF81B4012029DF81C5012B2B8EEC22A91
:1054C000B8EEC00A22442C029DF81D5024B282EE90
:1054D000012A80EE010A01EE102A63199DF81E4090
:1054E00080ED0B0A00EE103AB8EEC11A42619DF849
:1054F0001F50240246F26102016121B280ED0A2AA6
:1055000090ED112AB8EEC00A1CFB22F2294481EE6C
:10551000021AC16180ED0C1A01EE101AD11580EE4D
:10552000020A01EBD27180ED0D0A00EE101AB8EEFE
:10553000C11AC0F80CE04FEA1C418361B8EEC00A02
:10554000018481EE021A9FED052A80ED0E1A30EEDD
:10555000020A80ED0F0A002008B0B0BDB81E12424A
:10556000F1EE100A4FF6FF71C0F2C03120EA0100DF
:1055700040F04070E1EE100A70470104081020402E
:105580000004081020400000000001020304010292
:1055900003040607080901000200040006000800D1
:1055A0000A000C00100020004000800000010101F2
:1055B00001030701000008040204080101010000C2
:1055C000E05500080000002410000000FC02000864
:1055D000F055000810000024900800001C0300088B
:1055E00001000000100000000090D0030090D003E4
:040000050800029954
:00000001FF
