:020000040800F2
:1000000048530024F9030008BD4A0008DB440008F7
:10001000B94A0008370700089D5900080000000091
:10002000000000000000000000000000390300088C
:100030003B0700080000000095030008934D0008EE
:100040001704000817040008170400081704000824
:100050001704000817040008170400081704000814
:100060001704000817040008170400081704000804
:1000700017040008170400081704000817040008F4
:1000800017040008170400081704000817040008E4
:1000900017040008170400081704000817040008D4
:1000A00017040008854F000817040008170400080B
:1000B00017040008170400081704000817040008B4
:1000C00017040008170400081704000817040008A4
:1000D00017040008170400088D59000817040008C9
:1000E00017040008170400080000000017040008A7
:1000F0001704000817040008170400081704000874
:100100001704000817040008170400081704000863
:100110001704000817040008170400081704000853
:100120001704000817040008170400081704000843
:100130001704000817040008170400081704000833
:1001400000000000000000000000000000000000AF
:100150001704000817040008170400081704000813
:100160001704000817040008170400081704000803
:100170001704000817040008170400080000000016
:1001800017040008170400081704000817040008E3
:1001900017040008170400081704000817040008D3
:1001A00017040008170400081704000817040008C3
:1001B00017040008170400081704000817040008B3
:1001C00017040008170400081704000817040008A3
:1001D0001704000817040008170400081704000893
:1001E0001704000817040008170400081704000883
:1001F0001704000817040008170400081704000873
:100200001704000817040008170400081704000862
:100210001704000817040008170400081704000852
:100220001704000817040008170400080000000065
:100230001704000817040008000000001704000855
:100240001704000817040008170400081704000822
:100250001704000817040008170400081704000812
:100260001704000817040008170400081704000802
:100270001704000817040008170400080000000015
:100280001704000817040008170400080000000005
:10029000000000001704000800F002F800F03CF82D
:1002A0000AA090E8000C82448344AAF10107DA45D1
:1002B00001D100F031F8AFF2090EBAE80F0013F0E7
:1002C000010F18BFFB1A43F001031847B477000071
:1002D000D4770000103A24BF78C878C1FAD8520702
:1002E00024BF30C830C144BF04680C6070470000B0
:1002F0000023002400250026103A28BF78C1FBD82F
:10030000520728BF30C148BF0B6070471FB507F0C8
:100310007DFB1FBD10B510BD00F0D8F91146FFF7E9
:10032000F5FF05F05DFB00F0F6F903B4FFF7F2FF0F
:1003300003BC00F0F9F900002C4B19680868B0E81C
:10034000F04F80F30988BFF36F8F4FF0000080F308
:10035000118870470000000008480068006880F3BA
:1003600008884FF0000080F3148862B661B6BFF3CE
:100370004F8FBFF36F8F00DF00BF00BF08ED00E0BD
:10038000DFF80C00016841F470010160704700BFA4
:1003900088ED00E0EFF30980BFF36F8F134B1A680D
:1003A0001EF0100F08BF20ED108A20E9F04F1060FA
:1003B00009B44FF0500080F31188BFF34F8FBFF3A3
:1003C0006F8F06F01FFC4FF0000080F3118809BC0E
:1003D00019680868B0E8F04F1EF0100F08BFB0ECC5
:1003E000108A80F30988BFF36F8F704738000024AC
:1003F000EFF30580704700000A4880470A488047AD
:100400000A480047FEE7FEE7FEE7FEE7FEE7FEE7F5
:10041000FEE7FEE7FEE7FEE705480649064A074B0A
:1004200070470000450700085D4E0008990200086B
:10043000484D002448530024484F0024484F0024CE
:1004400053EA020C00F069802DE9F04B4FF00006F2
:10045000002B1FBFB3FA83F503FA05F424FA05F65F
:100460005E4012BF1643B2FA82F502FA05F4C5F1F6
:1004700020051EBF22FA05FC44EA0C04203556EA8A
:10048000044C4FEA144418BF641C4FF000084FF0AE
:100490000009904271EB030C39D3002919BFB1FA5E
:1004A00081F701FA07F6B0FA80F700FA07F6C7F10C
:1004B00020071EBF20FA07FC46EA0C062037B6FBD1
:1004C000F4FCA7EB0507103F07F01F0BCBF120064C
:1004D0000CFA0BFB2CFA06F644BFB3460026202F7D
:1004E000A4BF5E464FF0000B5BEA060C08BF4FF05E
:1004F000010B19EB0B09ABFB027C48EB0608C01B98
:1005000006FB02CC0BFB03CC71EB0C01C1E70B46E5
:10051000024641464846BDE8F08B13B54FF0000057
:100520004FF00001AFF30080BDE81C407047032A84
:1005300040F2308010F0030C00F0158011F8013B00
:10054000BCF1020F624498BF11F801CB00F8013BE7
:1005500038BF11F8013BA2F1040298BF00F801CBAB
:1005600038BF00F8013B11F0030300F05780083A50
:10057000C0F0088051F8043B083A51F804CBA0E8D9
:100580000810F5E7121D5CBF51F8043B40F8043B2E
:10059000AFF30080D20724BF11F8013B11F801CB63
:1005A00048BF11F8012B24BF00F8013B00F801CB34
:1005B00048BF00F8012B704702F0FF0343EA032213
:1005C00042EA024200F05EB84FF0000200B5134666
:1005D00094469646203922BFA0E80C50A0E80C5063
:1005E000B1F12001BFF4F7AF090728BFA0E80C5014
:1005F00048BF0CC05DF804EB890028BF40F8042B0D
:1006000008BF704748BF20F8022B11F0804F18BF79
:1006100000F8012B704770477047704710B5203ABB
:10062000C0F00B80B1E81850203AA0E81850B1E8AB
:100630001850A0E81850BFF4F5AF5FEA027C24BF61
:10064000B1E81850A0E8185044BF18C918C0BDE858
:1006500010405FEA827C24BF51F8043B40F8043B21
:1006600008BF7047D20728BF31F8023B48BF11F8D6
:10067000012B28BF20F8023B48BF00F8012B704730
:100680004FF000020429C0F0128010F0030C3FF478
:100690009DAFCCF1040CBCF1020F18BF00F8012B88
:1006A000A8BF20F8022BA1EB0C01FFF78FBF5FEA78
:1006B000C17C24BF00F8012B00F8012B48BF00F8D3
:1006C000012B704700487047E44C00247546FFF743
:1006D000F9FFAE4605006946534620F007008546FF
:1006E00018B020B5FFF798FEBDE820404FF0000697
:1006F0004FF000074FF000084FF0000B21F007010A
:10070000AC46ACE8C009ACE8C009ACE8C009ACE84C
:10071000C0098D46704710B50446AFF300802046EF
:10072000BDE81040FFF701BE01491820ABBEFEE74F
:1007300026000200704700BFFEE7704772B600BF98
:10074000FEE700000748006840F002000549086025
:1007500000BF04480838006800F400500028F8D0B2
:10076000704700000C4802582DE9F041044600F0A3
:100770003FFD804614B90120BDE8F08194F83500B2
:10078000022808D08020606500BF002084F8340073
:1007900000BF0120F0E7FE492068884249D0FC49AB
:1007A00018312068884244D0F949303120688842A5
:1007B0003FD0F7494831206888423AD0F449603147
:1007C0002068884235D0F24978312068884230D09C
:1007D000EF499031206888422BD0ED49A83120683C
:1007E000884226D0EB492068884222D0E949183156
:1007F000206888421DD0E74930312068884218D0EF
:10080000E44948312068884213D0E24960312068C9
:1008100088420ED0DF4978312068884209D0DD490E
:1008200090312068884204D0DA49A8312068884293
:1008300001D1012000E0002068B12068006820F0AC
:100840001E00216808602068406920F0800021684F
:100850004861256806E02068006820F00E002168E5
:1008600008602568CA492068884270D0C849183194
:10087000206888426BD0C64930312068884266D0F3
:10088000C34948312068884261D0C149603120683D
:1008900088425CD0BE4978312068884257D0BC4934
:1008A00090312068884252D0B949A83120688842E6
:1008B0004DD0B8492068884249D0B64918312068DF
:1008C000884244D0B3493031206888423FD0B14992
:1008D0004831206888423AD0AE4960312068884269
:1008E00035D0AC4978312068884230D0A949903160
:1008F000206888422BD0A749A8312068884226D09A
:10090000A5492068884222D0A34914312068884232
:100910001DD0A14928312068884218D09E493C3119
:100920002068884213D09C495031206888420ED0FC
:10093000994964312068884209D097497831206804
:10094000884204D094498C312068884201D101202A
:1009500000E0002028B1206E006820F48070216E35
:1009600008608B492068884249D08949183120683D
:10097000884244D086493031206888423FD084493B
:100980004831206888423AD08149603120688842E5
:1009900035D07F4978312068884230D07C49903109
:1009A000206888422BD07A49A8312068884226D016
:1009B00078492068884222D07649183120688842D8
:1009C0001DD0744930312068884218D071494831AF
:1009D0002068884213D06F496031206888420ED069
:1009E0006C4978312068884209D06A499031206882
:1009F000884204D06749A8312068884206D120681F
:100A0000006820F001002168086005E020680068A7
:100A100020F001002168086011E000F0E9FBA0EB84
:100A2000080005280BD920206065032084F83500D4
:100A300000BF002084F8340000BF01209CE6286835
:100A400000F001000028E8D151492068884249D0CF
:100A50004F4918312068884244D04D4930312068D0
:100A600088423FD04A494831206888423AD04849B4
:100A700060312068884235D0454978312068884205
:100A800030D043499031206888422BD04049A8316A
:100A90002068884226D03F492068884222D03D49BC
:100AA0001831206888421DD03A4930312068884288
:100AB00018D0384948312068884213D03549603110
:100AC000206888420ED0334978312068884209D0A6
:100AD000304990312068884204D02E49A8312068DE
:100AE000884201D1012000E0002040B1A66D94F8B9
:100AF0005C0000F01F013F208840B06007E0A76D58
:100B000094F85C0000F01F010120884078602049C3
:100B10002068884276D01E4918312068884271D0FA
:100B20001B493031206888426CD01949483120680F
:100B3000884267D0164960312068884262D01449E3
:100B40007831206888425DD0114990312068884210
:100B500058D00F49A8312068884253D00D492068E9
:100B600088424FD00B491831206888424AD0094941
:100B700030312068884245D0064948312068884293
:100B800040D004496031206888423BD0014905E0EB
:100B900010000240100402400854025878312068C6
:100BA00088422FD02549206888422BD0234918310C
:100BB0002068884226D022492068884222D02049D5
:100BC0001431206888421DD01D4928312068884290
:100BD00018D01B493C312068884213D01849503145
:100BE000206888420ED0164964312068884209D0B6
:100BF000134978312068884204D011498C3120682B
:100C0000884201D1012000E0002068B1D4E9191028
:100C10004860E06E40B1E06E006820F48070E16EE4
:100C20000860D4E91C104860012084F8350000BF3A
:100C3000002084F8340000BF00BF9DE5A0040240FE
:100C40000854025870B504460CB9012070BD94F8E0
:100C50003500022803D0802060650120F6E7DC49DA
:100C60002068884249D0DA4918312068884244D047
:100C7000D7493031206888423FD0D5494831206873
:100C800088423AD0D24960312068884235D0D04974
:100C900078312068884230D0CD4990312068884230
:100CA0002BD0CB49A8312068884226D0C94920687A
:100CB000884222D0C7491831206888421DD0C549D2
:100CC00030312068884218D0C249483120688842B3
:100CD00013D0C0496031206888420ED0BD497831B8
:100CE0002068884209D0BB4990312068884204D0EE
:100CF000B849A8312068884201D1012000E00020D5
:100D0000F0B3042084F83500B149206888424BD004
:100D1000AF4918312068884246D0AD49303120684B
:100D2000884241D0AA494831206888423CD0A8492D
:100D300060312068884237D0A549783120688842E0
:100D400032D0A3499031206888422DD0A049A831E3
:100D50002068884228D09F492068884224D09D4935
:100D60001831206888421FD09A4930312068884263
:100D70001AD0984948312068884215D0954900E03A
:100D800020E06031206888420ED092497831206896
:100D9000884209D08F4990312068884204D08D491B
:100DA000A8312068884206D12068006820F0010040
:100DB0002168086009E12068006820F001002168CE
:100DC000086002E12068006820F00E0021680860D9
:100DD0007F492068884249D07D491831206888427F
:100DE00044D07B493031206888423FD0784948312F
:100DF000206888423AD0764960312068884235D0F0
:100E0000734978312068884230D071499031206828
:100E100088422BD06E49A8312068884226D06D497F
:100E20002068884222D06B491831206888421DD042
:100E3000684930312068884218D0664948312068B6
:100E4000884213D063496031206888420ED06149DE
:100E500078312068884209D05E4990312068884204
:100E600004D05C49A8312068884206D12068006817
:100E700020F001002168086005E02068006820F08B
:100E800001002168086052492068884270D05049AA
:100E90001831206888426BD04D4930312068884233
:100EA00066D04B4948312068884261D0484960315A
:100EB000206888425CD0464978312068884257D003
:100EC000434990312068884252D04149A831206876
:100ED00088424DD03F492068884249D03D49183169
:100EE0002068884244D03B493031206888423FD056
:100EF00038494831206888423AD036496031206804
:100F0000884235D0334978312068884230D0314921
:100F10009031206888422BD02E49A8312068884221
:100F200026D02D492068884222D02B4914312068D0
:100F300088421DD0284928312068884218D0264987
:100F40003C312068884213D02349503120688842C0
:100F50000ED0214964312068884209D01E49783179
:100F60002068884204D01C498C312068884201D115
:100F7000012000E00020D8B1206E006820F48070CD
:100F8000216E0860A56D94F85C0000F01F0101203F
:100F900088406860D4E919104860E06E40B1E06EA6
:100FA000006820F48070E16E0860D4E91C1048608D
:100FB000012084F8350000BF002084F8340000BF11
:100FC000206D10B12046216D884700203EE60000CC
:100FD000100002401004024008540258F8B50246BE
:100FE0000B4600216F4DD7E001278F401E6806EAAF
:100FF0000704002C72D01E7906F00306012E04D0DF
:101000001E7906F00306022E13D190684F000326C6
:10101000BE40B0434F00DE68BE4030439060506831
:1010200001268E40B0431E79C6F300168E40304331
:1010300050601E7906F00306032E09D0D0684F00D9
:101040000326BE40B0434F009E68BE403043D06090
:101050001E7906F00306022E13D1CF0802F12006F6
:1010600056F827004E07F70E0F26BE40B0434F0735
:10107000FF0E1E69BE403043CF0802F1200646F83D
:10108000270010684F000326BE40B0431E7906F0CB
:1010900003064F00BE40304310605E6806F44036E1
:1010A000002E78D000BF404E366846F002063E4F14
:1010B0003E603E46366806F00206009600BF00BF5E
:1010C0003A4E8F0856F827008E07370F0F26BE407E
:1010D000B043374EB24202D100262EE05BE0354EDF
:1010E000B24201D1012628E0334EB24201D102269C
:1010F00023E0324EB24201D103261EE0304EB2420E
:1011000001D1042619E02F4EB24201D1052614E088
:101110002D4EB24201D106260FE02C4EB24201D133
:1011200007260AE02A4EB24201D1082605E0294EE0
:10113000B24201D1092600E00A268F073F0FBE40C8
:1011400030431A4E8F0846F827004FF0B0463068FB
:10115000A0435E6806F4801606B120434FF0B04607
:1011600030607068A0435E6806F4001606B1204344
:101170004FF0B04670606868A0435E6806F40036C1
:1011800006B1204368602868A0435E6806F4803694
:1011900006B120432860491C1E68CE40002E7FF413
:1011A00023AFF8BD80000058F444025808040058EA
:1011B000000002580004025800080258000C0258AF
:1011C000001002580014025800180258001C02585F
:1011D00000200258002402580AB1816101E00B048A
:1011E0008361704701480068000C70470010005C84
:1011F000014800687047000024000024024692F86D
:10120000410020282DD100BF92F84000012801D1D3
:1012100002207047012082F8400000BF242082F89D
:1012200041001068006820F0010013681860106821
:10123000006820F480501368186010680068084344
:10124000136818601068006840F0010013681860A7
:10125000202082F8410000BF002082F8400000BF3B
:10126000D7E70220D5E710B502460B4692F84100B9
:1012700020282AD100BF92F84000012801D1022085
:1012800010BD012082F8400000BF242082F84100F8
:101290001068006820F00100146820601068016880
:1012A00021F4706141EA0321106801601068006850
:1012B00040F0010014682060202082F8410000BF47
:1012C000002082F8400000BFDAE70220D8E70000E3
:1012D00010B504460CB9012010BD94F8410028B99E
:1012E000002084F84000204600F05EF8242084F8B6
:1012F00041002068006820F00100216808606068F3
:1013000020F07060216808612068806820F4004047
:1013100021688860E068012805D1A06840F4004099
:101320002168886004E0A06840F404402168886077
:10133000E068022806D12068406840F40060216817
:10134000486005E02068406820F40060216848603B
:101350002068406813490843216848602068C068D5
:1013600020F400402168C860D4E904010843A16961
:1013700040EA01202168C860D4E9070108432168D8
:1013800008602068006840F00100216808600020C3
:101390006064202084F841000020206384F842002B
:1013A00000BF99E70080000210B5B8B004461421D0
:1013B00032A8FFF709F9C02102A8FFF705F9834910
:1013C0002068884236D108210020CDE90210239000
:1013D00002A800F0E7FC08B1FFF7B0F900BF7C48B5
:1013E000006840F002007A4908600846006800F092
:1013F0000200019000BF00BF4FF4407032901220F5
:1014000033900020349035900420369032A97148F2
:10141000FFF7E4FD00BF6E480830006840F400109C
:101420006B49083108600846006800F4001001901C
:1014300000BFC9E068492068884235D108210020F2
:10144000CDE90210239002A800F0ACFC08B1FFF730
:1014500075F900BF5E48006840F020005C490860F4
:101460000846006800F02000019000BF00BF032084
:101470003290122033900020349035900420369022
:1014800032A95648FFF7AAFD00BF5148083000684E
:1014900040F480004E49083108600846006800F4B6
:1014A0008000019000BF8FE04D492068884251D1F3
:1014B00008210020CDE90210239002A800F072FC60
:1014C00008B1FFF73BF900BF4148006840F0040055
:1014D0003F4908600846006800F00400019000BF22
:1014E00000BF00BF0846006840F0010008600846E1
:1014F000006800F00100019000BF00BF4FF40070D1
:101500003290122033900020349035900420369091
:1015100032A93448FFF762FD4FF4807032901220F8
:1015200033900020349035900420369032A92E4814
:10153000FFF754FD00BF26480830006840F4000063
:101540002349083108600846006800F40000019053
:1015500000BF39E025492068884235D1102100209C
:10156000CDE90210289002A800F01CFC08B1FFF79A
:10157000E5F800BF1648006840F002001449086012
:101580000846006800F00200019000BF00BFC020C4
:1015900032901220339000203490359006203690FF
:1015A00032A90C48FFF71AFD00BF09481430006843
:1015B00040F080000649143108600846006800F0D9
:1015C0008000019000BF00BF38B010BD0054004043
:1015D000E044025800040258005800400014025829
:1015E000005C00400008025800000258001C00582F
:1015F00003480068034909780844014908607047B6
:10160000240000242C00002410B5032000F044F92D
:1016100001F08CFC10490968C1F303210F4A515CA9
:1016200001F01F0120FA01F40B48006800F00F00E0
:101630001146085C00F01F0024FA00F00849086019
:10164000084804600F2000F00FF808B1012010BD19
:1016500000F0B8F80020FAE718440258647A00084D
:10166000340000243000002470B58AB00446102CE9
:101670000AD200222146192000F0D0F8192000F0EB
:10168000B9F81948046002E001200AB070BD00BF3B
:101690001648006840F001001449086008460068D8
:1016A00000F00100009000BF00BF01A902A801F0F6
:1016B000BDFB01F029FC45000D48B5FBF0F0461ECE
:1016C0000C480D49086040F2E7310B48C1604660A4
:1016D00000210161816002F078F918B9064802F032
:1016E000ADF9D2E70120D0E728000024F0440258E9
:1016F00040420F0000000140C40300244178154A15
:10170000116014490831096821F00101114A0832B9
:101710001160121F41681160017B0907C27A41EA1A
:101720000261827A41EAC241427B41EA8241827B84
:1017300041EA4241C27B41EA0241427A41EA022146
:10174000027A41EA420102781143024A08321160EA
:101750007047000098ED00E000BF00BF00BFBFF37E
:101760005F8F00BF00BF00BF0548006820F48030D5
:10177000034908600020024970310860704700008A
:1017800024ED00E040F001010D4A11600C49703970
:10179000096841F480310A4A703A116000BF00BF05
:1017A00000BFBFF34F8F00BF00BF00BF00BF00BF2F
:1017B00000BFBFF36F8F00BF00BF00BF70470000C6
:1017C00094ED00E008B500BF0948006840F0020051
:1017D000074908600846006800F00200009000BF5A
:1017E00000BF00220F21901E00F018F808BD000075
:1017F000F44402580146084600280DDB00BF00BF34
:1018000000F01F0301229A4043099B0003F1E023EB
:10181000C3F8002100BF00BF00BF70472DE9F05F93
:1018200080460D46164604F0BBF8074639462A4660
:10183000334601F00700C0F1070ABAF1040F02D9DC
:101840004FF0040A01E0C0F1070AD14600F1040A92
:10185000BAF1070F02D24FF0000A01E0A0F1030A2B
:10186000D4464FF0010A0AFA09FAAAF1010A0AEA73
:10187000020A0AFA0CFA4FF0010B0BFA0CFBABF15F
:10188000010B0BEA030B4AEA0B042146404604F025
:101890008FF8BDE8F09F000000BF00F00702064B84
:1018A00019684FF6FF031940044B0B4343EA02212A
:1018B000014B196000BF70470CED00E00000FA0515
:1018C00070B5044615480068C0F3800048B9134855
:1018D000006800F00700A04201D0012070BD002088
:1018E000FCE70E48006820F0070020430B49086021
:1018F000FFF77EFC054607E0FFF77AFC401BB0F5DA
:101900007A7F01D90120E9E7044808380068C0F36C
:1019100040300028F0D00020E0E700000C480258DA
:1019200010B501F0B9FA05490968C1F30211044A7A
:10193000515C01F01F01C84010BD00002044025856
:10194000647A000870B50146844D2D6805F00303E4
:10195000824D2D68C5F30530804D2D1D2D68C5F3D2
:1019600000147E4D14352D68C5F3CC0515FB04F528
:1019700001EE105AB8EE411AF0EE410A00286FD07D
:1019800023B1012B4ED0022B6BD16BE0734D283D60
:101990002D68C5F340153DB3704D283D2D68C5F346
:1019A000C1066F4D25FA06F201EE102AF8EE411A33
:1019B00001EE100AB8EE411A81EE812A9FED691AF4
:1019C000C0EE811A654D10352D68C5F3080501EE8E
:1019D000105AB8EE411A31EE811AF7EE001A31EEC4
:1019E000211A22EE010A1CE001EE100AB8EE411A9B
:1019F000DFED5D1A81EE812A9FED5A1AC0EE811A41
:101A0000564D10352D68C5F3080501EE105AB8EE95
:101A1000411A31EE811AF7EE001A31EE211A22EE48
:101A2000010A5BE001EE100AB8EE411ADFED4F1A31
:101A300081EE812A9FED4B1AC0EE811A474D103579
:101A40002D68C5F3080501EE105AB8EE411A31EEC3
:101A5000811AF7EE001A31EE211A22EE010A3DE05A
:101A600077E01DE001EE100AB8EE411A9FED402A22
:101A7000C2EE011A9FED3B1A80EE812A374D1035D8
:101A80002D68C5F3080501EE105AB8EE411A32EE82
:101A9000011AB7EE002A31EE021A21EE810A1DE08A
:101AA00001EE100AB8EE411ADFED301A81EE812AFC
:101AB0009FED2C1AC0EE811A284D10352D68C5F304
:101AC000080501EE105AB8EE411A31EE811AF7EE10
:101AD000001A31EE211A22EE010A00BF00BF1F4D8D
:101AE00010352D68C5F3462501EE105AB8EE411A9F
:101AF000F7EE001A31EE211AC0EE011ABCEEE11A1F
:101B000081ED001A154D10352D68C5F3064501EE1F
:101B1000105AB8EE411AF7EE001A31EE211AC0EE53
:101B2000011ABCEEE11A81ED011A0C4D10352D6839
:101B3000C5F3066501EE105AB8EE411AF7EE001A29
:101B400031EE211AC0EE011ABCEEE11A81ED021A43
:101B500003E000250D604D608D6070BD2844025883
:101B60000090D003000000460024744C0024744A06
:101B700020BCBE4B70B50146844D2D6805F00303B3
:101B8000824D2D68C5F30550804D2D1D2D68C5F380
:101B900000247E4D1C352D68C5F3CC0515FB04F5DE
:101BA00001EE105AB8EE411AF0EE410A00286FD04B
:101BB00023B1012B4ED0022B6BD16BE0734D283D2E
:101BC0002D68C5F340153DB3704D283D2D68C5F314
:101BD000C1066F4D25FA06F201EE102AF8EE411A01
:101BE00001EE100AB8EE411A81EE812A9FED691AC2
:101BF000C0EE811A654D18352D68C5F3080501EE54
:101C0000105AB8EE411A31EE811AF7EE001A31EE91
:101C1000211A22EE010A1CE001EE100AB8EE411A68
:101C2000DFED5D1A81EE812A9FED5A1AC0EE811A0E
:101C3000564D18352D68C5F3080501EE105AB8EE5B
:101C4000411A31EE811AF7EE001A31EE211A22EE16
:101C5000010A5BE001EE100AB8EE411ADFED4F1AFF
:101C600081EE812A9FED4B1AC0EE811A474D18353F
:101C70002D68C5F3080501EE105AB8EE411A31EE91
:101C8000811AF7EE001A31EE211A22EE010A3DE028
:101C900077E01DE001EE100AB8EE411A9FED402AF0
:101CA000C2EE011A9FED3B1A80EE812A374D18359E
:101CB0002D68C5F3080501EE105AB8EE411A32EE50
:101CC000011AB7EE002A31EE021A21EE810A1DE058
:101CD00001EE100AB8EE411ADFED301A81EE812ACA
:101CE0009FED2C1AC0EE811A284D18352D68C5F3CA
:101CF000080501EE105AB8EE411A31EE811AF7EEDE
:101D0000001A31EE211A22EE010A00BF00BF1F4D5A
:101D100018352D68C5F3462501EE105AB8EE411A64
:101D2000F7EE001A31EE211AC0EE011ABCEEE11AEC
:101D300081ED001A154D18352D68C5F3064501EEE5
:101D4000105AB8EE411AF7EE001A31EE211AC0EE21
:101D5000011ABCEEE11A81ED011A0C4D18352D68FF
:101D6000C5F3066501EE105AB8EE411AF7EE001AF7
:101D700031EE211AC0EE011ABCEEE11A81ED021A11
:101D800003E000250D604D608D6070BD2844025851
:101D90000090D003000000460024744C0024744AD4
:101DA00020BCBE4B2DE9F04104460025A8464FF06B
:101DB0000062D4E900101140002013465940404011
:101DC000014331D1A06E48B1B0F5801F0DD0B0F500
:101DD000001F11D0B0F5401F16D114E0F94800687B
:101DE00040F40030F749086010E0022104F10800D7
:101DF00002F066FE054609E0022104F1280002F027
:101E000011FF054602E001E0012500BF00BF55B902
:101E1000EC482430006820F44010A16E0843E949E2
:101E20002431086000E0A8464FF48073D4E9001024
:101E3000194000205940404001432ED1A06D052893
:101E40001BD2DFE800F0030A11181900DD48006812
:101E500040F40030DB49086011E0002104F1080083
:101E600002F02EFE05460AE0002104F1280002F0EF
:101E7000D9FE054603E002E001E0012500BF00BFF6
:101E800055B9D0482430006820F00700A16D084300
:101E9000CC492431086000E0A8464FF40073D4E92F
:101EA00000101940002059404040014334D1E06DFA
:101EB000802818D003DC40B140281DD10CE0C02898
:101EC00018D0B0F5807F17D115E0BE48006840F407
:101ED0000030BC49086011E0002104F1080002F064
:101EE000EFFD05460AE0002104F1280002F09AFE09
:101EF000054603E002E001E0012500BF00BF55B93F
:101F0000B0482430006820F4E070E16D0843AD492A
:101F10002431086000E0A8464FF48063D4E9001043
:101F20001940002059404040014339D1D4F8A8005D
:101F3000B0F5800F1AD004DC50B1B0F5001F1ED1EF
:101F40000DE0B0F5C00F18D0B0F5000F17D115E0B7
:101F50009C48006840F400309A49086011E0002174
:101F600004F1080002F0ACFD05460AE0002104F18E
:101F7000280002F057FE054603E002E001E00125DB
:101F800000BF00BF5DB98F482C30006820F46000AE
:101F9000D4F8A81008438B492C31086000E0A8460B
:101FA0004FF40062D4E9001011400020134659405C
:101FB0004040014339D1D4F8AC00B0F1007F1AD0D1
:101FC00004DC50B1B0F1807F1ED10DE0B0F1407F54
:101FD00018D0B0F1806F17D115E07A48006840F44E
:101FE00000307849086011E0002104F1080002F097
:101FF00067FD05460AE0002104F1280002F012FE08
:10200000054603E002E001E0012500BF00BF5DB925
:102010006C482C30006820F0E060D4F8AC10084325
:1020200068492C31086000E0A8464FF00073D4E9FD
:1020300000011840002158404940084328D1E06C75
:10204000A8B1102804D0202809D0302810D10DE0E4
:102050005C48006840F400305A4908600AE00221F8
:1020600004F1080002F02CFD054603E002E001E067
:10207000012500BF00BF55B952482030006820F04C
:102080003000E16C08434F492031086000E0A84669
:102090004FF48053D4E900101940002059404040CB
:1020A000014337D1206EB0F5005F1AD004DC50B187
:1020B000B0F5805F1ED10DE0B0F5405F18D0B0F5EF
:1020C000804F17D115E03F48006840F400303D498B
:1020D000086011E0002104F1080002F0F1FC05465F
:1020E0000AE0002104F1280002F09CFD054603E00F
:1020F00002E001E0012500BF00BF55B9314824309E
:10210000006820F4E040216E08432E492431086025
:1021100000E0A8464FF40053D4E900101940002015
:1021200059404040014335D1606EB0F5403F1ED06C
:1021300007DC68B1B0F5803F0BD0B0F5003F19D196
:102140000EE0B0F5802F13D0B0F5A02F12D110E023
:1021500012E0012104F1080002F0B2FC05460BE098
:10216000012104F1280002F05DFD054604E003E0D2
:1021700002E001E0012500BF00BF55B9114824303D
:10218000006820F4E020616E08430E4924310860A5
:1021900000E0A8464FF48043D4E900011840002134
:1021A00058404940084337D1D4F8B000B0F1405FFF
:1021B00020D009DC78B1B0F1805F0DD0B0F1005FC4
:1021C0001BD110E02C440258B0F1804F13D0B0F175
:1021D000A04F12D110E012E0012104F1080002F03A
:1021E0006FFC05460BE0012104F1280002F01AFD06
:1021F000054604E003E002E001E0012500BF00BF66
:102200004DB9FE48006820F0E040D4F8B010084313
:10221000FA49086000E0A8464FF40042D4E90010F3
:1022200011400020134659404040014329D1206FFE
:10223000B0B1B0F1805F03D0B0F1005F11D108E020
:10224000EE482C38006840F40030EC492C39086026
:1022500009E0012104F1080002F032FC054602E029
:1022600001E0012500BF00BF55B9E4480838006807
:1022700020F04050216F0843E0490839086000E031
:10228000A8464FF08072D4E9001011400020134698
:102290005940404001432AD1A06CB8B1012804D074
:1022A00002280BD0032812D10FE0D4482C38006844
:1022B00040F40030D1492C3908600AE0022104F1D1
:1022C000080002F0FDFB054603E002E001E0012505
:1022D00000BF00BF55B9C9480C38006820F00300A2
:1022E000A16C0843C5490C39086000E0A8464FF4CA
:1022F0008002D4E9000110400021134658404940B3
:1023000008437DD1BE48006840F48070BC49086035
:10231000FEF76EFF064606E0FEF76AFF801B6428A4
:1023200001D9032505E0B648006800F48070002854
:10233000F2D000BF85BBB1481830006800F440708F
:10234000B4F8B41001F44071884213D0AB4818308F
:10235000006820F44077A9481830006840F48030C5
:10236000A649183108600846006820F480300860EB
:1023700008460760D4F8B400B0F5807F15D1FEF7A9
:1023800037FF064609E0FEF733FF801B41F2883134
:10239000884202D9032507E038E0984818300068E1
:1023A000C0F340000028EED000BF55BB00BFB4F81A
:1023B000B40000F44070B0F5407F0ED18F4848382B
:1023C000006820F47C518F4AD4F8B400104041EAF0
:1023D00010108A494839086007E088484838006882
:1023E00020F47C50854948390860844818300068DA
:1023F000B4F8B410C1F30B0108438049183101E06F
:1024000005E001E0086002E0A84600E0A8460122DD
:10241000D4E90001104000211346584049400843C8
:1024200030D1E06F18281AD005DC48B1082808D050
:10243000102817D10CE0202812D0282812D110E043
:1024400012E0012104F1080002F03AFB05460BE01E
:10245000012104F1280002F0E5FB054604E003E059
:1024600002E001E0012500BF00BF55B96348001F2D
:10247000006820F03800E16F08436049091F0860D8
:1024800000E0A8460222D4E90001104000211346D2
:1024900058404940084329D1A06F062816D2DFE8EA
:1024A00000F003040B12131412E0012104F10800E0
:1024B00002F006FB05460BE0012104F1280002F0C2
:1024C000B1FB054604E003E002E001E0012500BFA6
:1024D00000BF55B94948001F006820F00700A16FF0
:1024E00008434649091F086000E0A8460423D4E9D0
:1024F00000101940002059404040014329D1D4F830
:102500009400062816D2DFE800F003040B1213141F
:1025100012E0012104F1080002F0D2FA05460BE0B6
:10252000012104F1280002F07DFB054604E003E0F0
:1025300002E001E0012500BF00BF4DB92F4800684F
:1025400020F00700D4F8941008432C49086000E0FC
:10255000A8462023D4E900011840002158404940F2
:10256000084337D1D4F89000B0F1405F1ED007DCAB
:1025700068B1B0F1805F0BD0B0F1005F19D10EE00F
:10258000B0F1804F13D0B0F1A04F12D110E012E0A3
:10259000002104F1080002F093FA05460BE0022145
:1025A00004F1280002F03EFB054604E003E002E0EF
:1025B00001E0012500BF00BF5DB91048001F0068A1
:1025C00020F0E040D4F8901008430C49091F08603F
:1025D00000E0A8464023D4E90010194000205940EB
:1025E000404001433CD1D4F89C00B0F5406F25D069
:1025F0000EDCA0B1B0F5806F12D005E0584402584F
:1026000000480258FFFCFF0FB0F5006F19D10EE033
:10261000B0F5805F13D0B0F5A05F12D110E012E0EA
:10262000002104F1080002F04BFA05460BE00221FC
:1026300004F1280002F0F6FA054604E003E002E0A7
:1026400001E0012500BF00BF4DB9FE48006820F43D
:10265000E050D4F89C100843FA49086000E0A8460E
:102660008023D4E900101940002059404040014324
:1026700035D1D4F8A000B0F5C04F1ED007DC68B14A
:10268000B0F5005F0BD0B0F5804F19D10EE0B0F57A
:10269000004F13D0B0F5204F12D110E012E000210E
:1026A00004F1080002F00CFA05460BE0022104F1E7
:1026B000280002F0B7FA054604E003E002E001E07A
:1026C000012500BF00BF4DB9DE48006820F460401E
:1026D000D4F8A0100843DB49086000E0A8460823AE
:1026E000D4E900101940002059404040014317D15F
:1026F000D4F88400B0F5805F07D1022104F12800EE
:1027000002F090FA08B14FF00108CE48001F0068AF
:1027100020F44050D4F884100843CA49091F0860C7
:102720001023D4E9001019400020594040400143D3
:1027300015D1D4F89800B0F5807F07D1022104F1BB
:10274000280002F06FFA08B14FF00108BD48006898
:1027500020F44070D4F898100843BA4908604FF448
:102760000022D4E90001104000211346584049409E
:10277000084327D1D4F8A40030B1B0F5803F0AD087
:10278000B0F5003F0FD10DE0002104F1080002F088
:1027900097F9054609E0022104F1280002F042FA07
:1027A000054602E001E0012500BF00BF4DB9A54884
:1027B000006820F44030D4F8A4100843A149086010
:1027C00000E0A8464FF48023D4E90001184000211E
:1027D0005840494008432DD1D4F88800B0F5801FF7
:1027E00006D0B0F5001F0CD0B0F5401F11D10FE09E
:1027F00094482C38006840F4003092492C39086025
:1028000009E0012104F1280002F00CFA054602E07B
:1028100001E0012500BF00BF5DB98A48001F0068C4
:1028200020F44010D4F8881008438649091F086036
:1028300000E0A8464FF48032D4E9000110400021A6
:10284000134658404940084325D1206D18B1B0F5D2
:10285000803F10D108E07B482C38006840F40030FD
:1028600078492C39086008E0022104F1080002F0E0
:1028700027F9054601E0012500BF00BF55B97148A1
:102880000C38006820F48030216D08436D490C3904
:10289000086000E0A8464FF00052D4E90010114053
:1028A0000020134659404040014307D1022104F162
:1028B000280002F0B7F908B14FF001084FF40033D7
:1028C000D4E900011840002158404940084329D16B
:1028D000D4F88000A0B1B0F5807F06D0B0F5007FBD
:1028E0000CD0B0F5407F0CD109E056482C38006878
:1028F00040F4003053492C39086004E003E002E062
:1029000001E0012500BF00BF5DB94E48001F00680F
:1029100020F44070D4F8801008434A49091F086029
:1029200000E0A8464FF48012D4E9001011400020C6
:10293000134659404040014309D1424808380068D5
:1029400020F00040616F08433E49083908604FF0AD
:102950008052D4E9001011400020134659404040F5
:1029600001430AD137484838006820F48040D4F841
:10297000B81008433349483908604FF40012D4E9CD
:10298000001011400020134659404040014309D136
:102990002C480838006820F08070E16E084329490F
:1029A000083908604FF08042D4E90010114000203F
:1029B000134659404040014311D100BF21484838D7
:1029C000006820F400401F49483908600846006844
:1029D000D4F8BC1008431B494839086000BF4FF0C9
:1029E0000042D4E9001011400020134659404040F5
:1029F000014309D113480C38006820F04050616D44
:102A0000084310490C3908604FF40002D4E9001063
:102A10001140002013465940404001430AD1094863
:102A2000001F006820F44000D4F88C1008430549CA
:102A3000091F0860012300216068184001224940F5
:102A4000504001E058440258014306D104F1080007
:102A500002F036F8054605B1A8460222002160685A
:102A6000104049405040014307D1012104F10800C2
:102A700002F026F8054605B1A84604230020616847
:102A80001940042240405140084307D1022104F17B
:102A9000080002F015F8054605B1A84608230021F4
:102AA00060681840082249405040014306D104F1B3
:102AB000280002F0B7F8054605B1A846102200210B
:102AC0006068104049405040014307D1012104F1A2
:102AD000280002F0A7F8054605B1A84620220020EC
:102AE0006168114040405140084307D1022104F180
:102AF000280002F097F8054605B1A846B8F1000F86
:102B000002D10020BDE8F0810120FBE72DE9F04172
:102B100004460D4614B90120BDE8F081BD480068A7
:102B200000F00F00A8420ED2BA48006820F00F0053
:102B30002843B84908600846006800F00F00A84222
:102B400001D00120E8E7207800F0040004280ED12D
:102B5000B1492069096801F07001884207D9AE487F
:102B6000006820F0700021690843AB4908602078B4
:102B700000F00800082811D1A749091D60690968FB
:102B800001F07001884209D9A348001D006820F0B7
:102B9000700061690843A049091D0860207800F0B1
:102BA0001000102811D19C49091DA069096801F481
:102BB000E061884209D99848001D006820F4E0606F
:102BC000A16908439449091D0860207800F020009D
:102BD000202811D190490831E069096801F070019D
:102BE000884209D98C480830006820F07000E169FB
:102BF0000843894908310860207800F00200022863
:102C00000ED18549E068096801F00F01884207D9B3
:102C10008148006820F00F00E16808437E490860A1
:102C2000207800F00100002850D07B48006820F494
:102C30007060A1680843784908606068022807D17D
:102C4000754818380068C0F34040F8B9012063E7C0
:102C50006068032807D1704818380068C0F34060E6
:102C6000A0B9012058E76068012807D16A481838E0
:102C70000068C0F3002048B901204DE766481838C5
:102C80000068C0F3800008B9012045E762480838B1
:102C9000006820F00700616808435F490839086050
:102CA000FEF7A6FA064608E0FEF7A2FA801B41F2FC
:102CB0008831884201D903202EE757480838006838
:102CC00000F038006168B0EBC10FEDD1207800F062
:102CD000020002280ED15049E068096801F00F0196
:102CE000884207D24C48006820F00F00E168084392
:102CF000494908604748006800F00F00A8420ED913
:102D00004448006820F00F00284342490860084604
:102D1000006800F00F00A84201D00120FCE62078F6
:102D200000F0040004280ED13B492069096801F035
:102D30007001884207D23848006820F0700021698D
:102D4000084335490860207800F00800082811D1B0
:102D50003149091D6069096801F07001884209D292
:102D60002D48001D006820F07000616908432A4961
:102D7000091D0860207800F01000102811D12649A4
:102D8000091DA069096801F4E061884209D222485E
:102D9000001D006820F4E060A16908431E49091D78
:102DA0000860207800F02000202811D11A4908314D
:102DB000E069096801F07001884209D216480830BC
:102DC000006820F07000E169084313490831086089
:102DD00000F0ACF810490968C1F303210F4A515CB7
:102DE00001F01F0120FA01F70B48006800F00F0006
:102DF0001146085C00F01F0027FA00F0084908603F
:102E00000848076008480068FEF72EFC80464046E8
:102E100082E600000020005218440258647A00083C
:102E20003400002430000024280000243F220260E7
:102E3000174A126802F007024260154A0832126807
:102E400002F470628260124A0832126802F00F02C5
:102E5000C2600F4A0832126802F0700202610C4A26
:102E60000C32126802F070024261094A0C32126898
:102E700002F4E0628261064A1032126802F07002C7
:102E8000C261044A126802F00F020A607047000033
:102E9000104402580020005210B500F047F80D49C8
:102EA0000968C1F303210C4A515C01F01F0120FAAB
:102EB00001F40848006800F00F001146085C00F0BB
:102EC0001F0024FA00F00549086005480460084620
:102ED000006810BD18440258647A000834000024C9
:102EE0003000002400B5FFF7D7FF05490968C1F39A
:102EF0000211044A515C01F01F01C84000BD0000EE
:102F00001C440258647A000800B5FFF7C5FF054964
:102F10000968C1F30221044A515C01F01F01C84055
:102F200000BD00001C440258647A0008F0B5824ECF
:102F3000366806F0380636B1082E15D0102E15D09A
:102F4000182E7DD114E07C4E103E3668C6F3401634
:102F500046B1794E103E3668C6F3C107774E26FA61
:102F600007F000E07548E5E07548E3E07548E1E00A
:102F7000714E1836366806F003046F4E1836366800
:102F8000C6F305116C4E1C36366806F001056A4E14
:102F900024363668C6F3CC0616FB05F601EE106A39
:102FA000B8EE410A002971D024B1012C50D0022C76
:102FB0006DD16DE0604E103E3668C6F340163EB3EC
:102FC0005D4E103E3668C6F3C1075C4E26FA07F325
:102FD00001EE103AF8EE411A01EE101AB8EE411A5D
:102FE00081EE812A9FED581AC0EE011A524E20360A
:102FF0003668C6F3080601EE106AB8EE411A31EEE3
:10300000811AF7EE001A31EE211A62EE010A1EE073
:1030100001EE101AB8EE411ADFED4C1A81EE812A4A
:103020009FED491AC0EE011A434E20363668C6F3AA
:10303000080601EE106AB8EE411A31EE811A00E07E
:1030400076E0F7EE001A31EE211A62EE010A5BE03B
:1030500001EE101AB8EE411A9FED3D2AC2EE011A98
:103060009FED391A80EE012A334E20363668C6F3BA
:10307000080601EE106AB8EE411A32EE011AB7EEF8
:10308000002A31EE021A61EE810A3DE04EE01DE0B9
:1030900001EE101AB8EE411ADFED2E1A81EE812AE8
:1030A0009FED291AC0EE011A234E20363668C6F36A
:1030B000080601EE106AB8EE411A31EE811AF7EEF9
:1030C000001A31EE211A62EE010A1DE001EE101A1B
:1030D000B8EE411A9FED1E2AC2EE011A9FED1A1A90
:1030E00080EE012A144E20363668C6F3080601EE3B
:1030F000106AB8EE411A32EE011AB7EE002A31EE2C
:10310000021A61EE810A00BF00BF0B4E20363668FE
:10311000C6F34626721C01EE102AB8EE411AC0EE24
:10312000811ABCEEE11A11EE100A00E0002001E065
:10313000034800BF00BFF0BD104402580090D00308
:1031400000093D0040787D01000000460024744CD9
:103150000024744A20BCBE4B2DE9F047044614B944
:103160000120BDE8F087207800F00100002870D031
:10317000FA48006800F03808F8481830D0F8009095
:10318000B8F1100F06D0B8F1180F0FD109F00300F5
:1031900002280BD1F14810380068C0F340400028E5
:1031A0006AD06068002867D10120DAE700BF606854
:1031B000B0F5803F08D1E9481038006840F480300D
:1031C000E649103908602EE0606868B9E3481038B5
:1031D000006820F48030E149103908600846006832
:1031E00020F4802008601EE06068B0F5A02F0DD1AB
:1031F000DA481038006840F48020D8491039086057
:103200000846006840F4803008600CE0D34810386D
:10321000006820F48030D149103908600846006801
:1032200020F48020086000BF606898B1FDF7E0FFDF
:10323000054606E0FDF7DCFF401B642801D90320AA
:103240008FE7C64810380068C0F340400028F1D02E
:1032500012E012E0FDF7CCFF054606E0FDF7C8FFDF
:10326000401B642801D903207BE7BC481038006864
:10327000C0F340400028F1D100BF207800F00200E8
:10328000022874D1B548006800F03808B3481830F7
:10329000D0F80090B8F1000F05D0B8F1180F56D152
:1032A00009F00300D0BBAD4810380068C0F38000BF
:1032B00018B1E06808B9012053E7A8481038006841
:1032C00020F01900E1680843A44910390860FDF7AF
:1032D0008FFF054606E0FDF78BFF401B022801D952
:1032E00003203EE79D4810380068C0F380000028A6
:1032F000F1D000BFFDF776FF41F2030188421AD8F2
:10330000206940280BD195480C38006820F47C30A7
:1033100040F4003091490C39086017E017E08F48FD
:103320000C38006820F47C30216940EA01308B4978
:103330000C3908600AE089480C38006820F0FE402B
:10334000217C40EA016085490C39086066E0E0684C
:1033500088B382481038006820F01900E1680843FB
:103360007E4910390860FDF743FF054607E056E047
:10337000FDF73EFF401B022801D90320F1E6774804
:1033800010380068C0F380000028F1D000BFFDF7BE
:1033900029FF41F2030188421AD8206940280BD145
:1033A0006E480C38006820F47C3040F400306B49E3
:1033B0000C39086017E017E068480C38006820F402
:1033C0007C30216940EA013064490C3908600AE028
:1033D00062480C38006820F0FE40217C40EA016021
:1033E0005E490C39086019E05C481038006820F02C
:1033F00001005A4910390860FDF7FAFE054606E05B
:10340000FDF7F6FE401B022801D90320A9E6534828
:1034100010380068C0F380000028F1D100BF207888
:1034200000F0100010287CD14C48006800F03808EB
:103430004A481830D0F80090B8F1080F06D0B8F11B
:10344000180F3DD109F00300012839D14348103845
:103450000068C0F3002020B1E069802801D001207D
:103460007FE600BFFDF7BEFE41F2030188421AD895
:10347000206A20280AD139480C38006820F0F8402A
:1034800040F0804035490C39086018E033480C386A
:10349000006820F0F84094F8201040EA81602F493D
:1034A0000C3908600BE02D48001F006820F07C50AC
:1034B00094F8201040EA01602849091F086066E07E
:1034C000E06978B325481038006840F0800023494F
:1034D00010390860FDF78CFE054606E0FDF788FE12
:1034E000401B022801D903203BE61C481038006825
:1034F000C0F300200028F1D000BFFDF773FE41F2B9
:10350000030188421CD8206A20280CD113480C38AB
:10351000006820F0F84040F0804010490C39086005
:103520001AE035E01CE00D480C38006820F0F84047
:1035300094F8201040EA816008490C3908600BE0DB
:103540000648001F006820F07C5094F8201040EAE4
:1035500001600249091F086019E000001044025888
:10356000FA48006820F08000F8490860FDF740FE46
:10357000054606E0FDF73CFE401B022801D903206A
:10358000EFE5F2480068C0F300200028F2D100BF48
:10359000207800F00800082836D16069D0B1EB48E7
:1035A0007430006840F00100E84974310860FDF7AC
:1035B0001FFE054606E0FDF71BFE401B022801D951
:1035C0000320CEE5E14874300068C0F340000028D5
:1035D000F1D019E0DD487430006820F00100DB49CB
:1035E00074310860FDF704FE054606E0FDF700FEB5
:1035F000401B022801D90320B3E5D4487430006889
:10360000C0F340000028F1D1207800F020002028ED
:1036100030D1A069B8B1CD48006840F48050CB49A2
:103620000860FDF7E5FD054606E0FDF7E1FD401BFE
:10363000022801D9032094E5C4480068C0F3403053
:103640000028F2D016E0C148006820F48050BF493D
:103650000860FDF7CDFD054606E0FDF7C9FD401BFE
:10366000022801D903207CE5B8480068C0F3403047
:103670000028F2D1207800F0040004287DD1B4485D
:10368000006840F48070B2490860FDF7B1FD05465E
:1036900006E0FDF7ADFD401B642801D9032060E57D
:1036A000AB48006800F480700028F2D000BFA0682A
:1036B000012808D1A5487030006840F00100A349F6
:1036C000703108602DE0A06868B9A04870300068CB
:1036D00020F001009D49703108600846006820F024
:1036E000040008601DE0A06805280DD197487030DF
:1036F000006840F004009549703108600846006891
:1037000040F0010008600CE090487030006820F044
:1037100001008E49703108600846006820F00400FE
:10372000086000BFA068A0B1FDF762FD054608E093
:10373000FDF75EFD401B41F28831884201D903202C
:103740000FE5824870300068C0F340000028EFD0D9
:1037500013E0FDF74DFD054608E0FDF749FD401B70
:1037600041F28831884201D90320FAE47748703069
:103770000068C0F340000028EFD1606A00287DD0C7
:1037800072481030006800F03800182877D0606A5E
:10379000022875D16D48006820F080706B49086080
:1037A000FDF726FD054606E0FDF722FD401B022839
:1037B00001D90320D5E465480068C0F340600028C3
:1037C000F2D100BFD4E90A1041EA00105F49283164
:1037D000096840F2F332914308435C49283108609C
:1037E000208E401EC0F30800616B491E4FF47E42DC
:1037F00002EA41210843218F491ED20102EA014118
:1038000008433C21095D491E120202EA0161084396
:103810004E493031086000BF081F006820F00100E9
:10382000091F08604948343000684FF6F871884332
:10383000A16C40EAC10045493431086043482C304E
:10384000006820F00C00216C084340492C310860CE
:103850000846006820F00200616C08433B492C31A7
:1038600008600846006840F4803008600846006838
:1038700040F4003008600846006802E093E038E059
:103880001FE040F4802008600846006840F0010016
:1038900008602E48006840F080702C490860FDF7F1
:1038A000A7FC054606E0FDF7A3FC401B022801D952
:1038B000032056E425480068C0F340600028F2D099
:1038C00071E02248006820F0807020490860FDF710
:1038D0008FFC054606E0FDF78BFC401B022801D952
:1038E00003203EE419480068C0F340600028F2D18C
:1038F00059E0164828300768144830300668606A76
:10390000012821D007F00301A06A81421CD1C7F32E
:103910000511E06A884217D1C6F30801206B401EEA
:10392000814211D1606B401EC6F3462188420BD103
:10393000A06B401EC6F30641884205D1E06B401ED5
:10394000C6F30661884205D001200AE4004402580B
:103950000048025815480068C0F3CC07A06CB84274
:1039600021D012480838006820F001000F490839BA
:103970000860FDF73DFC054600BFFDF739FC401B24
:10398000FBD00A4800684FF6F8718843A16C40EA02
:10399000C1000649086005480838006840F0010089
:1039A00002490839086000204AE400003444025803
:1039B000034A126882430A43014B1A6070470000B1
:1039C0000404005870477047704710B504460CB99E
:1039D000012010BD94F83D0028B9002084F83C0077
:1039E000204600F029F8022084F83D00211D2068BF
:1039F00001F0D0FA012084F8480000BF84F83E00AE
:103A000001213F2001554020015541200155422010
:103A100001554320015500BF00BF012084F8440038
:103A200045200155462001554720015500BF012082
:103A300084F83D000020CCE770470000014691F873
:103A40003D00012801D001207047022081F83D008F
:103A50000868C06840F001000B68D8601C4B08681B
:103A600098421BD00868B0F1804F17D0194B0868F6
:103A7000984213D0184B086898420FD0174B08682B
:103A800098420BD0164B0868984207D0154B08682F
:103A9000984203D0144B0868984210D10868806897
:103AA000124B00EA0302062A0FD0B2F5803F0CD079
:103AB0000868006840F001000B68186005E00868BD
:103AC000006840F001000B6818600020BCE70000AF
:103AD000000001400004004000080040000C0040CD
:103AE00000040140001800400040014007000100B0
:103AF000704770B504462068C6682068056905F0FF
:103B00000200022819D106F00200022815D1401F38
:103B100021680861012020772068806900F0030097
:103B200018B12046FFF7E4FF05E0204600F0ADF8AD
:103B3000204600F0ABF80020207705F004000428B0
:103B400019D106F00400042815D1C043216808618A
:103B5000022020772068806900F4407018B1204668
:103B6000FFF7C6FF05E0204600F08FF8204600F082
:103B70008DF80020207705F00800082819D106F0FC
:103B80000800082815D1C043216808610420207767
:103B90002068C06900F0030018B12046FFF7A8FFB5
:103BA00005E0204600F071F8204600F06FF8002094
:103BB000207705F01000102819D106F01000102809
:103BC00015D1C04321680861082020772068C069AA
:103BD00000F4407018B12046FFF78AFF05E0204648
:103BE00000F053F8204600F051F80020207705F04F
:103BF000010048B106F0010030B16FF0010021680A
:103C00000861204600F044F805F08000802804D0C8
:103C100005F40050B0F5005F0AD106F0800080285E
:103C200006D16FF40250216808612046FFF7CBFEF1
:103C300005F48070B0F5807F0AD106F080008028FE
:103C400006D16FF48070216808612046FFF7BAFE44
:103C500005F04000402809D106F04000402805D179
:103C6000C04321680861204600F01EF805F02000DE
:103C7000202809D106F02000202805D1C043216862
:103C800008612046FFF7A0FE70BD70477047000036
:103C900010B5044603492068884201D1FDF7A8FC0D
:103CA00010BD0000000001407047014600BF91F8C0
:103CB0008400012801D102207047012081F884008E
:103CC00000BF2420C1F888000868026808680068FE
:103CD00020F001000B68186022F0005200204866B6
:103CE000086802602020C1F8880000BF002081F829
:103CF000840000BF00BFDFE77047704770B504461F
:103D00000D4600BF94F88400012801D1022070BD47
:103D1000012084F8840000BF2420C4F888002068B3
:103D200006682068006820F00100216808602068AB
:103D3000806820F06060284321688860204601F098
:103D400093F9206806602020C4F8880000BF002096
:103D500084F8840000BF00BFD9E770B504460D4663
:103D600000BF94F88400012801D1022070BD012019
:103D700084F8840000BF2420C4F888002068066806
:103D80002068006820F001002168086020688068D1
:103D900020F06040284321688860204601F064F9E3
:103DA000206806602020C4F8880000BF002084F846
:103DB000840000BF00BFD9E770477047704700001C
:103DC0002DE9F04704462068C56920680668206828
:103DD000876840F60F0005EA0009B9F1000F0FD11E
:103DE00005F0200060B106F0200010B907F0805007
:103DF00030B1606F10B12046616F8847BDE8F08731
:103E0000B9F1000F7ED0F848384018B9F748304073
:103E10000028F7D005F0010058B106F4807040B1D9
:103E2000012021680862D4F8900040F00100C4F835
:103E3000900005F0020058B107F0010040B10220E7
:103E400021680862D4F8900040F00400C4F89000A3
:103E500005F0040058B107F0010040B104202168CA
:103E60000862D4F8900040F00200C4F8900005F019
:103E7000080070B106F0200010B9DB48384040B1AE
:103E8000082021680862D4F8900040F00800C4F8C7
:103E9000900005F4006060B106F0806048B14FF416
:103EA000006021680862D4F8900040F02000C4F857
:103EB0009000D4F89000002852D005F0200050B1B6
:103EC00006F0200010B907F0805020B1606F10B1EB
:103ED0002046616F8847D4F890A02068806800F081
:103EE0004000402802D00AF0280070B3204601F0BC
:103EF000E3F92068806800F04000402826D100BF28
:103F000000BF00E02DE02168083151E8001F21F0DA
:103F100040002168083141E80002002AF1D100BFC9
:103F2000D4F8800068B1B248D4F880100865D4F89D
:103F30008000FCF787FE98B1D4F88000016D8847B7
:103F40000EE02046FFF73AFF0AE003E02046FFF7C5
:103F500035FF05E02046FFF731FF0020C4F8900050
:103F60004CE7E06E01287DD105F01000002879D0E3
:103F700006F010000028FAD010202168086220689E
:103F8000806800F0400040286DD1D4F880000068BF
:103F9000984988426BD0D4F8800000689549183160
:103FA000884264D0D4F88000006892493031884259
:103FB0005DD0D4F8800000688E494831884256D0E0
:103FC000D4F8800000688B49603188424FD0D4F823
:103FD0008000006887497831884248D0D4F8800052
:103FE000006884499031884241D0D4F8800000684C
:103FF0008049A83188423AD0D4F8800000687E49D0
:10400000884234D0D4F8800000687B491831884257
:104010002DD0D4F88000006877493031884226D00E
:10402000D4F8800000687449483188421FD0D4F821
:104030008000006870496031884218D0D4F8800050
:1040400000686D497831884211D0D4F8800000684A
:104050006949903188420AD0D4F8800000686649E6
:10406000A83102E0CAE07BE001E0884204D1D4F844
:1040700080000068406803E0D4F880000068406871
:104080001FFA80F8B8F1000F58D0B4F85C00404532
:1040900054DDA4F85E80D4F88000C069B0F5807F5C
:1040A00040D000BF00BF216851E8001F21F480709C
:1040B000226842E800010029F5D100BF00BF00BF1F
:1040C0002168083151E8001F21F001002168083102
:1040D00041E80002002AF3D100BF00BF00BF216801
:1040E000083151E8001F21F040002168083141E803
:1040F0000002002AF3D100BF2020C4F88C00002069
:10410000E06600BF00BF216851E8001F21F01000E9
:10411000226842E800010029F5D100BFD4F88000F0
:10412000FCF722FB02202067B4F85C00B4F85E20A4
:10413000801A81B22046FFF7DFFD10E0B4F85C0082
:1041400040450CD1D4F88000C069B0F5807F06D11D
:1041500002202067B4F85C102046FFF7CDFD4DE645
:1041600034F85C0F6188401A1FFA80F860885C3C64
:10417000C8B3B8F1000F36D000BF00BF216851E8C6
:10418000001F21F49070226842E800010029F5D157
:1041900000BF00BF00BF2168083151E8001F124A6C
:1041A000D24301EA02002168083141E80002002AF6
:1041B000F1D100BF2020C4F88C000020E0666067C9
:1041C00000BF00BF216851E8001F21F010002268E5
:1041D00042E800010029F5D100BF022020674146D6
:1041E0002046FFF789FD09E60100001020010004C8
:1041F000A3520008100002401004024005F4801091
:1042000050B107F4800038B14FF480102168086283
:104210002046FFF7D2FDF1E505F0800058B106F029
:10422000800010B907F4000028B1A06F10B120463B
:10423000A16F8847E2E505F0400030B106F040008C
:1042400018B1204601F06EF8D8E505F4000030B151
:1042500006F0804018B12046FFF7AEFDCEE505F030
:10426000807030B106F0004018B12046FFF745FDE0
:10427000C4E500BFC2E510B504460CB9012010BD6D
:10428000A06900B100E000BFD4F8880028B9002080
:1042900084F88400204600F02BF82420C4F888001D
:1042A0002068006820F0010021680860A06A10B151
:1042B000204600F005FF204601F04CF8012800D10F
:1042C000DDE72068406820F490402168486020685D
:1042D000806820F02A00216888602068006840F02B
:1042E000010021680860204600F066FFC7E7000073
:1042F00010B5B8B00446142132A8FCF765F9C02106
:1043000002A8FCF761F96C49206888423ED102217D
:104310000020CDE90210209002A8FDF743FD08B16E
:10432000FCF70CFA00BF6548006840F400306349B0
:1043300008600846006800F40030019000BF00BF2C
:1043400000BF5E480838006840F008005B49083943
:1043500008600846006800F00800019000BF00BF38
:104360006020329002203390002034903590072056
:10437000369032A95248FCF731FE00220521262052
:10438000FDF74CFA2620FDF735FA93E04D492068F9
:10439000884252D102210020CDE90210209002A8CB
:1043A000FDF700FD08B1FCF7C9F900BF43480068FC
:1043B00040F48020414908600846006800F48020ED
:1043C000019000BF00BF00BF3C480838006840F0C3
:1043D00004003A49083908600846006800F0040003
:1043E000019000BF00BF00BF0846006840F0020017
:1043F00008600846006800F00200019000BF00BF9E
:104400004FF4806032900220339000203490359039
:104410000720369032A92C48FCF7E0FD4FF40060ED
:10442000329002203390002034903590072036904F
:1044300032A92648FCF7D2FD3CE025492068884295
:1044400038D101210020CDE90210219002A8FDF70A
:10445000A9FC08B1FCF772F900BF184808300068E1
:1044600040F020001549083108600846006800F057
:104470002000019000BF00BF00BF1048083800684E
:1044800040F040000D49083908600846006800F017
:104490004000019000BF00BF4FF4844032900220E2
:1044A00033900020349035900720369032A9094887
:1044B000FCF794FD38B010BD00440040E8440258B9
:1044C000000C02580048004000080258000402583E
:1044D0000014014000180258704700BFFEE71FB5E6
:1044E00000200090019002900390FDF735F9012023
:1044F0008DF8000000208DF8010001901F208DF83C
:10450000080087208DF8090000208DF80A008DF83A
:104510000B0001208DF80C008DF80D0000208DF8A7
:104520000E008DF80F006846FDF7E8F80420FDF74F
:1045300029F91FBD00B587B0142102A8FCF744F883
:1045400000BFAA48006840F48070A8490860084687
:10455000006800F48070019000BF00BF00BF0846F3
:10456000006840F0400008600846006800F0400025
:10457000019000BF00BF00BF0846006840F008007F
:1045800008600846006800F00800019000BF00BF06
:1045900000BF0846006840F0040008600846006854
:1045A00000F00400019000BF00BF00BF0846006893
:1045B00040F0100008600846006800F0100001900C
:1045C00000BF00BF00BF0846006840F0020008605E
:1045D0000846006800F00200019000BF00BF00BF65
:1045E0000846006840F4007008600846006800F45F
:1045F0000070019000BF00BF00BF0846006840F097
:10460000010008600846006800F00100019000BF4A
:1046100000BF00BF0846006840F020000860084660
:10462000006800F02000019000BF00BF00BF0846F6
:10463000006840F0800008600846006800F08000D4
:10464000019000BF00BF002204216948FCF7C4FDAF
:10465000002241F20E016748FCF7BEFD0022052151
:104660006548FCF7B9FD002260216448FCF7B4FD01
:1046700000224FF4C0416248FCF7AEFDF0200290EA
:10468000022003900020049005900D20069002A9BE
:104690005C48FCF7A3FC4FF480600290022003907A
:1046A0000020049005900D20069002A95348FCF7C5
:1046B00095FC0220029003900020049005900D20AC
:1046C000069002A94A48FCF789FC4FF4006002906A
:1046D000022003900020049005900D20069002A96E
:1046E0004448FCF77BFC042002900120039000204A
:1046F0000490059002A93E48FCF770FC41F20E00C0
:1047000002900120039000200490059002A93948EE
:10471000FCF764FC4FF4804002900020039004906A
:1047200002A93948FCF75AFC0520029001200390A9
:1047300000200490059002A92F48FCF74FFC4FF48D
:10474000C8600290022003900020049005900D2084
:10475000069002A92D48FCF741FC402002904FF43E
:10476000881003900020049002A92248FCF736FC30
:104770004FF4807002904FF4881003900020049052
:1047800002A91E48FCF72AFC602002900120039039
:1047900000200490059002A91848FCF71FFC4FF474
:1047A00080700290022003900020049005900D205C
:1047B000069002A91648FCF711FC4FF4C040029085
:1047C0000120039000200490059002A90C48FCF7FA
:1047D00005FC00214FF08060FFF7EAF800214FF060
:1047E0000060FFF7E5F807B000BD0000E0440258A4
:1047F0000010025800080258000C02580018025815
:1048000000040258002002580024025800000258F8
:10481000001C025810B5124812490860124848603E
:104820000021104881600121C160002101614161C6
:104830008161C1610162FCF74BFD08B1FBF77EFFAE
:1048400000210848FCF7DAFC08B1FBF777FF0021EC
:104850000448FCF708FD08B1FBF770FF10BD00002D
:1048600000540040B8000024BB7C700010B5124812
:1048700012490860124848600021104881600121F7
:10488000C1600021016141618161C1610162FCF788
:104890001FFD08B1FBF752FF00210848FCF7AEFCF2
:1048A00008B1FBF74BFF00210448FCF7DCFC08B122
:1048B000FBF744FF10BD0000005800400C0100242D
:1048C000BB7C700010B5124812490860124848605D
:1048D0000021104881600121C16000210161416116
:1048E0008161C1610162FCF7F3FC08B1FBF726FFAF
:1048F00000210848FCF782FC08B1FBF71FFF0021EC
:104900000448FCF7B0FC08B1FBF718FF10BD00002D
:10491000005C004060010024BB7C700010B51248B0
:104920001249086012484860002110488160012146
:10493000C1600021016141618161C1610162FCF7D7
:10494000C7FC08B1FBF7FAFE00210848FCF756FC4B
:1049500008B1FBF7F3FE00210448FCF784FC08B122
:10496000FBF7ECFE10BD0000001C0058B401002451
:10497000BC7D701010B51848184908604FF4E1303C
:104980004860002115488160C16001610C214161CE
:1049900000218161C1610162416200200F4988628A
:1049A0000846FFF768FC08B1FBF7C8FE00210B487A
:1049B000FFF7D3F908B1FBF7C1FE00210748FFF765
:1049C0009DF908B1FBF7BAFE0448FFF76EF908B18C
:1049D000FBF7B4FE10BD00000044004008020024B4
:1049E00010B51848184908604FF4E13048600021BC
:1049F00015488160C16001610C2141610021816124
:104A0000C1610162416200200F4988620846FFF7D8
:104A100032FC08B1FBF792FE00210B48FFF79DF92D
:104A200008B1FBF78BFE00210748FFF767F908B1D3
:104A3000FBF784FE0448FFF738F908B1FBF77EFE68
:104A400010BD0000004800409C02002410B518482A
:104A5000184908604FF4E130486000211548816032
:104A6000C16001610C21416100218161C16101626C
:104A7000416200200F4988620846FFF7FCFB08B13D
:104A8000FBF75CFE00210B48FFF767F908B1FBF765
:104A900055FE00210748FFF731F908B1FBF74EFE3C
:104AA0000448FFF702F908B1FBF748FE10BD00000B
:104AB000001401403003002400BFFEE700BFFEE702
:104AC0002DE9F04104460E4600275548006800F0E5
:104AD0000300032802D10120BDE8F08150482838A6
:104AE000006820F080604E4928390860FCF780FBA0
:104AF000054606E0FCF77CFB401B022801D9032099
:104B0000EAE7474828380068C0F3C0600028F1D1C0
:104B100000BF4348006820F47C30216840EA01303F
:104B20003F490860A088401EC0F30800A168491EE4
:104B30004FF47E4202EA41210843A189491ED20175
:104B400002EA01410843217C491E120202EA016186
:104B5000084333491031086000BF3148001D006828
:104B600020F0C000616908432D49091D086008460E
:104B7000006820F02000A16908432949091D086048
:104B80000846006820F010000860254814300068CE
:104B90004FF6F8718843E16940EAC10020491431B9
:104BA00008601F48001D006840F010001C49091DE6
:104BB00008602EB90846006840F40020086012E042
:104BC000012E08D11648001D006840F480101449D9
:104BD000091D086007E01248001D006840F400103D
:104BE0000F49091D08600E482838006840F08060B1
:104BF0000B4928390860FCF7FBFA054606E0FCF78C
:104C0000F7FA401B022801D9032065E70448283839
:104C10000068C0F3C0600028F1D038465CE70000AF
:104C2000284402582DE9F04104460E460027554815
:104C3000006800F00300032802D10120BDE8F081E4
:104C400050482838006820F080504E4928390860C4
:104C5000FCF7CEFA054606E0FCF7CAFA401B02282C
:104C600001D90320EAE7474828380068C0F34070BC
:104C70000028F1D100BF4348006820F07C702188F3
:104C800040EA01503F490860A088401EC0F3080078
:104C9000A168491E4FF47E4202EA41210843A189DE
:104CA000491ED20102EA01410843217C491E120239
:104CB00002EA0161084333491831086000BF3148F6
:104CC000001D006820F44060616908432D49091DFA
:104CD00008600846006820F40070A169084329496B
:104CE000091D08600846006820F4807008602548A7
:104CF0001C3000684FF6F8718843E16940EAC10052
:104D000020491C3108601F48001D006840F4807075
:104D10001C49091D08602EB90846006840F480004F
:104D2000086012E0012E08D11648001D006840F40A
:104D300000001449091D086007E01248001D0068C2
:104D400040F080700F49091D08600E48283800683F
:104D500040F080500B4928390860FCF749FA0546B5
:104D600006E0FCF745FA401B022801D9032065E75D
:104D7000044828380068C0F340700028F1D0384655
:104D80005CE700002844025800BF012000F052FEFA
:104D9000FBE710B54FF0E020006902F0E1FB0128CD
:104DA00001D002F02BF810BD00B59DB04C210AA82F
:104DB000FBF70AFC202102A8FBF706FC0220FCF707
:104DC0007FFD00BF002001902248006820F0010014
:104DD000204908600846006800F0010001901E4864
:104DE000006820F4404040F480401B4908600846B9
:104DF000006800F44040019000BF00BF00BF1648AB
:104E0000006800F40050B0F5005FF8D102200A906D
:104E100001200D9040200E90002013900AA8FEF76C
:104E20009BF908B1FBF78AFC3F2002900020039019
:104E30000490059006904020079000010890002003
:104E40000990012102A8FDF761FE08B1FBF776FC8D
:104E50001DB000BD2C040058184802583F48006897
:104E600040F470003D4908603D48006800F00F00C4
:104E7000072806D23A48006820F00F00C01D3849C4
:104E800008603848006840F001003649086000209A
:104E900034491031086033480068334908403149CB
:104EA00008602F48006800F00F00072806D92C483A
:104EB000006820F00F00C01D294908600020294922
:104EC00018310860091D0860091D08602748254938
:104ED000283108602648091D08602648091D086019
:104EE0000020091D08602348091D08600020091DD5
:104EF00008602048091D08600020091D0860194845
:104F0000006820F4802017490860002015496031AE
:104F10000860194800686FF30F00B0F1005F02D21B
:104F20000120164908600F48D430006800F4805012
:104F300098B90C48D430006840F480500949D43105
:104F4000086043F2D2000E4908600648D430006879
:104F500020F480500349D4310860704788ED00E0A8
:104F600000200052004402587FEDF6EA00020202DF
:104F70000000FF01800201010010005C0881005167
:104F80000040005210B50248FEF7B3FD10BD00000E
:104F9000C403002410B502682B4B98420ED0B0F128
:104FA000804F0BD0294B984208D0294B984205D00E
:104FB000284B984202D0284B984203D122F070022D
:104FC0004B681A43204B984217D0B0F1804F14D051
:104FD0001E4B984211D01E4B98420ED01D4B98424A
:104FE0000BD01D4B984208D01C4B984205D01C4B4F
:104FF000984202D01B4B984203D122F44072CB68F6
:105000001A4322F080034C6943EA04028B68C362AE
:105010000B6883620C4B98420BD00F4B984208D020
:105020000E4B984205D00E4B984202D00D4B984241
:1050300001D10B690363036843F004030360012398
:105040004361026010BD0000000001400004004008
:1050500000080040000C00400004014000400140F6
:10506000004401400048014070B5456E2DB901254E
:10507000A0F86A50A0F868501CE0102310240568BE
:10508000AD68C5F342610568AD686A0F0A4DAD5C55
:1050900015FB04F5094EB65C95FBF6F5A0F86A50D1
:1050A000054D6D5C15FB03F5044E765C95FBF6F53E
:1050B000A0F8685070BD0000547A00085C7A0008BF
:1050C00090F8281001F00801082907D10168496803
:1050D00021F40041826B11430268516090F828105E
:1050E00001F0010139B10168496821F40031C26A57
:1050F00011430268516090F8281001F00201022962
:1051000007D10168496821F48031026B11430268BC
:10511000516090F8281001F00401042907D10168BA
:10512000496821F48021426B11430268516090F874
:10513000281001F01001102907D10168896821F4B5
:105140008051C26B11430268916090F8281001F001
:105150002001202907D10168896821F40051026CDF
:1051600011430268916090F8281001F04001402935
:1051700013D10168496821F48011426C114302681F
:105180005160416CB1F5801F07D10168496821F475
:10519000C001826C11430268516090F8281001F040
:1051A0008001802907D10168496821F40021C26C7F
:1051B000114302685160704738B504460020C4F8B6
:1051C0009000FCF715F805462068006800F008001C
:1051D000082821D16FF07E402B4600224FF40011A9
:1051E0000090204600F07CFBB0B100BF00BF2168FA
:1051F00051E8001F21F08000226842E800010029E8
:10520000F5D100BF2020C4F8880000BF002084F83A
:10521000840000BF032038BD2068006800F004004F
:10522000042830D16FF07E402B4600224FF48001DD
:105230000090204600F054FB28B300BF00BF216857
:1052400051E8001F21F49070226842E80001002913
:10525000F5D100BF00BF00BF2168083151E8001F31
:1052600021F001002168083141E80002002AF3D151
:1052700000BF2020C4F88C0000BF002084F8840008
:1052800000BF0320C7E72020C4F88800C4F88C00C2
:105290000020E066206700BF84F8840000BF00BFE4
:1052A000B9E770B50446A56B0020A5F85E00284656
:1052B000FEF784FD70BD000000BF00BF026852E829
:1052C000002F22F49071036843E80012002AF5D100
:1052D00000BF00BF00BF0268083252E8002F104B29
:1052E00002EA03010268083242E80013002BF2D1FF
:1052F00000BFC16E01290CD100BF00BF026852E897
:10530000002F22F01001036843E80012002AF5D1B3
:1053100000BF2021C0F88C100021C1664167704792
:10532000FEFFFFEF10B5044600BF00BF216851E843
:10533000001F21F04000226842E800010029F5D159
:1053400000BF2020C4F888000020A0672046FFF797
:10535000C3F810BD2DE9F04F89B005460020089034
:10536000F8492868884200D100E000BF2969A86890
:10537000084369690843E96940EA01082868006848
:10538000F149084040EA0800296808602868406838
:1053900020F44050E968084329684860D5F818802F
:1053A000E8492868884202D0286A40EA0808286844
:1053B0008068E649084040EA080029688860286853
:1053C000C06A20F00F00696A08432968C86200BFFC
:1053D000DF492868884220D1DE48006800F03800A4
:1053E000182811D005DC48B1082809D0102811D19F
:1053F00008E020280AD028280CD109E001240BE07D
:10540000042409E0082407E0102405E0202403E038
:10541000402401E0802400BFF8E0CF49286888429A
:1054200019D1CC48006800F00700062810D2DFE848
:1054300000F0030507090B0D00240BE0042409E02C
:10544000082407E0102405E0202403E0402401E0C4
:10545000802400BFDAE0C1492868884219D1BD48DC
:10546000006800F00700062810D2DFE800F003050E
:1054700007090B0D00240BE0042409E0082407E0D1
:10548000102405E0202403E0402401E0802400BF34
:10549000BCE0B3492868884219D1AE48006800F0E2
:1054A0000700062810D2DFE800F0030507090B0DFE
:1054B00000240BE0042409E0082407E0102405E0A0
:1054C000202403E0402401E0802400BF9EE0A549A1
:1054D0002868884219D19F48006800F00700062814
:1054E00010D2DFE800F0030507090B0D00240BE0E4
:1054F000042409E0082407E0102405E0202403E048
:10550000402401E0802400BF80E097492868884259
:1055100020D19048006800F03800182811D005DC30
:1055200048B1082809D0102811D108E020280AD055
:1055300028280CD109E001240BE0042409E0082408
:1055400007E0102405E0202403E0402401E080244B
:1055500000BF5BE085492868884219D17D48006812
:1055600000F00700062810D2DFE800F00305070965
:105570000B0D00240BE0042409E0082407E01024AC
:1055800005E0202403E0402401E0802400BF3DE04A
:1055900077492868884219D16E48006800F00700F2
:1055A000062810D2DFE800F0030507090B0D0024E0
:1055B0000BE0042409E0082407E0102405E020247F
:1055C00003E0402401E0802400BF1FE05D4928681B
:1055D00088421AD15F48001D006800F007000628C5
:1055E00010D2DFE800F0030507090B0D02240BE0E1
:1055F000042409E0082407E0102405E0202403E047
:10560000402401E0802400BF00E0802400BF4D4919
:10561000286888427DD1102C1AD006DC022C09D0D3
:10562000042C0BD0082C29D10DE0202C21D0402CAB
:1056300024D120E0FCF774F9064623E005A8FCF726
:1056400081F9069E1EE002A8FCF794FA039E19E079
:10565000404854380068C0F3401040B13D485438C9
:105660000068C0F3C101434820FA01F600E0414E52
:1056700008E0414E06E04FF4004603E0002601201A
:10568000089000BF00BF002E10D03C49686A31F876
:105690001000B6FBF0F9686800EB4000484503D8FD
:1056A00068680003484502D20120089003E13349AD
:1056B000686A31F810C06246002330461946FAF78E
:1056C000BFFE4FF4807300228446ACFB030B01FB4A
:1056D00003B10CFB021C69684908034659184CEBDE
:1056E0000200CDE90010D5F804C062460023084648
:1056F0000199FAF7A5FE0746B7F5407F06D3B7F53F
:10570000801F03D22868C760D5E002E0012008901E
:10571000D1E0E869B0F5004F7BD1082C39D005DC29
:105720005CB1012C2CD0042C4CD12DE0102C35D0A8
:10573000202C42D0402C45D141E0FDF7D3FB06465A
:1057400044E00000000C0058F369FFCFFFF4FF11A4
:1057500000100140544402580044004000480040FA
:10576000004C004000500040001401400078004010
:10577000007C00400090D00300093D003C7A000806
:10578000FDF7C2FB064621E005A8FCF7DBF8069E04
:105790001CE002A8FCF7EEF9039E17E04C480068F5
:1057A000C0F3401038B14A480068C0F3C10149480D
:1057B00020FA01F600E0474E08E0474E06E04FF4BD
:1057C000004603E000260120089000BF00BFFEB1A4
:1057D0004249686A31F81000B6FBF0F04000696891
:1057E00000EB5100B0FBF1F7102F0FD3B7F5803F5E
:1057F0000CD24FF6F07007EA000AC7F342004AEAFB
:10580000000A2868C0F80CA055E002E001200890CA
:1058100051E0082C1AD005DC5CB1012C0DD0042C11
:105820002DD10EE0102C16D0202C23D0402C26D1C8
:1058300022E0FDF757FB064625E0FDF765FB06462F
:1058400021E005A8FCF77EF8069E1CE002A8FCF704
:1058500091F9039E17E01E480068C0F3401038B16C
:105860001B480068C0F3C1011A4820FA01F600E0A5
:10587000184E08E0184E06E04FF4004603E00026FC
:105880000120089000BF00BFAEB11449686A31F82A
:105890001000B6FBF0F0696800EB5100B0FBF1F7C7
:1058A000102F06D3B7F5803F03D2B8B22968C8607D
:1058B00001E0012008900120A5F86A00A5F8680021
:1058C00000206867A867089809B0BDE8F08F00005D
:1058D000004402580090D00300093D003C7A0008C3
:1058E0002DE9F04104460D4617469846069E41E0D4
:1058F000701C00283ED0FBF77BFCA0EB0800B042F8
:1059000000D816B90320BDE8F0812068006800F0D7
:10591000040070B3802D2DD0402D2BD02068C0699D
:10592000C0F3C00078B10820216808622046FFF764
:10593000C3FC0820C4F8900000BF002084F8840055
:1059400000BF0120DFE72068C069C0F3C02080B13C
:105950004FF40060216808622046FFF7ADFC20206C
:10596000C4F8900000BF002084F8840000BF03202A
:10597000C9E7FFE72068C0692840A84201D101209B
:1059800000E00020B842B3D00020BCE710B50248C8
:10599000FEF716FA10BD00000802002400BFFEE763
:1059A00002480068C0F30220704700000CED00E0E0
:1059B00010B5002804DB0A07130E054A135406E04D
:1059C0000A07140E034A00F00F031B1FD45410BD26
:1059D00000E400E018ED00E0EFF305807047000000
:1059E000FEF77DFDFBF710FEFFF7DEF9FEF7A2FDE7
:1059F000FEF7C0FFFFF72AF8FEF70CFFFEF7F0FFF7
:105A0000FEF78CFFFEF732FFFEF75CFF00F022F896
:105A1000054A0021054800F063F80549086000F0D8
:105A20002FF800BFFEE70000187A0008894D000833
:105A30000000002470B50546FFF7CEFF10B16FF0EF
:105A4000050404E0002415B1284600F0FBFF2046C1
:105A500070BD000010B5FFF7BFFF10B16FF0050477
:105A600009E00648006820B90120044908600024C4
:105A700001E04FF0FF34204610BD000088000024F4
:105A800070B5FFF7A9FF10B16FF005041FE01148D2
:105A90000068012819D100BF801F0021002804DB05
:105AA0000A07130E0C4A135406E00A07150E0B4A98
:105AB00000F00F031B1FD55400BF00BF0220054993
:105AC000086001F03BF8002401E04FF0FF3420466D
:105AD00070BD00008800002400E400E018ED00E044
